:100000000C9407060C943C2B0C9424060C942406A8
:100010000C9424060C9424060C9424060C942406B8
:100020000C9424060C9424060C944A260C94062660
:100030000C9447270C9424060C9424060C94240654
:100040000C9424060C9424060C9424060C94240688
:100050000C9424060C9423270C9424060C94240658
:100060000C9424060C9424060C9424060C94240668
:100070000C9424060C9424060C9424060C94240658
:100080000C9424060C9424060C9424060C94240648
:100090000C9424060C9424060C9424060C94240638
:1000A0000C9424060C9424060C9424062A000800C0
:1000B000130000002A0004001C0000002A001A009F
:1000C0001C0000002C000700110000002A000F0097
:1000D000120000002A0012001C0000000800160098
:1000E000170000002A0009000C0000002A0005008B
:1000F0001A0000002A000C000E0017000000040087
:100100001100170000002A0012001A0000002A0047
:100110000F00130000002A00080011001900000061
:100120002A001300150000002A0007001500000037
:100130002A0004000A000C0000002C000400170034
:1001400000002A00150019001C0000000C0011001E
:10015000170000000A000B000C001500000006004C
:100160001000000008000B001A0000002C002A00FC
:1001700007001100120000002A00090015001700F6
:1001800000002C002A0004000C0000002A001600C9
:10019000180000002C002A000900100017000000C1
:1001A0002A000400100000000D00160000000800E6
:1001B0001500160000002A000A000B0000000500D0
:1001C000060000002C0009000C0000002C002A0092
:1001D000130000002C001200160000002A0004008A
:1001E000110000002A000600120000002A000E0084
:1001F0001A00000005000E0000002A000A00180086
:1002000000002C000400110000002A00080010006B
:1002100000002A0005000900150000002A000F0058
:100220001A00000008001100170000002A0010004A
:10023000150000002A000800170000002A00120024
:1002400015001C0000002C002A0004000B00000018
:1002500008001500190000002A00120015001900FE
:1002600000002A000A001000160000000C00100018
:10027000170000002A000C00110000002C002A00CA
:10028000070000002A000400080000000400080025
:10029000150000002C001200170000002A001200B8
:1002A000150000002A001000170000002A000C00B2
:1002B0000F0000002A000500110000002C002A0099
:1002C000150000002A001000160000002C002A0073
:1002D000100000002A001700180000002A00080083
:1002E000190000002C002A001A0000000A000B0070
:1002F0000C0000002C0005001C0000002A000A0071
:10030000110000002A000C00170000002A00110054
:100310001A0000002C002A001C0000002A000B001C
:100320000C00000006001A0000002C002A000B0040
:10033000120000002A001500170000002A00040027
:100340001200170000002A000700160000002A0013
:100350000B000C00170000002A0008001A00000023
:100360002A000600180000002A00120017000000F2
:100370002A000400150000002A000B0012001500DE
:10038000170000002A000B001A0000002C002A00B1
:10039000050000002A000500180000002C002A00BB
:1003A000170000002A0018001A0000002A000800A8
:1003B0000B00150000002A000800150000002A00AC
:1003C00004000F0000002A0007000B0000000B00D3
:1003D000190000002A000B0017001C0000002A0072
:1003E0000900100000002C002A000B000C00000087
:1003F0002A000B001600170000002C00110012004C
:1004000000002C002A00040000002C002A00160026
:1004100000002A001100170000002C002A0009002B
:100420000B0000002A000800160000002A00090046
:10043000150000002C002A000C0000002A000B0010
:10044000160000002A001100120000002A00180007
:100450001C0000002A0004001A0000002A000C0002
:100460001A0000002C002A000B0000002A000A00DD
:100470000C0000002A000B00150000002C002A00D0
:10048000110000002A000400170000002C002A00C0
:10049000090000002C002A00120000002C002A0095
:1004A0000400070000002A000400070000002C00E0
:1004B0002A000B00170000002A000B0017000000A4
:1004C00070657200616E790077617900646F206EEB
:1004D0006F7420006C6F6F6B006F6E6C79006573CA
:1004E00074006669727374006265747765656E0086
:1004F0007468696E6B007468616E0077686F007075
:10050000656F706C65006576656E0070726F007265
:10051000656400616761696E0061742074686520BC
:1005200000766572790074696E6700726967687435
:1005300000636F6D00776865726500646964206EA2
:100540006F7420006166746572006974207761734E
:10055000200073686F756C640066726F6D2074683C
:100560006520006D616E006A7573740065727300BA
:1005700074686F75676874006265636175736500A0
:100580006966200075702000736F200063616E0043
:10059000636F6E006B6E6F77006261636B007468EF
:1005A0006F75676800616E20006D656E740062652E
:1005B000666F72650077696C6C007468656E006DBB
:1005C0006F72650074656400796F757200616E64A6
:1005D00020746865200065766572006F766572002C
:1005E000736F6D657468696E670074696D65006925
:1005F0006E746F00646F2000617465007265610045
:100600006F6E2074686520006F7572007468656D88
:10061000006C696B65006265656E006F7220007327
:100620006F6D65006D6520007468726F7567680096
:1006300065766500776520006967687400627920D7
:10064000007468696E67007468696E007768656E2B
:10065000006D79200068696D0077686963680074CF
:100660006F2074686520007465720061626F757434
:10067000007361696400746865697200776572650A
:1006800000636F756C64006F757400617265006F54
:100690007468657200776861740062652000627535
:1006A000740061742000776F756C64007468657203
:1006B000650065726500616C6C006861640068616A
:1006C000766500746865790066726F6D00696E20EA
:1006D000746865200074686973006F6E2000617330
:1006E00020006973200074696F6E006F6620746863
:1006F00065200073686500666F7200697420006889
:100700006973006E6F7400796F750077617300779D
:100710006974680068652000696E6700686572002A
:10072000696E200074686174006F662000746F2029
:1007300000616E642000616E64007468652000745E
:1007400068650045003A003B003C003D003E003536
:100750000014001A000900130005003900040015F8
:1007600000160017000A00A8521D001B0006000713
:1007700000190000000000567C577C2C00825200BB
:10078000000000A152A452A2522B003F00400041A1
:10079000004200430044000D000F0018001C00330D
:1007A0000031001000110008000C00120034000E8F
:1007B000000B003600370038002D0083522A004A13
:1007C000004D00000000002800B25229004C00003B
:1007D0000000000100010001000100010001000112
:1007E0000014001A0008001500170001000400168C
:1007F00000070009000A0001001D001B0006001987
:1008000000050000000000537C547C010001000042
:1008100000000001000100010001000100010001D1
:10082000000100010001001C0018000C0012001360
:100830000001000B000D000E000F0033000100113D
:1008400000100036003700380001000100010001EF
:100850000001000000000001000100010001000093
:1008600000000024525300460047004800BD00A885
:1008700000077E087E2F023002BE00A9002F003044
:1008800000260227024900AA0004011B01060119E3
:1008900001190500000000537C547C010001000098
:1008A000000000010001002A010100057E2302244E
:1008B0000220021E026152067E240025002600222C
:1008C0000221023600210022002300550057002E8D
:1008D000001E001F002000540056000100010027E8
:1008E000003700000000000100B20001000100001C
:1008F000000000245201000100010001000100017C
:10090000002F003000520065004C054B00010050E4
:100910000051004F0001004E0004011B01060119A7
:10092000011905000000002B132B0101000100003C
:10093000000000010001002A010100010001000186
:1009400000010001006152077E2702260230002FBD
:10095000004600087EE400E500E600E70001002311
:1009600002240220021F021E0201000100010001F8
:100970000001000000000001000100010001000072
:1009800000000000003A003B003C003D003E00003B
:100990007C000000000000000000000000000000DB
:1009A00000000000000000007C00000000000000CB
:1009B00000007C00000000000000000100010000B9
:1009C00000000001000100010001003F0040004163
:1009D0000042004300000000000000000000000092
:1009E0000000000000000000000000000000000007
:1009F00000000000000000000000000100010000F5
:100A000000000000000000010001000100010000E2
:100A100000000000000000000000000000000000D6
:100A200000000000000000000000000000000000C6
:100A3000000000000000007E0F00D4FFFFFFC70091
:100A400000007800000000000000002A2B280000B1
:100A5000000000000000000000000000000029006D
:100A60000000002C1E3420212224342627252E3677
:100A70002D3738271E1F20212223242526333336E5
:100A80002E37381F0405060708090A0B0C0D0E0F38
:100A9000101112131415161718191A1B1C1D2F31BB
:100AA00030232D350405060708090A0B0C0D0E0F1F
:100AB000101112131415161718191A1B1C1D2F319B
:100AC00030354C05010902A10185020901A100058B
:100AD00009190129081500250195087501810205EC
:100AE00001093009311581257F95027508810609B4
:100AF000381581257F950175088106050C0A380295
:100B00001581257F950175088106C0C00501098002
:100B1000A101850319012AB700150126B700950127
:100B200075108100C0050C0901A101850419012A75
:100B3000A002150126A002950175108100C00501D3
:100B40000906A101050719E029E715002501950807
:100B5000750181029501750881010507190029FFBA
:100B6000150026FF00950675088100050819012962
:100B700005950575019102950175039101C0090262
:100B80003B00020100A0FA0904000001030101007A
:100B9000092111010001224000070581030800011D
:100BA00009040100010300000009211101000122D4
:100BB0007B000705820320000112010002000000F3
:100BC000084D4436350100010200012C0344006148
:100BD000006300740079006C002D004D0061006E10
:100BE00000750066006F0072006D0020002800355F
:100BF0000078003600290000000E037400730068BE
:100C0000006F007200740000000403090400112446
:100C10001FBECFEFDAE0DEBFCDBF14E0A0E0B1E051
:100C2000E6EAFBE502C005900D92AA3DB107D9F7AF
:100C30002AE0AAEDB4E001C01D92A136B207E1F7A7
:100C40000E946E270C94152D0C940000FC01AC0141
:100C50004A5F5F4F8FEF91E32191822728E030E0D8
:100C600087FF09C0880F892721503109C9F7E41788
:100C7000F50791F70895880FF7CFE8EDF0E0808150
:100C80008E7F80831092E2001092DA001092E100D1
:100C9000A0EEB0E08C9181608C9380818F7780830F
:100CA00019BCA7EDB0E08C918E7F8C9380818F7EF4
:100CB00080831092470A08952091E4003091E50066
:100CC00095E6A9012091EC00822F817020FF06C0DB
:100CD0008091E80080FF06C080E008952091E80040
:100CE00022FD1AC08091540A882389F0853089F04A
:100CF0008091EB0085FD0FC02091E4003091E5006C
:100D000042175307F9F29150E1F684E0089582E02A
:100D1000089583E0089581E008958091560A87FF41
:100D200013C08091E80082FF06C08091E8008B77B5
:100D30008093E80004C08091540A8111F2CF089595
:100D40008091540A8823D9F38091E80080FFF8CF7E
:100D50008091E8008E77ECCF982F9093E900242FB4
:100D6000762F50E0891731F07091EC002091ED0062
:100D70005091F00021FD07C09F5F973071F780937D
:100D8000E90081E008953091EB003E7F3093EB0065
:100D90003091ED003D7F3093ED003091EB003160FC
:100DA0003093EB007093EC002093ED005093F00033
:100DB0002091EE0027FDE0CF80E00895B0E0A0E0B4
:100DC000E4EEF6E00C94622CC8EDD0E088818F7ED2
:100DD0008883E7EDF0E080818160808384E082BFDA
:100DE00081E08093470A88818E7F888302EE10E03D
:100DF000F80110821092DA0081EEC82ED12CF60193
:100E0000108288818F778883888180688883888131
:100E10008F7D888319BC1092540A1092550A109243
:100E2000530A1092520A90EEE92EF12CF7018081BC
:100E30008B7F808388818160888342E060E080E0EE
:100E40000E94AC06F60180818E7F8083F80180814C
:100E500081608083808188608083F70180818E7FBC
:100E60008083888180618883CDB7DEB7E8E00C9409
:100E70007E2CFC0180915C0A90915D0A8617970791
:100E8000A0F06115710529F49091E8009E77909388
:100E9000E80090E06115710551F4911108C080914E
:100EA000E80082FF34C080E00895BC01F2CF809159
:100EB000540A8823C1F18530C1F18091E80083FD97
:100EC00030C08091E80082FDEACF8091E80080FF89
:100ED000E1CF8091F3002091F200382F6115710568
:100EE00019F02830310558F091E02830310509F02B
:100EF00090E02091E8002E772093E800CBCF8191FD
:100F00008093F100615071092F5F3F4FE7CF8091CF
:100F1000540A882341F0853041F08091E80083FF36
:100F2000BECF81E0089582E0089583E00895809126
:100F3000490A08959C014FB7F8948091430A909113
:100F4000440AA091450AB091460A4FBF821B930BF9
:100F500008952FB7F8946091430A7091440A8091E4
:100F6000450A9091460A2FBF08952FB7F8948091B3
:100F7000430A9091440AA091450AB091460A2FBFB6
:100F80000895A3E0B0E0E7ECF7E00C94682C209122
:100F9000400A3091410A28173907A1F09093410A7D
:100FA0008093400AE0913E0AF0913F0A309751F059
:100FB00024E029839B838A830680F781E02DCE017C
:100FC000019609952396E2E00C94842CA3E0B0E00E
:100FD000ECEEF7E00C94682C20913C0A30913D0A2D
:100FE00028173907A1F090933D0A80933C0AE091BD
:100FF0003E0AF0913F0A309751F023E029839B830A
:101000008A830680F781E02DCE010196099523960B
:10101000E2E00C94842CDC016091380A8091390A5A
:10102000962F891301C00895292F30E0F901EE0FA2
:10103000FF1FE05DF54F408151814A175B07A1F426
:1010400087E08A9FA0018B9F500D11244B5D5E4F5E
:1010500081E0FA0184839613E6CF2F5F3F4F237020
:1010600033272093380A08952F5F3F4F922F9370B4
:10107000D8CF1092CC091092CB09E5E2F1E085813E
:10108000811102C014821682379684E0E039F80795
:10109000B1F708950E94B5079C019091C309809112
:1010A000C409982B21F03093C0092093BF09909177
:1010B000C5098091C609982B21F03093BE09209371
:1010C000BD09E0913E0AF0913F0A309749F082E075
:1010D0008093C1090480F581E02D81EC99E00995A8
:1010E00008958091BC0980FD16C081FD16C082FD67
:1010F00016C08091BB098823A1F0883280F428E0D3
:10110000829FC001112468E270E00E948F2C862F1C
:10111000672B39F0089582E0089584E0089588E00F
:10112000089581E008958091BC0980FD16C081FD7D
:1011300016C082FD18C08091BA09882391F08C33C3
:1011400090F428E3829FC00111246CE370E00E94B8
:101150008F2C862F672B49F008958EE008958CE13F
:10116000089588E0089588E3089581E0089580E077
:101170000895F894E82FE295EF70F0E031A1282F60
:101180002F7081E090E001C0880F2A95EAF7982F30
:101190009095932391A392A1892B82A3789408958B
:1011A00090919C0992FF06C0282F28712830F9F4ED
:1011B000877F846093FF06C0282F28712831F1F4BF
:1011C000877E846120919D0920FF06C0382F3871E9
:1011D0003830D9F4877F816021FF06C0282F28711D
:1011E0002831D1F4877E816194FD877E0895282F70
:1011F00024712430F9F68B7F8860DCCF282F24718E
:10120000243101F78B7E8861DDCF382F3171313089
:1012100019F78E7F8860E0CF282F2171213121F7C7
:101220008E7E8861E1CF972F7C30B8F46630A8F4C9
:10123000853098F470E026E0929F600D711D1124B6
:10124000FB0198E4899FE00DF11D1124EE0FFF1FB3
:10125000ED5BF84F85919491089580E090E00895BA
:10126000CF93DF93EC0182389105B9F108F041C0CA
:101270008133910509F49FC050F58932910509F435
:101280008FC08A9709F49EC0C11520E5D20708F0E7
:10129000BDC0C11530E4D30708F00AC1C03ED10576
:1012A00008F0A5C0CD3CD10508F000C1C83AD10571
:1012B00008F08FC0C53AD10508F0F0C0C130D105A3
:1012C00039F1209729F1C430D10510F546C0853396
:1012D000910509F460C0C997B9F680919C098370A3
:1012E00009F044C180919D0983FF12C0C9E2D0E09A
:1012F0000FC0833E9105A1F178F4803E910509F17C
:10130000823E910509F0C0CF80919C0982FD21C0E9
:10131000CE01DF91CF910895863E910561F1873E20
:10132000910571F1843E910509F0AECF80919D0940
:1013300081FFEECF80919C09C7EED0E084FD0DC007
:10134000E7CF80919C0980FD33C090919D0990FF6B
:10135000DFCFC3EED0E084FFDBCFD0E0C0E0D8CF5A
:1013600080919C0982FDFFC090919D0990FDFEC077
:1013700084FFCECFF2CF80919C0983FDDDCFC8CF13
:1013800080919C0983FDF5C090919D0991FFF0CF5C
:10139000C4EED0E0BDCF80919C0985FFB9CFA6CF28
:1013A00080919C0985FDE8C080919D0983FFB0CFA5
:1013B000C9E3D0E0ADCF80919C0986FFA9CFCAE2F6
:1013C000D0E0A6CF80919C0986FFA2CFC1E3D0E0F8
:1013D0009FCFC13CD10508F6C85AD0E0CC0FDD1F25
:1013E000C656DB4F0990D881C02DD46491CFC1156A
:1013F00040E2D40708F0AAC0C11581E0D80708F080
:1014000087CFC83ED10508F483CFA7CFC03622E5E9
:10141000D20718F5C03432E5D30708F053C0C03204
:1014200042E5D40708F047C0C11582E5D80708F4A3
:101430007FC02C2F2695269540E2249F90011124F1
:101440008C2F8370C1E0D0E002C0CC0FDD1F8A95E5
:10145000E2F7C22BD32BDD685BCFC03A22E5D2077F
:1014600060F4C03832E5D30708F441C0CF71D0E052
:10147000DC2FCC27C46FD06A4BCFC03C42E5D407E9
:1014800008F44AC0C03E82E5D80708F066CFDC2FDA
:10149000CC27CC27DF71C06FD06A3ACFC55AD0E0D5
:1014A000C956DB4FC881D0E0D06432CFD06530CF91
:1014B000DF70D06A2DCFCF71D0E0DC2FCC27C16F89
:1014C000D06A26CF2C2F26952695277080E2289F5C
:1014D000900111248C2F8370C1E0D0E002C0CC0FAA
:1014E000DD1F8A95E2F7C22BD32BDC6811CF2C2F9E
:1014F00026952695277040E2249F900111248C2F79
:101500008370C1E0D0E002C0CC0FDD1F8A95E2F706
:10151000C22BD32BDA68FCCE8C2F8F710E94D0089F
:10152000C82FD0E0DC2FCC27CC27DF71D062F0CEE3
:101530008C2F8F710E94D00835E0D695C7953A95CB
:10154000E1F7CF709C2FEC01D069E2CE8D2F8F7127
:101550000E94D00890E0982F882788279F719C01CF
:101560002C2BE901E3CFC2EED0E0D2CEC0EED0E02A
:10157000CFCEC6EED0E0CCCEC5E3D0E0C9CE8091D0
:10158000600981111092600908958091CA09811142
:101590000FC01092C7090E94BF0A0E94B507885762
:1015A0009C4E9093C9098093C80981E08093CA0931
:1015B000089580959091C70998239093C70908953D
:1015C000EEEDF4E09191891303C0DF0111971C92B5
:1015D00094E0E43EF907B1F70895AEEDB4E0EFEF23
:1015E00090E02D91821751F0EF3F19F4211101C0C5
:1015F000E92F9F5F9630A9F7EF3F09F408950E2E6B
:10160000000CFF0BE452FB4F828308952091560992
:1016100090911509291302C080E0089530E0F90186
:1016200053E0EE0FFF1F5A95E1F7EA5EF64F518146
:10163000561306C05081581303C05281541304C07E
:101640002F5F3F4F2770E6CF81E0089580915609C4
:1016500090911509981301C008958F5F8770FACF94
:10166000B0E0A0E0E6E3FBE00C94612C7C0100918B
:101670009A0910919B098091980990919909082BDA
:10168000192BCFE0D0E0CC24C394D12CBC2EC601C2
:101690000C2E02C0880F991F0A94E2F78023912331
:1016A000892B49F4219790F7B12C8B2DCDB7DEB75C
:1016B000E9E00C947D2CB7018C2F0E9413090E9445
:1016C0003009019779F3F1CFCF93DF93EC010E94BA
:1016D000300BBE010E9413090E943009DF91CF91A7
:1016E00008959C3078F5863068F5E82FF0E086E0C4
:1016F000989FE00DF11D11249E2F977083E0F695C1
:10170000E7958A95E1F7EE0FFF1FEE0FFF1FE751F8
:10171000F74F50E040E080E0219130E0092E02C018
:10172000369527950A94E2F721703327042E01C0DD
:10173000220F0A94EAF7822B4F5F5F4F4430510526
:1017400059F7089580E008959C3098F5863088F523
:10175000E82FF0E086E0989FE00DF11D11248E2F18
:10176000877041E001C0440F8A95EAF783E0F6955F
:10177000E7958A95E1F7EE0FFF1FEE0FFF1FE75188
:10178000F74F30E020E070E05191DF011197CB017D
:10179000022E02C0969587950A94E2F78170819592
:1017A0008527842385278C932F5F3F4F2430310575
:1017B00059F7089590939B0980939A09089521E021
:1017C00030E002C0220F331F8A95E2F72095309552
:1017D00080919A0990919B09822393230E94DA0BAE
:1017E0000895909157098095892380935709282F50
:1017F000277091F4282F082E000C330B9217130634
:1018000059F090919D0992FF07C085958595859522
:101810000E94DF0B10925709089521E030E002C0CA
:10182000220F331F8A95E2F780919A0990919B09C4
:10183000822B932B0E94DA0B089590919D0992FFC1
:1018400007C098E0899F90011124622B609357098B
:101850000E940D0C0895909399098093980908951A
:10186000FC0183819481892B29F0808191818923D6
:101870008F3FF1F480E008950E94300992959F70A7
:10188000963089F058F4925F9F70923098F7803FBD
:1018900019F030F4883E70F781E008959A5FF4CF34
:1018A000843F41F7F9CF883EB8F3813F19F7F4CF71
:1018B00086819781009701F7808191810E94640B56
:1018C000DDCF662309F45DC08D3C41F40E9493088E
:1018D00081958093C4090E944A0808958E3C19F4AA
:1018E0000E949308F6CF8F3C31F40E9493088195B3
:1018F0008093C309F0CF803D19F40E949308F8CF7C
:10190000893D29F40E9471088093C509E4CF8A3D7E
:1019100021F40E9471088195F7CF8B3D31F40E942C
:10192000710881958093C609D6CF8C3D19F40E9429
:101930007108F8CF9FE2980F983070F4815D990B91
:1019400021E030E001C0220F8A95EAF78091C209B8
:10195000822B8093C209BFCF8D3D31F48091BC09A9
:1019600081608093BC09B7CF8E3D21F48091BC0982
:101970008260F7CF8F3D09F0AECF8091BC098460C3
:10198000F0CF4091C3098D3C59F48091C40987FF81
:101990000DC01092C40941110BC01092BA0908C0C1
:1019A0008E3C81F48091C40918169CF3442381F085
:1019B0008091C5099091C609892B09F08CCF1092AE
:1019C000BB0989CF8F3C49F447FFF0CF1092C30980
:1019D0008091C4098111ECCFE0CF803D19F4141639
:1019E000ACF3E4CF9091C509893D29F41916F4F6BA
:1019F0001092C509DBCF8A3D19F497FFD7CFF8CFF6
:101A00009091C6098B3D29F497FFD0CF1092C6095B
:101A1000CDCF8C3D19F41916CCF3C8CF9FE2980FA7
:101A2000983090F4815D990B21E030E0B90102C05B
:101A3000660F771F8A95E2F7CB0180959091C209D6
:101A400089238093C209B2CF8D3D31F48091BC09C6
:101A50008E7F8093BC09AACF8E3D21F48091BC0972
:101A60008D7FF7CF8F3D09F0A1CF8091BC098B7F8F
:101A7000F0CFA5E0B0E0EFE3FDE00C94672C9C0113
:101A8000FC01868197810097E1F485E0DE011196E3
:101A900001900D928A95E1F7F901228189819A815D
:101AA000222399F0662389F00E94300B182F682FAB
:101AB00089819A810E94A40B69817A81812F0E9479
:101AC00013092596E3E00C94832C0E94710B182FC8
:101AD000F3CF82E0FB01099508950F931F93CF93F5
:101AE000DF938B01EA019091540A943061F5809361
:101AF000E9008FEF9091E800815095FD06C095EDCB
:101B00009A95F1F700008111F5CF8091E80085FFEB
:101B10001AC00E945C06811111C08091E80085FD09
:101B200006C08091E8008E778093E800F2CFF8013C
:101B300081918F018093F100219779F78091E800DE
:101B40008E778093E800DF91CF911F910F910895D8
:101B500043E050E0BC0182E00E946D0D089546E034
:101B600050E0BC0182E00E946D0D0895CF93DF9399
:101B7000EC0148E050E0BC0181E00E946D0D88E07E
:101B8000FE01AAE4BAE001900D928A95E1F7DF9197
:101B9000CF910895B0E0A0E0E0EDFDE00C94602C62
:101BA0007C015B016A018091850901E010E08A30C7
:101BB00010F40AE010E0C1E0D0E0B501C701F60181
:101BC0000995811104C021960C171D072CF4CDB77F
:101BD000DEB7EAE00C947C2CCC9F9001CD9F300DB9
:101BE000300D112490E080E045E34A95F1F70000C4
:101BF000019682179307C1F7E0CF80916B0981119D
:101C000010C08091D80080618093D8008AE18A95C5
:101C1000F1F700C08091D90080FF0AC081E0809375
:101C20006B0981E090916B09913009F080E0089593
:101C300082E080936B090E943D061092540AF1CF16
:101C40000E94FD0D882359F0E0913E0AF0913F0A71
:101C5000309729F00190F081E02D0995089580E0FA
:101C600008958091C7099091CD09892B8093DC0458
:101C700090916009992391F0892B8093DC0420E0F6
:101C80008EED94E0FC013191CF0131112F5FF4E032
:101C9000843E9F07B9F721110E94BF0A48E050E037
:101CA00068E579E08CED94E00E94FF2C892BA9F087
:101CB00088E0ECEDF4E0A8E5B9E001900D928A959A
:101CC000E1F7E0913E0AF0913F0A309731F002804F
:101CD000F381E02D8CED94E009950895882341F07F
:101CE00080959091CD0989238093CD090E94310E72
:101CF00008958091CA09882329F082E20E946E0E1D
:101D00001092CA090895882339F09091CD09982B33
:101D10009093CD090E94310E0895882321F00E94EE
:101D2000D90A0E94310E0895882339F09091C7098D
:101D3000982B9093C7090E94310E0895882309F4C7
:101D400056C0823879F40E94200E81FF50C089E38A
:101D50000E94ED0A0E94310E89E30E94E00A0E946F
:101D6000310E0895833859F40E94200E80FF3FC041
:101D700083E50E94ED0A0E94310E83E5EECF8438A0
:101D800059F40E94200E82FF32C087E40E94ED0ABF
:101D90000E94310E87E4E1CF9CEF980F913AE8F270
:101DA00090E2980F983050F4877091E001C0990F3D
:101DB0008A95EAF7892F0E94D90AD1CF9BE5980F1F
:101DC000933028F490E080E00E94E607089598E5BB
:101DD000980F993128F490E080E00E94C10708959F
:101DE00093E3980F933118F460E00E94610C08951A
:101DF000CF93C82F8823C9F08238C9F40E94200EDF
:101E000081FD13C089E30E94ED0A0E94310E2FEF7D
:101E100087EE93E0215080409040E1F700C0000041
:101E200089E30E94E00A0E94310ECF910895833821
:101E3000A1F40E94200E80FDF8CF83E50E94ED0AF8
:101E40000E94310E2FEF81EE94E0215080409040AF
:101E5000E1F700C0000083E5E4CF8438A1F40E94DC
:101E6000200E82FDE2CF87E40E94ED0A0E94310E2F
:101E70002FEF81EE94E0215080409040E1F700C0C8
:101E8000000087E4CECF8CEF8C0F813A68F4EEED42
:101E9000F4E08191C817E9F124E0E43EF207C9F7C4
:101EA0008C2F0E94ED0ABFCF80E28C0F883068F43F
:101EB000C77021E030E001C0220FCA95EAF7809197
:101EC000C709822B8093C709AECFEBE5EC0FE33057
:101ED00040F4F0E0E956FB4F808190E00E94E60775
:101EE000A4CFE8E5EC0FE93150F4F0E0EE0FFF1F6E
:101EF000E656FB4F808191810E94C10796CF83E314
:101F00008C0F833108F091CF61E08C2F0E94610C1F
:101F10008CCF8C2F0E94E00A0E94310EC1CF1F93FC
:101F2000CF93DF93182FD0E0C0E0893311F4C0E5E0
:101F3000D0E0812F0E94F80E209739F4812F0E9463
:101F40009E0EDF91CF911F9108958FE99FE0019739
:101F5000F1F700C000002197EFCF0F931F93CF93AD
:101F6000DF93C62FD42F022FFC0182818823A9F092
:101F70006093600A0E94B50790935F0A80935E0A9F
:101F8000C77081E001C0880FCA95EAF70E94940EDD
:101F9000DF91CF911F910F9108958091600A68138E
:101FA00032C080915E0A90915F0A0E949A07883C35
:101FB000910548F510E21D0FCD17B9F080E28C0FA6
:101FC000883040F4C77081E001C0880FCA95EAF7F5
:101FD0000E948D0E183048F481E09D2F977001C04B
:101FE000880F9A95EAF70E94940E802F0E948F0F17
:101FF000183070F6D77081E001C0880FDA95EAF7E3
:102000000E948D0EC5CFC77081E001C0880FCA95B0
:10201000EAF7F6CFB0E0A0E0E0E1F0E10C94632C49
:10202000E82FF0E0ED5BF54FD490282F269526950C
:10203000269530E0F901ED5CF54F0491877010E0D2
:10204000082E02C0159507950A94E2F70170112732
:10205000F901ED5DF54FE490F12C082E02C0F594E6
:10206000E7940A94E2F791E0E922FF24F901ED5E9A
:10207000F54FC491D0E002C0D595C7958A95E2F797
:10208000C170DD270115110519F081EE0E94F80ECF
:10209000E114F10419F086EE0E94F80E8D2D0E94D5
:1020A0008F0FE114F10419F086EE0E949E0E0115C7
:1020B000110519F081EE0E949E0ECD2B19F08CE2D5
:1020C0000E948F0FCDB7DEB7E7E00C947F2CFF9214
:1020D0000F931F93CF93DF938C018AE0F82EF801C2
:1020E0008491882309F44BC0813009F044C0E80191
:1020F0002196FE018491813049F42196FE0184915C
:102100000E948F0F8E010F5F1F4FE9CF823039F48D
:10211000E8012296FE0184910E94F80EF3CF8330ED
:1021200039F4E8012296FE0184910E949E0EEACFC6
:10213000843041F7E8012296FE01249190E080E08E
:10214000FE0131962053330B2A30310548F00197B8
:10215000C8F2EFE9FFE03197F1F700C00000F7CFD8
:10216000F89EA001F99E500D1124C901840F951FFE
:102170002491EF01E5CF0E940A10E801C3CFCDB74B
:10218000DEB7E5E00C94812C8D37910508F0E3C3B0
:10219000895E924DFC010C94A32C662309F4DBC3E9
:1021A0008FE397E00E9467100895662309F4D3C374
:1021B0008AE397E00E9467100895662309F4CBC371
:1021C00086E397E00E9467100895662309F4C3C36D
:1021D00081E397E00E9467100895662309F4BBC36A
:1021E0008DE297E00E9467100895662309F4B3C357
:1021F00089E297E00E9467100895662309F4ABC353
:1022000084E297E00E9467100895662309F4A3C34F
:1022100080E297E00E9467100895662309F49BC34B
:102220008CE197E00E9467100895662309F493C338
:1022300088E197E00E9467100895662309F48BC334
:1022400084E197E00E9467100895662309F483C330
:102250008FE097E00E9467100895662309F47BC31E
:102260008BE097E00E9467100895662309F473C31A
:1022700087E097E00E9467100895662309F46BC316
:1022800083E097E00E9467100895662309F463C312
:102290008FEF96E00E9467100895662309F45BC3F0
:1022A0008BEF96E00E9467100895662309F453C3EC
:1022B00087EF96E00E9467100895662309F44BC3E8
:1022C00083EF96E00E9467100895662309F443C3E4
:1022D0008BEE96E00E9467100895662309F43BC3D5
:1022E00086EE96E00E9467100895662309F433C3D2
:1022F00082EE96E00E9467100895662309F42BC3CE
:102300008EED96E00E9467100895662309F423C3BA
:102310008AED96E00E9467100895662309F41BC3B6
:1023200085ED96E00E9467100895662309F413C3B3
:102330008DEC96E00E9467100895662309F40BC3A4
:1023400088EC96E00E9467100895662309F403C3A1
:1023500083EC96E00E9467100895662309F4FBC29F
:102360008EEB96E00E9467100895662309F4F3C28D
:102370008AEB96E00E9467100895662309F4EBC289
:1023800086EB96E00E9467100895662309F4E3C285
:1023900082EB96E00E9467100895662309F4DBC281
:1023A0008CEA96E00E9467100895662309F4D3C270
:1023B00086EA96E00E9467100895662309F4CBC26E
:1023C00082EA96E00E9467100895662309F4C3C26A
:1023D0008EE996E00E9467100895662309F4BBC257
:1023E0008AE996E00E9467100895662309F4B3C253
:1023F00085E996E00E9467100895662309F4ABC250
:102400008FE896E00E9467100895662309F4A3C23E
:102410008BE896E00E9467100895662309F49BC23A
:1024200087E896E00E9467100895662309F493C236
:1024300081E896E00E9467100895662309F48BC234
:102440008CE796E00E9467100895662309F483C222
:1024500086E796E00E9467100895662309F47BC220
:1024600081E796E00E9467100895662309F473C21D
:102470008BE696E00E9467100895662309F46BC20C
:1024800087E696E00E9467100895662309F463C208
:102490008FE596E00E9467100895662309F45BC2F9
:1024A00089E596E00E9467100895662309F453C2F7
:1024B00085E596E00E9467100895662309F44BC2F3
:1024C00081E596E00E9467100895662309F443C2EF
:1024D0008CE496E00E9467100895662309F43BC2DD
:1024E00087E496E00E9467100895662309F433C2DA
:1024F00081E496E00E9467100895662309F42BC2D8
:102500008DE396E00E9467100895662309F423C2C4
:1025100088E396E00E9467100895662309F41BC2C1
:1025200084E396E00E9467100895662309F413C2BD
:1025300080E396E00E9467100895662309F40BC2B9
:1025400088E296E00E9467100895662309F403C2AA
:1025500084E296E00E9467100895662309F4FBC1A7
:102560008FE196E00E9467100895662309F4F3C195
:102570008BE196E00E9467100895662309F4EBC191
:1025800086E196E00E9467100895662309F4E3C18E
:1025900081E196E00E9467100895662309F4DBC18B
:1025A0008CE096E00E9467100895662309F4D3C179
:1025B00088E096E00E9467100895662309F4CBC175
:1025C00080E096E00E9467100895662309F4C3C175
:1025D0008CEF95E00E9467100895662309F4BBC153
:1025E00088EF95E00E9467100895662309F4B3C14F
:1025F00084EF95E00E9467100895662309F4ABC14B
:102600008FEE95E00E9467100895662309F4A3C138
:102610008AEE95E00E9467100895662309F49BC135
:1026200080EE95E00E9467100895662309F493C137
:102630008BED95E00E9467100895662309F48BC125
:1026400086ED95E00E9467100895662309F483C122
:102650008DEC95E00E9467100895662309F47BC114
:1026600088EC95E00E9467100895662309F473C111
:1026700084EC95E00E9467100895662309F46BC10D
:102680008FEB95E00E9467100895662309F463C1FB
:102690008AEB95E00E9467100895662309F45BC1F8
:1026A00085EB95E00E9467100895662309F453C1F5
:1026B0008EEA95E00E9467100895662309F44BC1E5
:1026C00089EA95E00E9467100895662309F443C1E2
:1026D00085EA95E00E9467100895662309F43BC1DE
:1026E0008EE995E00E9467100895662309F433C1CE
:1026F00089E995E00E9467100895662309F42BC1CB
:1027000084E995E00E9467100895662309F423C1C7
:1027100080E995E00E9467100895662309F41BC1C3
:102720008CE895E00E9467100895662309F413C1B0
:1027300088E895E00E9467100895662309F40BC1AC
:1027400084E895E00E9467100895662309F403C1A8
:1027500080E895E00E9467100895662309F4FBC0A5
:1027600088E795E00E9467100895662309F4F3C096
:1027700080E795E00E9467100895662309F4EBC096
:102780008CE695E00E9467100895662309F4E3C083
:1027900087E695E00E9467100895662309F4DBC080
:1027A00083E695E00E9467100895662309F4D3C07C
:1027B00089E595E00E9467100895662309F4CBC06F
:1027C00082E595E00E9467100895662309F4C3C06E
:1027D0008AE495E00E9467100895662309F4BBC05F
:1027E00084E495E00E9467100895662309F4B3C05D
:1027F0008BE395E00E9467100895662309F4ABC04F
:1028000085E395E00E9467100895662309F4A3C04C
:1028100081E395E00E9467100895662309F49BC048
:102820008BE295E00E9467100895662309F493C037
:1028300086E295E00E9467100895662309F48BC034
:1028400081E295E00E9467100895662309F483C031
:1028500089E195E00E9467100895662309F47BC022
:1028600083E195E00E9467100895662309F473C020
:102870008FE095E00E9467100895662309F46BC00D
:102880008BE095E00E9467100895662309F463C009
:1028900086E095E00E9467100895662309F45BC006
:1028A0008FEF94E00E9467100895662309F453C0E7
:1028B0008BEF94E00E9467100895662309F44BC0E3
:1028C00086EF94E00E9467100895662309F443C0E0
:1028D00080EF94E00E94671008956623E1F188EE8E
:1028E00094E00E94671008956623A9F182EE94E0B7
:1028F0000E9467100895662371F18EED94E00E94A6
:1029000067100895662339F189ED94E00E946710FD
:102910000895662301F184ED94E00E946710089504
:102920006623C9F08CEC94E00E946710089566233A
:1029300091F088EC94E00E9467100895662359F0A6
:1029400084EC94E00E9467100895662321F080ECE7
:1029500094E00E94671008951F93CF93DF93EC01DA
:102960001AE08881882309F43EC08130C9F5998135
:102970008A81913029F422960E948F0F2196F1CFFF
:10298000923021F422960E94F80EF8CF933021F471
:1029900022960E949E0EF2CF943011F02196EECF37
:1029A000229630E020E0AE014F5F5F4F8053990BDD
:1029B0008A30910550F02150310900F38FE99FE0F2
:1029C0000197F1F700C00000F6CF129FB001139FEE
:1029D000700D11249C01260F371F8981EA01E3CF76
:1029E0000E940A10CBCFDF91CF911F910895909153
:1029F0009D0992FB222720F9281779F080FB92F994
:102A000090939D0960919C0970919D0984E090E0EC
:102A10000E94E92C82E00E94F10B0895CF9310925E
:102A2000C709C6E0EEEDF4E0DF018C2F1D928A9518
:102A3000E9F790E080E00E94E60790E080E00E94E5
:102A4000C1071092CD090E94310EE1ECF9E0DF01DF
:102A50001D92CA95E9F71092BA091092BB0910921B
:102A6000BC090E944A08CF910895AAE2B0E0EBE3C6
:102A7000F5E10C94672C86E59AE02091F100FC01C9
:102A80002193CF01FAE08E359F07B9F78091570A5D
:102A9000833009F470C0B8F4813009F447C0823043
:102AA00009F4B1C08091E80083FF7EC28091560A8C
:102AB0009091570A9A3008F077C2E92FF0E0EC566F
:102AC000F24D0C94A32C8A3009F48CC08B3009F49D
:102AD0006FC0893039F78091560A813219F7809199
:102AE0005A0A90915B0A0297E8F68091E800877F86
:102AF0008093E8008091E80082FF38C09091F30055
:102B00008091F200029731F48091F100813011F050
:102B1000863021F48091F1008093490A8091E80089
:102B20008B778093E8000E948D06BCCF8091560A77
:102B3000813A09F0B7CF8091E800877F8093E80061
:102B400080915A0A90915B0A892B61F468E08AE4CB
:102B50009AE070E00E9439078091E8008B778093BB
:102B6000E800A0CF60E090E080E0F3CF8091540ACD
:102B70008111C0CF97CF8091560A813A09F092CF48
:102B800080915A0A90915B0A892B09F08BCF809132
:102B9000E800877F8093E8008091E80080FFFCCF09
:102BA000809191048093F1008091E8008E77B9CFF5
:102BB0008091560A813209F075CF80915A0A90911E
:102BC0005B0A892B09F06ECF8091E800877F8093A4
:102BD000E8000E948D068091580A809391040E941B
:102BE0000E1560CF8091560A813209F05BCF80913B
:102BF000E800877F8093E8000E948D068091590A43
:102C00008093480A4FCF8091560A813A09F04ACF03
:102C10008091E800877F8093E8008091E80080FF42
:102C2000FCCF8091480ABECF803899F0823809F0F5
:102C3000BBC180915A0A8F70873008F0B5C180936C
:102C4000E9008091EB0085FB882780F91092E9006C
:102C500006C08091520A9091530A9111826090911E
:102C6000E800977F9093E8008093F1001092F100C4
:102C70008091E8008E7794C1882309F482C1823064
:102C800009F092C18091580A811185C180915A0A38
:102C90008F702FEF280F263008F086C18093E9004F
:102CA0002091EB0020FF77C1933031F48091EB004D
:102CB00080628093EB006FC19091EB0090619093E4
:102CC000EB0021E030E001C0220F8A95EAF7209363
:102CD000EA001092EA008091EB008860EACF81114F
:102CE00063C11091580A1F778091E3008078812B8F
:102CF0008093E3008091E800877F8093E8000E9442
:102D00008D068091E80080FFFCCF8091E300806811
:102D10008093E30082E0111183E08093540A44C160
:102D20008058823008F040C18091580A9091590A29
:102D30008C3D23E09207A1F583E08A838AE28983B0
:102D40004FB7F894DE01139620E03EE051E2E32F06
:102D5000F0E050935700E49120FF03C0E295EF703C
:102D60003F5FEF708E2F90E0EA30C0F0C7968D93F2
:102D70009D932F5F243159F74FBF8091E800877FE3
:102D80008093E8006AE270E0CE0101960E94390764
:102D90008091E8008B778093E80006C1C096E7CF6A
:102DA00040915A0A50915B0A292F3327233031056D
:102DB00009F444C078F52130310509F46FC08BE384
:102DC00090E0EEE7FBE02230310509F0EDC0209104
:102DD000E800277F2093E80020915C0A30915D0A8B
:102DE0008217930708F49C0140E02115310509F092
:102DF00064C0411162C08091E80082FDC9CF80911A
:102E0000540A882329F2853019F28091E80083FF63
:102E1000F2CFBECF21323105A9F12232310509F0BE
:102E2000C3C04115510509F443C04130510509F0B3
:102E3000BBC08BE790E0E3ECFAE0C9CF9927813083
:102E40009105C1F0009759F0029709F0ADC0EBEC85
:102E5000FBE0E4918E2F90E0EBECFBE007C0E9E0B3
:102E6000FCE0E4918E2F90E0E9E0FCE0009709F4AB
:102E70009BC0ADCFE9EFFBE0E4918E2F90E0E9EF4E
:102E8000FBE0F4CF4115510571F04130510509F0D7
:102E90008BC089E090E0E9EAFBE099CF82E190E025
:102EA000E9EBFBE094CF89E090E0E0E9FBE08FCF35
:102EB00080E490E0EEE3FBE08ACF8091540A88231F
:102EC00009F466CF853009F463CF8091E80083FD73
:102ED0005FCF8091E80082FD8ECF8091E80080FF77
:102EE00084CF9091F3008091F2002115310519F003
:102EF0008830910550F041E0089709F040E080915A
:102F0000E8008E778093E80070CF44914093F10001
:102F10003196215031090196E8CF803809F044C03C
:102F20008091E800877F8093E8008091550A809324
:102F3000F1009ECE811138C01091580A1230A0F5D0
:102F40008091E800877F8093E8001093550A0E94E3
:102F50008D06112311F084E005C08091E30087FD08
:102F6000FACF81E08093540A42E061EC81E00E9454
:102F7000AC0642E261EC82E00E94AC068091540A09
:102F800013C08091580A813079F481E0933009F0C0
:102F900080E08093530A1092E9008091E800877FD7
:102FA0008093E8000E948D068091E80083FF0AC0AC
:102FB0008091E800877F8093E8008091EB00806239
:102FC0008093EB00AA96E3E00C94832C0E940E15EC
:102FD0002FEF84E39CE0215080409040E1F700C057
:102FE000000088E19AE00FB6F894A89580936000FD
:102FF0000FBE90936000FFCFB0E0A0E0E2E0F8E108
:103000000C94612C8C01FC0183819481892B31F01B
:103010008081918189238F3F09F0BFC5CDB7DEB78D
:10302000E9E00C947D2CF801828181110BC0C4353C
:10303000FCE7DF0709F46CC040F5C3353CE7D30774
:1030400009F445C080916009C5302EE7D20709F424
:1030500038C108F000C1CC32D10509F41DC1C4301B
:103060009EE7D90709F424C1C337FCE7DF0709F05D
:1030700053C1F80182818823C9F18091CA0988234C
:1030800009F447C10E94790E31C0C6358CE7D807D4
:1030900009F44CC0C7359CE7D907A1F6C0900001E0
:1030A000D0900101E0909A09F0909B090E940E15C2
:1030B00090E080E00E94DA0BCCEDD8E0CC16DD0683
:1030C00009F447C0CE010E94FC172897F7CF0E9451
:1030D0000E1590E080E00E94DA0B84EE94E090936D
:1030E000E5088093E40881E08093E6088091570921
:1030F000877009F493CFF8018281882309F48ECF79
:1031000080919D0982FF8ACF82E00E94F10B86CFD9
:103110000E940E1590E080E00E94DA0B8CED98E0A2
:103120009093E5088093E40882E0DECFC09002012E
:10313000D0900301E0909A09F0909B090E940E152F
:1031400090E080E00E94DA0BC4EED4E0CC16DD06FD
:1031500031F40E940E15C7010E94DA0BC7CFCE01D1
:103160000E94FC172896F2CF8091E4089091E50820
:10317000F4E0843E9F0729F0FC0138972281211159
:1031800005C0909303018093020128C5CF01F0CFC1
:103190008091E4089091E50828E08C3D920729F0A1
:1031A000FC0138962281211105C090930101809382
:1031B000000114C5CF01F0CF813031F1823009F028
:1031C00041CF2091020130910301A091E408B09118
:1031D000E508F8018281811105C0F8E0AC3DBF0728
:1031E00009F430CFCD0108962817390709F42ACF02
:1031F00088E0F80101900D928A95E1F78091E4084A
:103200009091E508089722C02091000130910101BA
:10321000A091E408B091E508F8018281811105C010
:10322000F4E0A43EBF0709F40DCFCD01089728179D
:10323000390709F407CF88E0F80101900D928A95CB
:10324000E1F78091E4089091E50808969093E508ED
:103250008093E408F7CEC730EEE7DE0709F441C0FB
:10326000C8F1C8302EE7D20709F0FECEF8019281EE
:10327000992309F451C063E87EE080E392E00E9464
:10328000690D80E30E94F80E80E30E949E0E6EE6B8
:103290007EE080E392E039C0982F9272E9F1F80164
:1032A0008281882309F422CF8DE20E948F0F1ECFE6
:1032B000F8018281882309F419CF82E00E94F10B82
:1032C00015CFF8019281992339F183E994E00E94A6
:1032D000AC140CCFF80192819923F1F082E994E0CB
:1032E000F6CFF80192819923B9F063E87EE08FE28E
:1032F00092E00E94690D8FE20E94F80E8FE20E9418
:103300009E0E6EE67EE08FE292E00E94690D88E2FA
:10331000CCCF0E94C50AEACEF090C709F82A809166
:10332000CA09811110C0F2E2FF1202C00E94C50A50
:10333000FE01E851FC47E730F10508F053C0E256C2
:10334000F24D0C94A32C0E94B50788579C4E909385
:10335000C9098093C809F8018281882349F38F2D18
:103360008D7909F070C0C034F2E5DF0768F5C1154A
:1033700022E5D207B8F5C11530E4D30750F4C115E2
:1033800080E2D80708F053C0C63ED10559F1CE01FE
:103390000AC0C11590E5D907D0F7F8018581807F73
:1033A00039F2CE0199271092CD098832910508F0A3
:1033B00055C08E31910508F058C0049708F443C0F9
:1033C00082E08093CD0951C0C43BE2E5DE0751F0B5
:1033D000CE01C53BF2E5DF0720F5805692458034EB
:1033E0009105A8F6F8018281882309F40EC4109291
:1033F000600ACE019057839708F0F3C384E090E011
:103400000E94C52C90939D0980939C09FE01E15078
:10341000F047E232F10508F050C0EB55F24D0C9444
:10342000A32C805C9245809708F0B1CFDBCFF801E8
:103430008581807F09F0B5CF8D2F8F71823159F052
:1034400028F4823041F00E94790E72CF843109F461
:103450006FCF8631C1F71092CD09F5CF8D3291052E
:1034600009F4AECF28F48A9771F70E94310E60CF2D
:103470008C349105D1F38D329240B9F3E4CF26E23A
:1034800041EE61EEC8010E94AD0F30CE27E245EE5D
:1034900065EEF8CF26E241EE60EEF4CF27E245EE8E
:1034A00064EEF0CF26E241EE62EEECCF27E245EE8D
:1034B00066EEE8CF28E241E0EBCF80919C09816085
:1034C00080939C0995C080919D09886080939D0997
:1034D0008FC080919C098260F3CF80919C098460A9
:1034E000EFCF80919C098860EBCF80919D0981602E
:1034F000EDCF80919D098260E9CF80919C09806128
:10350000DFCF80919C098062DBCF80919C09806431
:10351000D7CF0E940E1580919C098068D1CF8091F1
:103520009C098C60CDCF80919D098360CFCF809125
:103530009C098E7FC5CF80919D09877FC7CF8091E1
:103540009C098D7FBDCF80919C098B7FB9CF8091E5
:103550009C09877FB5CF80919D098E7FB7CF8091E1
:103560009D098D7FB3CF80919C098F7EA9CF8091DB
:103570009C098F7DA5CF80919C098F7BA1CF0E9454
:103580000E1580919C098F779BCF80919C09837F3A
:1035900097CF80919D098C7F99CF80919C0982FB68
:1035A000992790F921E0922790FB82F990FB83F90B
:1035B00087CF80919D09982F909591708E7F892B50
:1035C00090FB81F983CF90919C09892F8F7B96FF87
:1035D000806476CF0E940E1590919C09892F97FBED
:1035E00087F980586DCF61E08EE090E00E94CB2C8F
:1035F00060919C0970919D0984E090E00E94E92C03
:103600000E940E1573CD60E0EFCF90919C09892F39
:103610008F7E94FF806154CF90919C09892F8E7F7B
:1036200090FF81604DCF90919D09892F877F93FFF7
:1036300088604CCF85E3E4C285E3F0C20E940E159A
:10364000FFEF24E33CE0F15020403040E1F700C0C0
:10365000000087E797E7909301088093000888E1CE
:103660009AE00FB6F894A895809360000FBE9093EF
:103670006000FFCF6FEF7FEF90E080E00E94E92CC9
:103680000E94E61780919D0982FB882780F991E0CE
:1036900089270E94F714F801868197810097B9F174
:1036A0000E943009D82FC92FF801C280B580B2948A
:1036B0003FE0B322809157098770C1F0EC2CCC20F9
:1036C000B1F0892F807F803421F080E28D0F883027
:1036D00068F080919D0982FF09C082E00E94F10B91
:1036E000809157098770EE24E3948111E12CDC2E40
:1036F000D2942FE0D222FBE0FD1508F486C0ED2D18
:10370000F0E0E953F24D0C94A32C80E0C2CF82810B
:10371000C081D181882369F0CE010E94300BF82E40
:10372000682FCE010E94A40BBE018F2D0E941309A9
:10373000B7CFCE010E94710BF82EF6CF2C2F2F7031
:10374000F22EC07F19F0F29490EFF922CC20B9F05C
:10375000FF2069F080E28D0F883010F0D11109C090
:103760008091C709F82AF092C7090E94310E8D2F67
:103770004AC08091CD09F82AF092CD09F6CF8D2F5D
:103780000E949E0EFF2009F440C080E28D0F883019
:1037900010F0D11104C08F2D0E94D90A06C0F094F8
:1037A0008091CD09F822F092CD090E94310E2DC0F2
:1037B0003C2F3F70F32EC07FC03219F0F29480EF9F
:1037C000F822DD2381F0D13009F494C0CC2009F433
:1037D0009EC0BB2009F494C0F801858180FFC7CF4B
:1037E0008F7085838DC080919D0982FD37C0CC206C
:1037F00079F1FF2039F08091C709F82AF092C709C2
:103800000E94310E80E00E94F80EED2DE850FF0B73
:10381000349710F40E94200EEE20A9F080915709F1
:1038200080FD11C0F80112828595859585950E94CD
:103830000D0CC8010E94FC1780915709859585954C
:1038400085950E94DF0B60E0C8010E94390DE6CB30
:1038500080E00E949E0EFF20C1F29DCFCC2031F16E
:10386000B11006C0809160098F290E94940ECDCFBF
:1038700091E0B9120AC082FFC8CF80916009F82A8E
:10388000F81619F2F0926009C0CFE2E0BE12EACF5A
:103890008F2D0E94940E0E94BF0A8091E808F82A9A
:1038A000F81609F4B2CFF092E808AFCFB11006C015
:1038B0000E94BF0A8F2D0E948D0EA7CFF1E0BF128C
:1038C0000FC08091C7098F2109F49FCF8F2D0E94CF
:1038D0008D0E0E94BF0A8091E808F094F822E0CF94
:1038E00022E0B21609F491CF8F2D0E948D0E0E9416
:1038F000BF0A8BCFCC2031F032E03B1508F485CFE6
:103900008F2DB3CF81E08B1508F47FCFD3CFBB20B1
:1039100089F2D93349F4FFEF27EE33E0F15020402C
:103920003040E1F700C000008D2F0E949E0E6DCF49
:103930008C2F86958695837069F0813009F065CF6C
:103940008D2F9C2F9370C11002C080E090E00E94E8
:10395000C1075BCF8D2F9C2F9370C11002C080E0F8
:1039600090E00E94E60751CF6C2D8D2F0E94610CD4
:103970004CCF8C2F837009F03FC0C11046CF4D2F24
:10398000429546954770440F440F2D2F2F7030E01D
:10399000042E02C0220F331F0A94E2F790E080E069
:1039A000D4FF09C08FE090E002C0880F991F4A95AC
:1039B000E2F780959095C695C695C370C23099F090
:1039C00078F44091980950919909C13039F0822BCF
:1039D000932B842395230E942B0C17CF242B352B5C
:1039E000822B932BF8CF822B932B20919809309127
:1039F000990982279327EFCF8695CC2011F08C2F41
:103A00008170882309F401CF4D2F42954695477068
:103A1000440F440F2D2F2F7030E0042E02C0220FD0
:103A2000331F0A94E2F790E080E0D4FF09C08FE0F2
:103A300090E002C0880F991F4A95E2F78095909513
:103A4000C695C695C370C23099F078F440919A0932
:103A500050919B09C13039F0822B932B84239523FD
:103A60000E94DA0BD2CE242B352B822B932BF8CF4E
:103A7000822B932B20919A0930919B0982279327BF
:103A8000EFCFCF70CC2029F08C2F0E940D0C8D2F02
:103A9000ECCE8D2F0E948D0E8C2F0E94DF0BB5CEA9
:103AA000D23F71F160F4D03FB9F0D13F81F0CC202A
:103AB00009F463C0B1105BCE8C2F8F7125C0D33F4A
:103AC00031F1D43FA1F780919D0982FD2EC08C2F4A
:103AD0008F71CC2011F318C0CC2069F081E08B15D8
:103AE00008F493CECF7181E090E002C0880F991F57
:103AF000CA95E2F7BFCF92E09B1508F486CEF2CFCD
:103B00008C2F8F71C110C9CF0E940D0C7ECE90E01A
:103B100080E0CC2009F4A4CFCF7181E090E002C016
:103B2000880F991FCA95E2F79BCFCC20C9F08091EE
:103B300057098770843041F4109257098C2F8F7188
:103B40000E94DF0BE12C61CEE1E0EB15D8F3CF71E1
:103B50008C2F0E940D0C63E08C2F0E941D0CF2CF65
:103B6000F1E0FB1530F41092570964E08C2F8F714F
:103B7000F4CF81E00E94F10BE5CFBB2059F0D9339F
:103B800009F0D2CE2FEF37EE83E021503040804055
:103B9000E1F7C8CE8C2F8F7180CF61E0C8010E9401
:103BA000390DEC018091E608882309F43CCA9E0196
:103BB00023553C472330310508F0FECA91E0C53556
:103BC000DC4709F490E0F8012281291709F48ECA34
:103BD000813009F4C9CA823009F4DACA1092E608C1
:103BE00085CAC631FCE7DF07E1F48091C7098A7A0C
:103BF00091E009F490E09093E70881111BCD89E2F0
:103C00000E94ED0A0E94310E71CAC631DC4709F0EC
:103C100042CD8091E70881110FCD89E20E94E00A30
:103C2000F1CFC3303CE7D30709F424CD50F4C115DC
:103C30009CE7D90709F402CDC130DC4709F420CD57
:103C40002ACDCB35FCE7DF0709F45FCDCC352CE777
:103C5000D20709F417CDCA35DC4709F01CCD81E045
:103C600018CDCF93DF9380911209807F09F049C06E
:103C700080910F09882309F444C080915609D0919E
:103C8000150960910D0970910E09A0911009B0916C
:103C90001109C62FC723D817A1F190E0109711F092
:103CA000CF3F19F401968770F6CF9C0143E0220FB5
:103CB000331F4A95E1F7F901EA5EF64F4181471358
:103CC000F1CF40814613EECF42814111EBCF4381CA
:103CD00054814A1B5B0B483C510520F78091120927
:103CE0008F70806180931209F901E55EF64F808143
:103CF0008F70806180838DE099E00E94FC170E94A4
:103D0000260BDF91CF910895A5E1B0E0EAE8FEE14E
:103D10000C945E2C8C0185E0F801DE015196019037
:103D20000D928A95E1F7D8011296EC9012978DE0EA
:103D3000882E89E0982E4091100950911109411563
:103D4000510509F465C190910D0920910E09892F43
:103D500082238F3F09F45CC1DC901196CC901197BF
:103D60001396AD90BC901497F0900F09F501E41BE9
:103D7000F50BFF2009F415C180911209382F307F0F
:103D8000E83CF10508F0D2C0311181C0FE2C2C11A5
:103D90001FC09D111DC04091130950911409169622
:103DA0002D913C914217530799F4E11011C08F7087
:103DB000806180931209C4010E94FC17809112094E
:103DC000D80115968C938F2D6596ECE00C947A2C87
:103DD000A114B10429F08D2D8C218F3F09F036C13B
:103DE00080E080FF14C04E2D6C2D8D2D0E94060B9F
:103DF000882369F08DE099E00E94FC1788E0EDE0EF
:103E0000F9E0DF011D928A95E9F7F12CDCCFA114CE
:103E1000B10429F08D2D8C218F3F09F014C180E071
:103E2000B82FB170AB2E80FF29C04E2D6C2D8D2D7B
:103E30000E94060BB82E811121C0D98ACA8A8989AD
:103E40009A890E94640B292F22952F70223050F0FE
:103E5000243078F49F7051F0F8019581907F31F40F
:103E6000FB2CB1CF9F7011F08823D1F3805E883096
:103E7000B8F3C8010E94FC17BA2CF2CFEE2009F467
:103E8000A2CF80911209816080931209BECF2C11BC
:103E90001DC09D111BC04091130950911409169625
:103EA0002D913C9117974217530781F4E1100EC0F2
:103EB00015968C93C8010E94FC1788E0F801ADE0CC
:103EC000B9E001900D928A95E1F77DCFC8010E947B
:103ED000300C882339F1EE2029F1809112098032CB
:103EE000A0F020910D0930910E093A8729871B8691
:103EF000BD86AC868E878091130990911409988BAA
:103F00008F87CE0109960E94FC1788E0F801ADE08A
:103F1000B9E001900D928A95E1F70E94311EFF24CD
:103F2000F39451CFC8010E94FC17F9CF332309F451
:103F300061CF2C1118C09D1116C0409113095091EA
:103F40001409F801268137814217530761F4E11003
:103F50000AC08583C8010E94FC1788E0D4011D9225
:103F60008A95E9F730CFC8010E94300C8823D1F23E
:103F7000EE20C1F280911209803238F220910D09B1
:103F800030910E093A8329831B82BD82AC828E83D5
:103F9000809113099091140998878F83CE0101961F
:103FA000B2CFE83CF105C8F6FE2CEE2009F4BACFFA
:103FB0002C1120C09D111EC02091130930911409AD
:103FC000F8018681978128173907A1F49091120989
:103FD00090FD73CF907F09F470CF80911209858393
:103FE000903F09F467CF982F907F905F8F70892B57
:103FF000858360CFC8010E94300C811186CF8091EB
:104000001209816080931209C8010E94FC17DBCE5F
:10401000EE2009F487CFC8010E94300CF82E8823C7
:1040200009F480CF88E0F801ADE0B9E001900D928D
:104030008A95E1F780910D0990910E090E94640B19
:104040000E94311EC0CE81E08E25EACE81E08E2511
:10405000C8CEA0E1B0E0EFE2F0E20C94682C298732
:104060003A874B875C876D877E878F87988BCE01D9
:1040700009960E94841E811112C088E0FE013996C3
:10408000DE01119601900D928A95E1F78C859D8550
:10409000892B29F089859A8589238F3F81F5809125
:1040A000560990911509891317C06096E2E00C94A7
:1040B000842C93E0AA0FBB1F9A95E1F7AA5EB64F36
:1040C00098E0FE01319601900D929A95E1F7809368
:1040D00015090E94260BE3CFB8E08B9FC001112485
:1040E0008A5E964F0E94841E8823F9F280915609B9
:1040F00090E001968770992780935609D0CFA091C0
:104100001509B0E0CD0101968770992720915609D5
:104110002817190671F60E940E15109215091092B3
:10412000560988E0EDE0F9E0DF011D928A95E9F794
:10413000B6CF0F931F93CF93DF938091CF09E09178
:10414000CE091CE081111AC0DF91CF911F910F9110
:10415000089501E00E0F0093CE09CE2FD0E0E19F2D
:10416000F0011124E053F64F83819481892B29F0CB
:104170008081918189238F3FF9F4E02F8091CF09CD
:10418000E81738F31092CF091092CE09DDCF1896B8
:104190008D919C918F3F9807E1F061E00E94C410DF
:1041A0001C9FF0011D9FF00D1124E053F64F148267
:1041B00013821092CD09E1CF1C9FD0011D9FB00D3D
:1041C0001124A053B64F16968D919C911797892B69
:1041D000F1F2208131814281538164817581868130
:1041E00097810E942920DCCF10923B0A10923A0A54
:1041F000109290048091390A8093380A0E943908FD
:104200000E9499200895B0E0A0E0E9E0F1E20C946A
:10421000582CC091380AE7E0FE2E01E010E0FCE0E7
:104220002F2EAEEFEA2E8091390A8C1309C00E941E
:1042300099200E943908CDB7DEB7E2E10C94742CC6
:10424000D0E0FE01EE0FFF1FE05DF54F8081918110
:10425000F89EF001F99EF00D1124EB5DFE4F2481D4
:10426000211159C03090CF09A0EDB9E030E020E035
:10427000412C5F01231508F04CC01A966D907C907C
:104280001B97F501808091804FEF5FEF512CC52C7B
:10429000D12CF601EE0FFF1FE80DF91D6591749109
:1042A0006616770609F4A601672B11F05394EFCF39
:1042B0004F3F5407B9F1B80102C0660F771F4A9506
:1042C000E2F7462AA801052C02C0440F551F0A94A4
:1042D000E2F7415051094416150601F5229EF001FE
:1042E000239EF00D1124E053F64FF89ED001F99E65
:1042F000B00D1124AB5DBE4F12962D913C911397DA
:1043000037832683E082E1829187808771E015966A
:104310007C930E940B082196C37085CF14961C9243
:104320001E9213972F5F3F4F1C96A4CFA9E1B0E0D8
:10433000ECE9F1E20C94582C498B5A8B6B8B7C8BFB
:104340008D8B61111092CD091D861E861F86188ADD
:1043500085E0FE017196DE01199601900D928A9515
:10436000E1F78C859D85892B31F089859A85892394
:104370008F3F09F0C4C129853A854B855C856D85E1
:104380007E858F8598890E942920C2C021E5A216CA
:104390002CE7B20629F4882379F00E94F420EBCFB1
:1043A00032E5A3163CE7B30639F4882329F080915F
:1043B00090048111F2CFB3C105E211E0E12CD12CC0
:1043C000C12C88248394912C9EEF592E442443942D
:1043D000F8016081718166246A94762C20E0422F76
:1043E00050E0FA01EE0FFF1FE60FF71F8591949141
:1043F000A816B90609F43A01892B11F02F5FEFCF07
:10440000F12CFFEF6F167F0609F444C0F8014481D8
:10441000F09090048F2D411180E0F82FF170FF2E65
:10442000F801258086819B85992309F4F2C0FF203D
:1044300009F4EFC0211014C0A401062C01C0440FE0
:104440000A94EAF7842B86838091CB099091CC095A
:10445000C29730F442E350E05093CC094093CB092B
:10446000C40102C0880F991F2A95E2F70197F8014D
:1044700026812817190671F480913A0A90913B0A17
:10448000009709F449C00E949A07C39708F444C0F2
:10449000F8014482EF28FFEFCF1ADF0A095F1F4FB0
:1044A0002DE7C216D10409F093CF8B85882309F438
:1044B00011C1EE2009F40EC10E94B50790933B0A8A
:1044C00080933A0A8091CF09883010F591E0980FD7
:1044D0009093CF0998E0FE013996DE011196019084
:1044E0000D929A95E1F73CE0839FC001112480531F
:1044F000964F28E0FE013196DC0101900D922A953D
:10450000E1F72FEF3FEFFC0131872087B386A286CA
:104510006996E2E10C94742C8091380A6090390A13
:10452000982FF0E0E0E0861114C09093380A0E173F
:104530001F0709F4AFCF90E0FC01EE0FFF1FE05D15
:10454000F54FD182C0820196837099278093390AF2
:10455000A1CF282E312CF101EE0FFF1FE05DF54FAA
:1045600020813181F7E0F29FD001F39FB00D11243B
:10457000AB5DBE4F2D913C911197398F288F712CD7
:1045800060E070E0E72FF0E0EE0FFF1F288D398D1F
:10459000E20FF31F2591349121153105E1F0F80167
:1045A0000190F081E02DFF8BEE8B60E005C02417B9
:1045B000350709F47F2C6F5FE62FF0E0EE0FFF1F49
:1045C0004E895F89E40FF51F4591549141155105BE
:1045D00071F77F5FD7CF7720C9F0F801671708F030
:1045E000FD0144820E171F0721F49093380AF72C1F
:1045F00051CF981305C0AE17BF0711F49F5F93709A
:1046000091012F5F3F4F822F83708DCFF0E0E0E06C
:10461000F7CF90E0211020C0B40102C0660F771FD1
:104620002A95E2F79B01215031092817390731F407
:10463000442309F44DC0C6010E940B08C401062C96
:1046400001C0880F0A94EAF7982F9095F8018681A7
:1046500089238683F22C1ECF9C01062C02C035953F
:1046600027950A94E2F7A90141705527BC016150D2
:10467000710986239723892B39F5452B29F1F801F8
:1046800082819381892BD9F01B821C821D821E821C
:1046900059825A820E94B5078160582F9D838C836E
:1046A000F801828193818F83988729813A814B8198
:1046B0006D817E810E942920F8011582BFCF60E0C4
:1046C000C6010E94C410F8CFF22FF1702F2EB6CF82
:1046D0002F2CB4CF9091380A8091390A981731F075
:1046E0000E940321EE2009F446CE12CF0E949920A9
:1046F00010923B0A10923A0A0E943908F3CF61E007
:10470000CE0109960E94390D5C018B85F0E5AF164C
:10471000FCE7BF0609F03ACE882309F44DCE81E0CC
:104720008093900428CEA4E0B0E0E9E9F3E20C9491
:10473000662C4091810950918209609183097091A2
:1047400084092FB7F8948091430A9091440AA0916C
:10475000450AB091460A2FBF841B950BA60BB70BD9
:1047600011E084369105A105B10590F10E94FD0D7F
:10477000882399F10E94A9076E5F7F4F8F4F9F4F4B
:1047800069837A838B839C838091150190911601B4
:104790008A58964F4091140150E04530510510F071
:1047A00044E050E0BE016F5F7F4F0E940C2D82E01D
:1047B00090E00E94E22B182F882351F00E94A90755
:1047C000609381097093820980938309909384098F
:1047D000812F2496E4E00C94822C0E94A90700917A
:1047E0008609109187092091880930918909600F05
:1047F000711F821F931FC0CFEF92FF921F93CF9321
:10480000DF9300D000D000D00F92CDB7DEB77B0190
:1048100090E080E00E94E22B182F882309F480C0EA
:104820004091070150E04115510511F041E050E081
:1048300060910801709109016A58764FCE01079680
:104840000E940C2D40917209509173096091740976
:10485000709175092FB7F8948091430A9091440A9A
:10486000A091450AB091460A2FBF841B950BA60B59
:10487000B70B84369105A105B10540F487E799E0AF
:104880000E9426069F81891709F44AC081E090E0C2
:104890000E94E22B811116C010E086E0ECE6F9E000
:1048A000D70101900D928A95E1F7812F27960FB6D7
:1048B000F894DEBF0FBECDBFDF91CF911F91FF9067
:1048C000EF90089540910F0150E04730510510F0EE
:1048D00046E050E060911001709111016A58764FE6
:1048E000CE0101960E940C2D87E799E00E942606D2
:1048F0009F818913D1CF0E94A90760937209709399
:104900007309809374099093750986E0FE013196CE
:10491000ACE6B9E001900D928A95E1F711E0BDCFC8
:1049200086E0E7E7F9E0DE01119601900D928A95A5
:10493000E1F71111EACFB1CFA2E1B0E0E2EAF4E28F
:104940000C945D2C8E010F5F1F4F8CE0D8011D92DF
:104950008A95E9F78EECC82E84E0D82EF12CE12C54
:10496000AA24A394B12C2AED822E24E0922EF601E3
:1049700081916F018F3F09F442C0F894E82FE295CE
:10498000EF70F0E021A18F70A50102C0440F551F08
:104990008A95E2F7CA01922F982B91A392A1809554
:1049A000892382A3789400C0E4EDF4E0712C31E017
:1049B00021912F3F09F46BC0A22FA295AF70B0E0F8
:1049C00090968C9190E02F7002C0959587952A95CE
:1049D000E2F780FD5CC0832F782A330F8E169F0686
:1049E00039F7F601319780818F3F11F00E94B908A5
:1049F00050EA5A95F1F7F801EE0DFF1D70828FEF26
:104A0000E81AF80AA6E0EA16F10409F0B0CF4CE083
:104A100050E0B8018AE899E00E94FF2C009741F02D
:104A20002CE0F801AAE8B9E001900D922A95E1F78F
:104A300000919709892B69F181E0809363090E94B5
:104A4000B507909362098093610980916109909103
:104A500062090E949A07059700F110E00056164F70
:104A600046E050E06AE879E0C8010E94FF2CB12CD2
:104A7000892B51F086E0EAE8F9E0D80101900D9227
:104A80008A95E1F7BB24B3941092630907C080E0D4
:104A9000A3CF809163098111D8CFB12C0E94FD0D65
:104AA000F82EE0919709882309F46DC06E01BDE0EE
:104AB000CB0ED11C86E0D6011D928A95E9F70E2F08
:104AC00010E00056164F809185098A3050F54CEF62
:104AD00053E2B601C8010E94CA0D882309F442C0FE
:104AE00043E953E2B601C8010E94CA0D8823D1F1FF
:104AF000109285098091960990E046E050E0B60159
:104B00008056964F0E94FF2C21E020936A09892B42
:104B1000E1F4F12C1F2D812F8B296296EDE00C948E
:104B2000792C80916409909165090E949A07843FCD
:104B3000914068F680916A09882359F386E0F6016E
:104B400011928A95E9F710926A09A0919609B0E04E
:104B5000A056B64F86E0FE013D9601900D928A95D3
:104B6000E1F7D8CF809185098F3F31F08F5F809337
:104B700085098A3008F4BECF0E94B5079093650975
:104B800080936409D7CFF0E0E056F64F86E0A7E7C0
:104B9000B9E001900D928A95E1F787E799E00E94CC
:104BA000260680937609C0907D09D0907E09E0901A
:104BB0007F09F09080098091660990916709A09122
:104BC0006809B0916909C816D906EA06FB0611F40E
:104BD00010E0A1CFC0926609D0926709E0926809FF
:104BE000F09269090E94FD0D182F8111F1CF0E94EA
:104BF000A907C61AD70AE80AF90AC0928609D0920C
:104C00008709E0928809F092890985CF1F920F9257
:104C10000FB60F9211242F933F934F935F936F938F
:104C20007F938F939F93AF93BF93CF93DF93EF9334
:104C3000FF93D091E900DF708091EC00C82FC17024
:104C400080FDC0E81092E9008091F000877F80939A
:104C5000F00078940E9435151092E9008091F000E0
:104C600088608093F000CD2BCF70C093E900FF9156
:104C7000EF91DF91CF91BF91AF919F918F917F91F4
:104C80006F915F914F913F912F910F900FBE0F90B9
:104C90001F9018951F920F920FB60F9211242F9309
:104CA0003F934F935F936F937F938F939F93AF93B4
:104CB000BF93EF93FF938091E10082FF09C0809141
:104CC000E20082FF05C08091E1008B7F8093E100CC
:104CD0008091DA0080FF24C08091D80080FF20C03E
:104CE0008091DA008E7F8093DA008091D90080FF76
:104CF0009DC080E189BD82E189BD09B400FEFDCF80
:104D000081E08093540A8091470A811109C00E9472
:104D10003D060E94DE068091E20084608093E200FE
:104D20008091E10080FF17C08091E20080FF13C0F6
:104D30008091E2008E7F8093E2008091E2008061AA
:104D40008093E2008091D80080628093D80019BCE3
:104D500085E08093540A8091E10084FF2BC080910C
:104D6000E20084FF27C080E189BD82E189BD89B569
:104D7000982F917080FFFBCF8091D8008F7D80931A
:104D8000D8008091E1008F7E8093E1008091E20065
:104D90008F7E8093E2008091E20081608093E20048
:104DA0008091550A882309F447C084E08093540A0F
:104DB0008091540A8091E10083FF27C08091E20036
:104DC00083FF23C08091E100877F8093E10082E030
:104DD0008093540A1092550A8091E1008E7F80934F
:104DE000E1008091E2008E7F8093E2008091E200FA
:104DF00080618093E20042E060E080E00E94AC06C7
:104E00008091F00088608093F000FF91EF91BF9156
:104E1000AF919F918F917F916F915F914F913F9152
:104E20002F910F900FBE0F901F90189519BC1092E4
:104E3000540A1092470A74CF8091E30087FD93E0F3
:104E40009093540AB5CF78941F921FB61F921124E5
:104E50008F939F93AF93BF938091430A9091440A9D
:104E6000A091450AB091460A0196A11DB11D8093FB
:104E7000430A9093440AA093450AB093460ABF910F
:104E8000AF919F918F911F901FBE1F9018951F92F9
:104E90001FB61F9211248F939F93AF93BF9380915E
:104EA000420A811113C08091430A9091440AA09153
:104EB000450AB091460A4196A11DB11D8093430A4F
:104EC0009093440AA093450AB093460ABF91AF91CC
:104ED0009F918F911F901FBE1F901895CDB7DEB781
:104EE00060970FB6F894DEBF0FBECDBF85B7806860
:104EF00085BF85B7806885BF84B7877F84BF0FB6BD
:104F0000F894A89580916000886180936000109269
:104F100060000FBE80E890E00FB6F89480936100C7
:104F2000909361000FBE87EB98E09093DB04809331
:104F3000DA040E943D060E94DE068091E200846051
:104F40008093E20078948091540A8823A1F0109114
:104F5000E9001F709091EC00892F817090FD80E82E
:104F6000182B1092E9008091E80083FD0E9435150E
:104F70001F701093E90082E084BD93E095BD9AEF25
:104F800097BD80936E001092860910928709109247
:104F90008809109289090E94FD0D80931C010E94CE
:104FA000FD0D81110E94F62A80911C0180911C0147
:104FB00096E0811190E09093970986E0891B809399
:104FC00096090EEC14E074EDE72E74E0F72ED8018C
:104FD0008D918D018F3F11F00E94B908E016F10606
:104FE000B1F704ED14E06AEDE62E64E0F62EF80168
:104FF00081918F018F3F11F00E94B908E016F106F0
:10500000B1F78CE0E0EAF9E0DF01282F1D922A9544
:10501000E9F7EAE8F9E0DF011D928A95E9F790E007
:1050200080E00E94C52C873E9E4F09F45EC067EE6B
:105030007EEF90E080E00E94E92C60E082E090E06A
:105040000E94CB2C60E083E090E00E94CB2C109279
:1050500099091092980960E074E184E090E00E9460
:10506000E92C60E086E090E00E94CB2C6FEF87E0B7
:1050700090E00E94CB2C40E050E0BA0188E090E044
:105080000E94DD2C60E08DE090E00E94CB2C40E09F
:1050900050E0BA0188E190E00E94DD2C60E087E1F9
:1050A00090E00E94CB2C40E050E0BA018CE190E00F
:1050B0000E94DD2C70E060E080E290E00E94E92C2C
:1050C00040E050E0BA0188E190E00E94DD2C40E031
:1050D00050E0BA018FE090E00E94DD2C40E050E00B
:1050E000BA0183E190E00E94DD2C82E090E00E9412
:1050F000BD2C8093AC0984E090E00E94C52C909375
:105100009D0980939C0983E090E00E94BD2C90E073
:105110000E942B0C0E94FD0D811102C00E94F92AF1
:105120008DE191E090933F0A80933E0A08E110E000
:1051300040E4D42E5CEAE52E59E0F52E30E1C32E92
:105140008091540A22E1B22E853009F480C00E9479
:105150009C248DEAA82E89E0B82E90EA892E99E049
:10516000992ED401F50191918D9129E0E93BF20747
:1051700009F477C09817B9F30E94FD0D282E712C01
:10518000D4016D904D01F50131905F01361429F184
:105190003624512C44244394842D8321B1F02220C1
:1051A000A1F05C867D8691E0842D862109F490E053
:1051B0009E870E94B5078160782F988B8F874C85DA
:1051C0005D856E8588890E9496215394440CF6E093
:1051D0005F12E2CFF5013197608273942CE0721276
:1051E000CFCF0E94A9075DC08091540A843009F195
:1051F0001092420A0FB6F894A895009360000FBE73
:10520000D092600083B7817F846083BF83B7816061
:1052100083BF7894889583B78E7F83BF0FB6F89449
:10522000A895809160008861809360001092600072
:105230000FBE8091530A882351F00E949C24E0EA1B
:10524000F9E0819181115CC1EE16FF06D1F78091E2
:10525000540A853009F4C8CF0E940E150E94200E12
:1052600076CF981389CF0E94B5075C0180919E0983
:1052700090919F09A816B906A1F08FEF8F838887B8
:1052800019860E94B5078160782F9B878A874F8196
:10529000588569858B850E949621B0929F09A092BE
:1052A0009E090E94FD0D8823A9F180919004882316
:1052B00001F180913A0A90913B0A0097D1F00E9447
:1052C0009A072091CB093091CC092817390788F427
:1052D0009091380A8091390A981709F4F8C00E9411
:1052E00003211092CC091092CB0910923B0A109224
:1052F0003A0A8091CA09882369F00E94B507209173
:10530000C8093091C909821B930B8F3F9F4710F446
:105310000E94790E86E0E1ECF9E0DE011196019041
:105320000D928A95E1F71092C3091092C409109268
:10533000C5091092C6098B819C81892B09F44AC04A
:105340008091BF099091C0090E949A079C01909199
:10535000BA09992309F4EEC025313105D8F19F3FF0
:1053600019F09F5F9093BA09BB80BB2059F00E944F
:1053700093089FEF1B140CF491E0899F802D11245A
:105380008093C309BC80BB2059F00E9493089FEF13
:105390001B140CF491E0899F802D11248093C40983
:1053A0003091C3093323B1F02091C409222391F035
:1053B00045EB3403C0011124992309F491C0909363
:1053C000C30945EB240390011124332309F48CC055
:1053D0003093C4098D819E81892B09F44AC0809144
:1053E000BD099091BE090E949A079C019091BB094A
:1053F000992309F49BC021353105D8F19F3F19F05D
:105400009F5F9093BB09BD80BB2059F00E9471083B
:105410009FEF1B140CF491E0899F802D1124809341
:10542000C509BE80BB2059F00E9471089FEF1B1474
:105430000CF491E0899F802D11248093C60930914E
:10544000C5093323B1F02091C609222391F045EB21
:105450003403C0011124992309F44AC09093C5096B
:1054600045EB240390011124332309F445C0309304
:10547000C60946E050E0BE016F5F7F4F81EC99E0C6
:105480000E94FF2C892B61F48091C3099091C4097B
:10549000892B9091C509892B9091C609892B11F010
:1054A0000E944A0886E0FE013196A1ECB9E0019025
:1054B0000D928A95E1F70E94200E9091B909891703
:1054C00009F43ECE8093B9090E94A90737CE0E9405
:1054D000992010923B0A10923A0A0E94390809CF8B
:1054E00081E08093C3096DCF81E08093C40972CFBE
:1054F00081E08093C509B4CF81E08093C609B9CF1C
:10550000C9BCB9BC09B400FEFDCF8091D8008F7D25
:105510008093D8008091E00082608093E0008091C9
:10552000E00081FDFCCF0E940E1591CE232B09F0E7
:1055300067CF9FCF232B09F014CF4CCF8EE1489B30
:1055400002C08150E1F7489BFECF0895589880E251
:105550008A95F1F7589A0895FC013BE03A95F1F7E6
:1055600098E020E080E031E040E14A95F1F7880FD3
:10557000489B02C08160232742E04A95F1F7000072
:1055800040E14A95F1F7915079F790E19A95F1F75A
:1055900099B132E03A95F1F7000040E14A95F1F710
:1055A000917092272081920F90830895A1E0B0E03E
:1055B000ECEDFAE20C94642C19828C017C01E60E6D
:1055C000F11C0E151F0541F481E09981911180E0D5
:1055D0002196E6E00C94802C0E949E2ACE01019632
:1055E0000E94AC2AF80181938F01EBCF509A589A10
:1055F00008955098589AE89AE9E6F0E080818C7F07
:10560000808308956150770B91E001C0990F6A95EE
:10561000EAF720E031E0911108C0222391F0589A76
:1056200080E28A95F1F758980895492F482339F078
:10563000589A232740E24A95F1F79695ECCF58986F
:10564000F9CF5898EDCFFF920F931F93CF93DF932D
:10565000EC018C01060F111DC017D10729F4CDB73D
:10566000DEB7E5E00C94812CF9900E94A62A68E050
:105670008F2D0E94022BF0CF1F920F920FB60F9228
:1056800011240F931F932F933F934F935F936F9327
:105690007F938F939F93AF93BF93EF93FF93CF939A
:1056A000DF930F92CDB7DEB719820E949E2ACE01FA
:1056B00001960E94AC2A082F069506950695282F7C
:1056C00022952570902F9570290F922F9370269513
:1056D0002695920F982797708981982B09F05CC0C6
:1056E000043008F059C080E18A95F1F7589A509A31
:1056F00082E08A95F1F700C0589888E0089F800101
:105700001124D801AC5FBE4F1696ED91FC9117970E
:105710003097A9F06091CC047091CD0414962D912E
:105720003C911597260F371F11968D919C911297DA
:10573000680F791F13964C9113978C910995F80176
:10574000EC5FFE4F6381662351F02091CC043091D1
:10575000CD0484819581820F931F0E94232B0E9488
:10576000A62A80E18A95F1F758985098589A80E1D6
:105770008A95F1F7F801EC5FFE4F6081662351F0E6
:105780002091CC043091CD0481819281820F931FAE
:105790000E94D62A0E949E2A0F90DF91CF91FF91FE
:1057A000EF91BF91AF919F918F917F916F915F9199
:1057B0004F913F912F911F910F910F900FBE0F901E
:1057C0001F9018950F931F93CF93DF93EC010497CD
:1057D0000CF04CC0F894509A589885E08A95F1F7EF
:1057E00000009C2F969595708C2F8570980F892FAF
:1057F00083709695969523E0CC0FDD1F2A95E1F7EF
:10580000980F8E01092B0E94A62A00C068E0802F05
:105810000E94022B80E18A95F1F75098589A489B94
:105820001EC087E090E048991CC0FE01EC5FFE4F6F
:1058300063816623F9F02091CC043091CD048481FA
:105840009581820F931F0E94D62A811113C0509A0E
:10585000589A7894DF91CF911F910F91089500C0CD
:10586000DECF019729F4509A589A789480E0F2CFCD
:1058700000C0D9CF0E949E2A80E28A95F1F75898FD
:10588000509A80E18A95F1F7CC5FDE4F68816623FC
:1058900051F02091CC043091CD0489819A81820FFE
:1058A000931F0E94232B0E94A62A789481E0D2CFD6
:1058B0002F923F924F925F926F927F928F929F9220
:1058C000AF92BF92CF92DF92EF92FF920F931F930E
:1058D000CF93DF93CDB7DEB7CA1BDB0B0FB6F894BF
:1058E000DEBF0FBECDBF09942A88398848885F84FF
:1058F0006E847D848C849B84AA84B984C884DF8070
:10590000EE80FD800C811B81AA81B981CE0FD11D53
:105910000FB6F894DEBF0FBECDBFED01089597FB23
:10592000072E16F4009407D077FD09D00E94A92C09
:1059300007FC05D03EF4909581959F4F0895709592
:1059400061957F4F0895EE0FFF1F0590F491E02DB4
:105950000994AA1BBB1B51E107C0AA1FBB1FA617B6
:10596000B70710F0A61BB70B881F991F5A95A9F708
:1059700080959095BC01CD010895F999FECF92BD17
:1059800081BDF89A992780B50895A8E1B0E042E07A
:1059900050E00C94F12C262FF999FECF92BD81BDD9
:1059A000F89A019700B4021639F01FBA20BD0FB65D
:1059B000F894FA9AF99A0FBE08950396272F0E9439
:1059C000CC2C0E94CB2C252F0E94CC2C242F0C9465
:1059D000CC2C0196272F0E94CC2C0C94CB2CDC01D4
:1059E000CB01FC01F999FECF06C0F2BDE1BDF89AEA
:1059F000319600B40D9241505040B8F70895FB0124
:105A0000DC0104C08D910190801921F44150504077
:105A1000C8F7881B990B0895FB01DC0102C00190B7
:105A20000D9241505040D8F70895F894FFCFCD1013
:105A3000D510DD10E510ED10F510FD1005110D115C
:105A400015111D1125112D1135113D1145114D1146
:105A500055115D1165116D1175117D1185118D1136
:105A600095119D11A511AD11B511BD11C511CD1126
:105A7000D511DD11E511ED11F511FD1105120D1214
:105A800015121D1225122D1235123D1245124D12FE
:105A900055125D1265126D1275127D1285128D12EE
:105AA00095129D12A512AD12B512BD12C512CD12DE
:105AB000D512DD12E512ED12F512FD1205130D13CC
:105AC00015131D1325132D1335133D1345134D13B6
:105AD00055135D1365136D1375137D1385138D13A6
