:100000000C9467060C94842B0C9484060C94840640
:100010000C9484060C9484060C9484060C94840638
:100020000C9484060C9484060C9492260C944E2610
:100030000C948F270C9484060C9484060C948406EC
:100040000C9484060C9484060C9484060C94840608
:100050000C9484060C946B270C9484060C948406F0
:100060000C9484060C9484060C9484060C948406E8
:100070000C9484060C9484060C9484060C948406D8
:100080000C9484060C9484060C9484060C948406C8
:100090000C9484060C9484060C9484060C948406B8
:1000A0000C9484060C9484060C9484062C002A007C
:1000B00005001A0000002C002A001500190000009D
:1000C0002C002A000600080000002C000B0016007F
:1000D000170000002C002A000F00130000002C0065
:1000E0002A0017001A0000002C002A0012001C0031
:1000F00000002C002A000700180000002C002A0035
:1001000005001600180000002C002A000E00150043
:1001100000002C002A0005000900120000002C003D
:100120000600100000002C002A000A001200000047
:100130002C00080009001500170000002C000F001B
:100140001600180000002C002A0004000C0000001B
:100150002C002A000C00150000002C0008000B00E9
:100160001A0000002C0004000B00170000002C00F7
:100170002A0008000A0000002C000D0016000000F4
:100180002C002A000400050000002C0004001300CD
:10019000150000002C0008001500170000002C00BE
:1001A0002A000A00150000002C0005000E000000C7
:1001B0002C000C00170000002C002A000F001A0071
:1001C00000002C002A0008001100190000002C007B
:1001D0002A0008000B00170000002C002A000F0066
:1001E000120000002C002A0007000C0000002C0068
:1001F00007000C00160000002C002A000C000F0065
:100200001A0000002C002A000C00110000002C0035
:100210002A00120015001C0000002C002A0010000B
:10022000150000002C000B0012001A0000002C002A
:100230002A000B001A0000002C002A000E001A00F1
:1002400000002C002A0004000A0000002C002A00F4
:100250000700080000002C002A0019001C00000004
:100260002C002A000500110000002C002A000A00C2
:10027000180000002C0009000C0000002C002A00CF
:10028000130000002C001200160000002C000800D3
:100290001000170000002C002A0008000F000000CA
:1002A0002A000400130000002C00040011000000CC
:1002B0002C002A001000170000002C002A001A0051
:1002C0001C0000002C002A0004001C000000080094
:1002D0001300150000002C002A0008000B001A0073
:1002E00000002C002A0004001200170000002C005F
:1002F0002A000600180000002C002A000700000059
:100300002C0006001A0000002C002A0012001A001F
:1003100000002C002A001200190000002C000C0024
:100320001600170000002C002A000700160000002D
:100330002C002A00100000002C002A0015000000EC
:100340002C002A0009000B0000002C002A001A00D3
:1003500000002C002A000B001500170000002C00E4
:100360002A000C00160000002C002A0016001800BD
:1003700000002C0005001C0000002C002A001000CA
:10038000160000002C002A0011001A0000002C00AA
:100390002A0018001A0000002C002A0008001A0089
:1003A00000002C002A001C0000002A000800130096
:1003B00000002C002A0004000B001A0000002C0092
:1003C0002A000A00110000002C002A000B000C007B
:1003D00000002C0008001500190000002C002A0065
:1003E00008000B001500170000002A00130015007C
:1003F00000002C000B00190000002C002A000B004C
:100400001200150000002C002A000B0017001C0031
:1004100000002C002A00050000002C002A00090022
:10042000100000002C002A00170000002C002A00F9
:100430000500180000002C002A000B001600170011
:1004400000002A000600110000002C002A00120003
:10045000150000002C002A0007000B0000002C00F3
:100460002A000400150000002C002A0008001100DA
:1004700000002C001100120000002C002A001200C5
:10048000170000002C002A0008000B0015000000D7
:100490002C002A000A000C0000002C002A00040096
:1004A00000002C002A00160000002C002A00040086
:1004B0000F0000002C002A000800160000002C008D
:1004C0002A000C001A0000002C002A000C0000007A
:1004D0002C002A0004001A0000002C002A00110041
:1004E000120000002C002A000B0000002C002A0043
:1004F0000900150000002C002A0018001C00000054
:100500002C002A000B00160000002C002A0004001A
:10051000170000002C002A001100170000002C001A
:100520002A00110000002C002A000B00150000001A
:100530002C002A00090000002C002A0012000000F4
:100540002C002A000400070000002C002A000B00E9
:10055000170000006265747765656E20006576653A
:100560007279200065616368200074686573652096
:100570000070656F706C65200077616E7420006F8D
:100580006E6C792000756E6465722000626563612F
:100590007573652000776F726B20006265666F72FD
:1005A000652000636F6D6520006F756768742000BB
:1005B0006166746572200073686F756C64200061F9
:1005C0006761696E200072696768742000776865EA
:1005D000726520007468616E200067657420006A8F
:1005E000757374200061626C652000706172742004
:1005F0000074657220007468726F7567682000620D
:1006000061636B2000696E2074686520006C6F77F1
:1006100020006576656E20007468656E20006C6F42
:100620006F6B200064696420007369646520007743
:10063000696C6C2000696E746F2000796F75722090
:10064000006D6F7265200077686F2000686F7720FB
:10065000006B6E6F7720006167652000656E642017
:10066000007665727920006265656E200074686F9F
:1006700075676820006966200075702000736F2020
:10068000007468656D20006C696B65200070617294
:1006900000616E200074696D65200077617920002B
:1006A000616E792000707265007768656E20006168
:1006B000626F75742000636F756C642000646F2036
:1006C00000776869636820006F776E20006F766539
:1006D00072200069737420007361696420006D6585
:1006E00020006F7220006F662074686520007765B7
:1006F000200074686569722000696F6E7320007550
:100700007365200062792000736F6D6520006E6F45
:10071000772000776F756C64200077657265200024
:100720006D792000706572007768617420007468CC
:10073000696E67200068696D20006576657220002B
:100740007468657265200070726F0068617665205C
:10075000006F7468657220007468657920006265B6
:10076000200066726F6D2000617420006275742035
:1007700000746869732000636F6E006F75722000EB
:10078000686164200061726520006F6E6520006FF3
:100790006E20006F75742000686572652000696EB8
:1007A0006720006173200069732000616C6C200079
:1007B0007368652000776974682000697420007789
:1007C000617320006E6F74200068652000666F7290
:1007D0002000796F75200068697320007468617467
:1007E000200074696F6E2000696E200068657220B9
:1007F000006F662000746F2000616E6420007468D2
:1008000065200045003A003B003C003D003E0035BD
:100810000014001A00090013000500390004001537
:1008200000160017000A00A8521D001B0006000752
:1008300000190000000000567C577C2C00825200FA
:10084000000000A152A452A2522B003F00400041E0
:10085000004200430044000D000F0018001C00334C
:100860000031001000110008000C00120034000ECE
:10087000000B003600370038002D0083522A004A52
:10088000004D00000000002800B25229004C00007A
:100890000000000100010001000100010001000151
:1008A0000014001A000800150017000100040016CB
:1008B00000070009000A0001001D001B00060019C6
:1008C00000050000000000537C547C010001000082
:1008D0000000000100010001000100010001000111
:1008E000000100010001001C0018000C00120013A0
:1008F0000001000B000D000E000F0033000100117D
:10090000001000360037003800010001000100012E
:1009100000010000000000010001000100010000D2
:1009200000000024525300460047004800BD00A8C4
:1009300000077E087E2F023002BE00A9002F003083
:1009400000260227024900AA0004011B0106011922
:1009500001190500000000537C547C0100010000D7
:10096000000000010001002A010100057E2302248D
:100970000220021E026152067E240025002600226B
:100980000221023600210022002300550057002ECC
:10099000001E001F00200054005600010001002727
:1009A000003700000000000100B20001000100005B
:1009B00000000024520100010001000100010001BB
:1009C000002F003000520065004C054B0001005024
:1009D0000051004F0001004E0004011B01060119E7
:1009E000011905000000002B132B0101000100007C
:1009F000000000010001002A0101000100010001C6
:100A000000010001006152077E2702260230002FFC
:100A1000004600087EE400E500E600E70001002350
:100A200002240220021F021E020100010001000137
:100A300000010000000000010001000100010000B1
:100A400000000000003A003B003C003D003E00007A
:100A50007C0000000000000000000000000000001A
:100A600000000000000000007C000000000000000A
:100A700000007C00000000000000000100010000F8
:100A800000000001000100010001003F00400041A2
:100A900000420043000000000000000000000000D1
:100AA0000000000000000000000000000000000046
:100AB0000000000000000000000000010001000034
:100AC0000000000000000001000100010001000022
:100AD0000000000000000000000000000000000016
:100AE0000000000000000000000000000000000006
:100AF000000000000000007E0F00D4FFFFFFC700D1
:100B000000007800000000000000002A2B280000F0
:100B100000000000000000000000000000002900AC
:100B20000000002C1E3420212224342627252E36B6
:100B30002D3738271E1F2021222324252633333624
:100B40002E37381F0405060708090A0B0C0D0E0F77
:100B5000101112131415161718191A1B1C1D2F31FA
:100B600030232D350405060708090A0B0C0D0E0F5E
:100B7000101112131415161718191A1B1C1D2F31DA
:100B800030354C05010902A10185020901A10005CA
:100B9000091901290815002501950875018102052B
:100BA00001093009311581257F95027508810609F3
:100BB000381581257F950175088106050C0A3802D4
:100BC0001581257F950175088106C0C00501098042
:100BD000A101850319012AB700150126B700950167
:100BE00075108100C0050C0901A101850419012AB5
:100BF000A002150126A002950175108100C0050113
:100C00000906A101050719E029E715002501950846
:100C1000750181029501750881010507190029FFF9
:100C2000150026FF009506750881000508190129A1
:100C300005950575019102950175039101C00902A1
:100C40003B00020100A0FA090400000103010100B9
:100C5000092111010001224000070581030800015C
:100C60000904010001030000000921110100012213
:100C70007B00070582032000011201000200000032
:100C8000084D4436350100010200012C0344006187
:100C9000006300740079006C002D004D0061006E4F
:100CA00000750066006F0072006D0020002800359E
:100CB0000078003600290000000E037400730068FD
:100CC000006F007200740000000403090400112486
:100CD0001FBECFEFDAE0DEBFCDBF14E0A0E0B1E091
:100CE000E0E3FCE502C005900D92A63CB107D9F700
:100CF0002AE0A6ECB4E001C01D92AD34B207E1F7E2
:100D00000E94B6270C945D2D0C940000FC01AC01F0
:100D10004A5F5F4F8FEF91E32191822728E030E017
:100D200087FF09C0880F892721503109C9F7E417C7
:100D3000F50791F70895880FF7CFE8EDF0E080818F
:100D40008E7F80831092E2001092DA001092E10010
:100D5000A0EEB0E08C9181608C9380818F7780834E
:100D600019BCA7EDB0E08C918E7F8C9380818F7E33
:100D700080831092330A08952091E4003091E500B9
:100D800095E6A9012091EC00822F817020FF06C01A
:100D90008091E80080FF06C080E008952091E8007F
:100DA00022FD1AC08091400A882389F0853089F09D
:100DB0008091EB0085FD0FC02091E4003091E500AB
:100DC00042175307F9F29150E1F684E0089582E06A
:100DD000089583E0089581E008958091420A87FF95
:100DE00013C08091E80082FF06C08091E8008B77F5
:100DF0008093E80004C08091400A8111F2CF0895E9
:100E00008091400A8823D9F38091E80080FFF8CFD1
:100E10008091E8008E77ECCF982F9093E900242FF3
:100E2000762F50E0891731F07091EC002091ED00A1
:100E30005091F00021FD07C09F5F973071F78093BC
:100E4000E90081E008953091EB003E7F3093EB00A4
:100E50003091ED003D7F3093ED003091EB0031603B
:100E60003093EB007093EC002093ED005093F00072
:100E70002091EE0027FDE0CF80E00895B0E0A0E0F3
:100E8000E4E4F7E00C94AA2CC8EDD0E088818F7ED2
:100E90008883E7EDF0E080818160808384E082BF19
:100EA00081E08093330A88818E7F888302EE10E090
:100EB000F80110821092DA0081EEC82ED12CF601D2
:100EC000108288818F778883888180688883888171
:100ED0008F7D888319BC1092400A1092410A1092AB
:100EE0003F0A10923E0A90EEE92EF12CF701808124
:100EF0008B7F808388818160888342E060E080E02E
:100F00000E940C07F60180818E7F8083F80180812A
:100F100081608083808188608083F70180818E7FFB
:100F20008083888180618883CDB7DEB7E8E00C9448
:100F3000C62CFC018091480A9091490A86179707B0
:100F4000A0F06115710529F49091E8009E779093C7
:100F5000E80090E06115710551F4911108C080918D
:100F6000E80082FF34C080E00895BC01F2CF809198
:100F7000400A8823C1F18530C1F18091E80083FDEA
:100F800030C08091E80082FDEACF8091E80080FFC8
:100F9000E1CF8091F3002091F200382F61157105A7
:100FA00019F02830310558F091E02830310509F06A
:100FB00090E02091E8002E772093E800CBCF81913C
:100FC0008093F100615071092F5F3F4FE7CF80910F
:100FD000400A882341F0853041F08091E80083FF8A
:100FE000BECF81E0089582E0089583E00895809166
:100FF000350A08959C014FB7F89480912F0A90917B
:10100000300AA091310AB091320A4FBF821B930B74
:1010100008952FB7F89460912F0A7091300A80914B
:10102000310A9091320A2FBF08952FB7F89480911A
:101030002F0A9091300AA091310AB091320A2FBF45
:101040000895A3E0B0E0E7E2F8E00C94B02C209122
:101050002C0A30912D0A28173907A1F090932D0AF8
:1010600080932C0AE0912A0AF0912B0A309751F0D4
:1010700024E029839B838A830680F781E02DCE01BB
:10108000019609952396E2E00C94CC2CA3E0B0E005
:10109000ECE4F8E00C94B02C2091280A3091290A55
:1010A00028173907A1F09093290A8093280AE09124
:1010B0002A0AF0912B0A309751F023E029839B8371
:1010C0008A830680F781E02DCE010196099523964B
:1010D000E2E00C94CC2CDC016091240A8091250A7A
:1010E000962F891301C00895292F30E0F901EE0FE2
:1010F000FF1FE45EF54F408151814A175B07A1F461
:1011000087E08A9FA0018B9F500D11244B5D5E4F9D
:1011100081E0FA0184839613E6CF2F5F3F4F23705F
:1011200033272093240A08952F5F3F4F922F937007
:10113000D8CF1092B8091092B709E5E2F1E08581A5
:10114000811102C014821682379684E0EB37F807CB
:10115000B1F708950E9415089C019091AF09809104
:10116000B009982B21F03093AC092093AB099091F2
:10117000B1098091B209982B21F03093AA092093EC
:10118000A909E0912A0AF0912B0A309749F082E0F0
:101190008093AD090480F581E02D8DEA99E00995F1
:1011A00008958091A80980FD16C081FD16C082FDBA
:1011B00016C08091A7098823A1F0883280F428E026
:1011C000829FC001112468E270E00E94D72C862F14
:1011D000672B39F0089582E0089584E0089588E04F
:1011E000089581E008958091A80980FD16C081FDD1
:1011F00016C082FD18C08091A609882391F08C3317
:1012000090F428E3829FC00111246CE370E00E94F7
:10121000D72C862F672B49F008958EE008958CE136
:10122000089588E0089588E3089581E0089580E0B6
:101230000895F894E82FE295EF70F0E031A1282F9F
:101240002F7081E090E001C0880F2A95EAF7982F6F
:101250009095932391A392A1892B82A378940895CA
:101260009091880992FF06C0282F28712830F9F440
:10127000877F846093FF06C0282F28712831F1F4FE
:10128000877E84612091890920FF06C0382F38713C
:101290003830D9F4877F816021FF06C0282F28715C
:1012A0002831D1F4877E816194FD877E0895282FAF
:1012B00024712430F9F68B7F8860DCCF282F2471CD
:1012C000243101F78B7E8861DDCF382F31713130C9
:1012D00019F78E7F8860E0CF282F2171213121F707
:1012E0008E7E8861E1CF972F7C30B8F46630A8F409
:1012F000853098F470E026E0929F600D711D1124F6
:10130000FB0198E4899FE00DF11D1124EE0FFF1FF2
:10131000ED5FF74F85919491089580E090E00895F6
:10132000CF93DF93EC0182389105B9F108F041C009
:101330008133910509F49FC050F58932910509F474
:101340008FC08A9709F49EC0C11520E5D20708F026
:10135000BDC0C11530E4D30708F00AC1C03ED105B5
:1013600008F0A5C0CD3CD10508F000C1C83AD105B0
:1013700008F08FC0C53AD10508F0F0C0C130D105E2
:1013800039F1209729F1C430D10510F546C08533D5
:10139000910509F460C0C997B9F6809188098370F6
:1013A00009F044C18091890983FF12C0C9E2D0E0ED
:1013B0000FC0833E9105A1F178F4803E910509F1BB
:1013C000823E910509F0C0CF8091880982FD21C03D
:1013D000CE01DF91CF910895863E910561F1873E60
:1013E000910571F1843E910509F0AECF8091890994
:1013F00081FFEECF80918809C7EED0E084FD0DC05B
:10140000E7CF8091880980FD33C09091890990FFD2
:10141000DFCFC3EED0E084FFDBCFD0E0C0E0D8CF99
:101420008091880982FDFFC09091890990FDFEC0DE
:1014300084FFCECFF2CF8091880983FDDDCFC8CF66
:101440008091880983FDF5C09091890991FFF0CFC3
:10145000C4EED0E0BDCF8091880985FFB9CFA6CF7B
:101460008091880985FDE8C08091890983FFB0CF0C
:10147000C9E3D0E0ADCF8091880986FFA9CFCAE249
:10148000D0E0A6CF8091880986FFA2CFC1E3D0E04B
:101490009FCFC13CD10508F6C85AD0E0CC0FDD1F64
:1014A000CB57DB4F0990D881C02DD46491CFC115A3
:1014B00040E2D40708F0AAC0C11581E0D80708F0BF
:1014C00087CFC83ED10508F483CFA7CFC03622E529
:1014D000D20718F5C03432E5D30708F053C0C03244
:1014E00042E5D40708F047C0C11582E5D80708F4E3
:1014F0007FC02C2F2695269540E2249F9001112431
:101500008C2F8370C1E0D0E002C0CC0FDD1F8A9524
:10151000E2F7C22BD32BDD685BCFC03A22E5D207BE
:1015200060F4C03832E5D30708F441C0CF71D0E091
:10153000DC2FCC27C46FD06A4BCFC03C42E5D40728
:1015400008F44AC0C03E82E5D80708F066CFDC2F19
:10155000CC27CC27DF71C06FD06A3ACFC55AD0E014
:10156000CE57DB4FC881D0E0D06432CFD06530CFCA
:10157000DF70D06A2DCFCF71D0E0DC2FCC27C16FC8
:10158000D06A26CF2C2F26952695277080E2289F9B
:10159000900111248C2F8370C1E0D0E002C0CC0FE9
:1015A000DD1F8A95E2F7C22BD32BDC6811CF2C2FDD
:1015B00026952695277040E2249F900111248C2FB8
:1015C0008370C1E0D0E002C0CC0FDD1F8A95E2F746
:1015D000C22BD32BDA68FCCE8C2F8F710E9430097E
:1015E000C82FD0E0DC2FCC27CC27DF71D062F0CE23
:1015F0008C2F8F710E94300935E0D695C7953A95AA
:10160000E1F7CF709C2FEC01D069E2CE8D2F8F7166
:101610000E94300990E0982F882788279F719C01AD
:101620002C2BE901E3CFC2EED0E0D2CEC0EED0E069
:10163000CFCEC6EED0E0CCCEC5E3D0E0C9CE80910F
:101640004C09811110924C0908958091B6098111BD
:101650000FC01092B3090E941F0B0E9415088857F3
:101660009C4E9093B5098093B40981E08093B609AC
:10167000089580959091B30998239093B3090895A4
:10168000EAECF4E09191891303C0DF0111971C92F9
:1016900094E0E03DF907B1F70895AAECB4E0EFEF6C
:1016A00090E02D91821751F0EF3F19F4211101C004
:1016B000E92F9F5F9630A9F7EF3F09F408950E2EAA
:1016C000000CFF0BE853FB4F8283089520914209E1
:1016D00090910109291302C080E0089530E0F901DA
:1016E00053E0EE0FFF1F5A95E1F7EE5FF64F518181
:1016F000561306C05081581303C05281541304C0BE
:101700002F5F3F4F2770E6CF81E008958091420917
:1017100090910109981301C008958F5F8770FACFE7
:10172000B0E0A0E0E6E9FBE00C94A92C7C0100917C
:101730008609109187098091840990918509082B69
:10174000192BCFE0D0E0CC24C394D12CBC2EC60101
:101750000C2E02C0880F991F0A94E2F78023912370
:10176000892B49F4219790F7B12C8B2DCDB7DEB79B
:10177000E9E00C94C52CB7018C2F0E9473090E94DC
:101780009009019779F3F1CFCF93DF93EC010E9499
:10179000900BBE010E9473090E949009DF91CF91C6
:1017A00008959C3078F5863068F5E82FF0E086E003
:1017B000989FE00DF11D11249E2F977083E0F69500
:1017C000E7958A95E1F7EE0FFF1FEE0FFF1FEB5233
:1017D000F74F50E040E080E0219130E0092E02C058
:1017E000369527950A94E2F721703327042E01C01D
:1017F000220F0A94EAF7822B4F5F5F4F4430510566
:1018000059F7089580E008959C3098F5863088F562
:10181000E82FF0E086E0989FE00DF11D11248E2F57
:10182000877041E001C0440F8A95EAF783E0F6959E
:10183000E7958A95E1F7EE0FFF1FEE0FFF1FEB52C2
:10184000F74F30E020E070E05191DF011197CB01BC
:10185000022E02C0969587950A94E2F781708195D1
:101860008527842385278C932F5F3F4F24303105B4
:1018700059F708959093870980938609089521E088
:1018800030E002C0220F331F8A95E2F72095309591
:101890008091860990918709822393230E943A0CB4
:1018A0000895909143098095892380934309282FB7
:1018B000277091F4282F082E000C330B9217130673
:1018C00059F09091890992FF07C085958595859576
:1018D0000E943F0C10924309089521E030E002C0BD
:1018E000220F331F8A95E2F780918609909187092C
:1018F000822B932B0E943A0C08959091890992FFB4
:1019000007C098E0899F90011124622B60934309DE
:101910000E946D0C08959093850980938409089521
:10192000FC0183819481892B29F080819181892315
:101930008F3FF1F480E008950E94900992959F7086
:10194000963089F058F4925F9F70923098F7803FFC
:1019500019F030F4883E70F781E008959A5FF4CF73
:10196000843F41F7F9CF883EB8F3813F19F7F4CFB0
:1019700086819781009701F7808191810E94C40B35
:10198000DDCF662309F45DC08D3C41F40E94F3086D
:1019900081958093B0090E94AA0808958E3C19F49D
:1019A0000E94F308F6CF8F3C31F40E94F308819532
:1019B0008093AF09F0CF803D19F40E94F308F8CF6F
:1019C000893D29F40E94D1088093B109E4CF8A3D72
:1019D00021F40E94D1088195F7CF8B3D31F40E940C
:1019E000D10881958093B209D6CF8C3D19F40E941D
:1019F000D108F8CF9FE2980F983070F4815D990B71
:101A000021E030E001C0220F8A95EAF78091AE090B
:101A1000822B8093AE09BFCF8D3D31F48091A80910
:101A200081608093A809B7CF8E3D21F48091A809E9
:101A30008260F7CF8F3D09F0AECF8091A809846016
:101A4000F0CF4091AF098D3C59F48091B00987FFE8
:101A50000DC01092B00941110BC01092A60908C028
:101A60008E3C81F48091B00918169CF3442381F0D8
:101A70008091B1099091B209892B09F08CCF109215
:101A8000A70989CF8F3C49F447FFF0CF1092AF09E7
:101A90008091B0098111ECCFE0CF803D19F414168C
:101AA000ACF3E4CF9091B109893D29F41916F4F60D
:101AB0001092B109DBCF8A3D19F497FFD7CFF8CF49
:101AC0009091B2098B3D29F497FFD0CF1092B209C3
:101AD000CDCF8C3D19F41916CCF3C8CF9FE2980FE7
:101AE000983090F4815D990B21E030E0B90102C09B
:101AF000660F771F8A95E2F7CB0180959091AE092A
:101B000089238093AE09B2CF8D3D31F48091A8092D
:101B10008E7F8093A809AACF8E3D21F48091A809D9
:101B20008D7FF7CF8F3D09F0A1CF8091A8098B7FE2
:101B3000F0CFA5E0B0E0EFE9FDE00C94AF2C9C0104
:101B4000FC01868197810097E1F485E0DE01119622
:101B500001900D928A95E1F7F901228189819A819C
:101B6000222399F0662389F00E94900B182F682F8A
:101B700089819A810E94040C69817A81812F0E9457
:101B800073092596E3E00C94CB2C0E94D10B182FFF
:101B9000F3CF82E0FB01099508950F931F93CF9334
:101BA000DF938B01EA019091400A943061F58093B4
:101BB000E9008FEF9091E800815095FD06C095ED0A
:101BC0009A95F1F700008111F5CF8091E80085FF2B
:101BD0001AC00E94BC06811111C08091E80085FDE9
:101BE00006C08091E8008E778093E800F2CFF8017C
:101BF00081918F018093F100219779F78091E8001E
:101C00008E778093E800DF91CF911F910F91089517
:101C100043E050E0BC0182E00E94CD0D089546E013
:101C200050E0BC0182E00E94CD0D0895CF93DF9378
:101C3000EC0148E050E0BC0181E00E94CD0D88E05D
:101C4000FE01A6E3BAE001900D928A95E1F7DF91DB
:101C5000CF910895B0E0A0E0E0E3FEE00C94A82C62
:101C60007C015B016A018091710901E010E08A301A
:101C700010F40AE010E0C1E0D0E0B501C701F601C0
:101C80000995811104C021960C171D072CF4CDB7BE
:101C9000DEB7EAE00C94C42CCC9F9001CD9F300DB0
:101CA000300D112490E080E045E34A95F1F7000003
:101CB000019682179307C1F7E0CF809157098111F0
:101CC00010C08091D80080618093D8008AE18A9505
:101CD000F1F700C08091D90080FF0AC081E08093B5
:101CE000570981E090915709913009F080E00895FB
:101CF00082E0809357090E949D061092400AF1CF1E
:101D00000E945D0E882359F0E0912A0AF0912B0A77
:101D1000309729F00190F081E02D0995089580E039
:101D200008958091B3099091B909892B8093C804D3
:101D300090914C09992391F0892B8093C80420E05D
:101D40008AEC94E0FC013191CF0131112F5FF4E076
:101D5000803D9F07B9F721110E941F0B48E050E01A
:101D600064E479E088EC94E00E94472D892BA9F087
:101D700088E0E8ECF4E0A4E4B9E001900D928A95E3
:101D8000E1F7E0912A0AF0912B0A309731F00280B6
:101D9000F381E02D88EC94E009950895882341F0C3
:101DA00080959091B90989238093B9090E94910E79
:101DB00008958091B609882329F082E20E94CE0E10
:101DC0001092B6090895882339F09091B909982B9B
:101DD0009093B9090E94910E0895882321F00E94E2
:101DE000390B0E94910E0895882339F09091B30920
:101DF000982B9093B3090E94910E0895882309F4BB
:101E000056C0823879F40E94800E81FF50C089E369
:101E10000E944D0B0E94910E89E30E94400B0E948C
:101E2000910E0895833859F40E94800E80FF3FC0C0
:101E300083E50E944D0B0E94910E83E5EECF84381E
:101E400059F40E94800E82FF32C087E40E944D0B3D
:101E50000E94910E87E4E1CF9CEF980F913AE8F24F
:101E600090E2980F983050F4877091E001C0990F7C
:101E70008A95EAF7892F0E94390BD1CF9BE5980FFD
:101E8000933028F490E080E00E944608089598E599
:101E9000980F993128F490E080E00E94210808957D
:101EA00093E3980F933118F460E00E94C10C0895F9
:101EB000CF93C82F8823C9F08238C9F40E94800EBE
:101EC00081FD13C089E30E944D0B0E94910E2FEFFC
:101ED00087EE93E0215080409040E1F700C0000081
:101EE00089E30E94400B0E94910ECF9108958338A0
:101EF000A1F40E94800E80FDF8CF83E50E944D0B77
:101F00000E94910E2FEF81EE94E02150804090408E
:101F1000E1F700C0000083E5E4CF8438A1F40E941B
:101F2000800E82FDE2CF87E40E944D0B0E94910E4D
:101F30002FEF81EE94E0215080409040E1F700C007
:101F4000000087E4CECF8CEF8C0F813A68F4EAEC86
:101F5000F4E08191C817E9F124E0E03DF207C9F708
:101F60008C2F0E944D0BBFCF80E28C0F883068F41D
:101F7000C77021E030E001C0220FCA95EAF78091D6
:101F8000B309822B8093B309AECFEBE5EC0FE330BE
:101F900040F4F0E0EE57FB4F808190E00E9446084D
:101FA000A4CFE8E5EC0FE93150F4F0E0EE0FFF1FAD
:101FB000EB57FB4F808191810E94210896CF83E3EC
:101FC0008C0F833108F091CF61E08C2F0E94C10CFF
:101FD0008CCF8C2F0E94400B0E94910EC1CF1F937B
:101FE000CF93DF93182FD0E0C0E0893311F4C0E520
:101FF000D0E0812F0E94580F209739F4812F0E9442
:10200000FE0EDF91CF911F9108958FE99FE0019718
:10201000F1F700C000002197EFCF0F931F93CF93EC
:10202000DF93C62FD42F022FFC0182818823A9F0D1
:1020300060934C0A0E94150890934B0A80934A0AB9
:10204000C77081E001C0880FCA95EAF70E94F40EBC
:10205000DF91CF911F910F91089580914C0A6813E1
:1020600032C080914A0A90914B0A0E94FA07883C3C
:10207000910548F510E21D0FCD17B9F080E28C0FE5
:10208000883040F4C77081E001C0880FCA95EAF734
:102090000E94ED0E183048F481E09D2F977001C02A
:1020A000880F9A95EAF70E94F40E802F0E94EF0F96
:1020B000183070F6D77081E001C0880FDA95EAF722
:1020C0000E94ED0EC5CFC77081E001C0880FCA9590
:1020D000EAF7F6CFB0E0A0E0E0E7F0E10C94AB2C3B
:1020E000E82FF0E0ED5FF44FD490282F2695269549
:1020F000269530E0F901ED50F54F0491877010E01E
:10210000082E02C0159507950A94E2F70170112771
:10211000F901ED51F54FE490F12C082E02C0F59431
:10212000E7940A94E2F791E0E922FF24F901ED52E5
:10213000F54FC491D0E002C0D595C7958A95E2F7D6
:10214000C170DD270115110519F081EE0E94580FAD
:10215000E114F10419F086EE0E94580F8D2D0E94B3
:10216000EF0FE114F10419F086EE0E94FE0E011546
:10217000110519F081EE0E94FE0ECD2B19F08CE2B4
:102180000E94EF0FCDB7DEB7E7E00C94C72CFF92AB
:102190000F931F93CF93DF938C018AE0F82EF80101
:1021A0008491882309F44BC0813009F044C0E801D0
:1021B0002196FE018491813049F42196FE0184919B
:1021C0000E94EF0F8E010F5F1F4FE9CF823039F46D
:1021D000E8012296FE0184910E94580FF3CF8330CC
:1021E00039F4E8012296FE0184910E94FE0EEACFA6
:1021F000843041F7E8012296FE01249190E080E0CE
:10220000FE0131962053330B2A30310548F00197F7
:10221000C8F2EFE9FFE03197F1F700C00000F7CF17
:10222000F89EA001F99E500D1124C901840F951F3D
:102230002491EF01E5CF0E946A10E801C3CFCDB72A
:10224000DEB7E5E00C94C92C8A37910508F0CBC3C2
:10225000815A924DFC010C94EB2C662309F4C3C304
:102260008EEF97E00E94C7100895662309F4BBC360
:1022700089EF97E00E94C7100895662309F4B3C35D
:1022800085EF97E00E94C7100895662309F4ABC359
:1022900081EF97E00E94C7100895662309F4A3C355
:1022A0008CEE97E00E94C7100895662309F49BC343
:1022B00088EE97E00E94C7100895662309F493C33F
:1022C00082EE97E00E94C7100895662309F48BC33D
:1022D0008CED97E00E94C7100895662309F483C32C
:1022E00087ED97E00E94C7100895662309F47BC329
:1022F00082ED97E00E94C7100895662309F473C326
:102300008DEC97E00E94C7100895662309F46BC313
:1023100089EC97E00E94C7100895662309F463C30F
:1023200084EC97E00E94C7100895662309F45BC30C
:102330008FEB97E00E94C7100895662309F453C3FA
:102340008BEB97E00E94C7100895662309F44BC3F6
:1023500085EB97E00E94C7100895662309F443C3F4
:1023600080EB97E00E94C7100895662309F43BC3F1
:102370008BEA97E00E94C7100895662309F433C3DF
:1023800087EA97E00E94C7100895662309F42BC3DB
:1023900083EA97E00E94C7100895662309F423C3D7
:1023A0008EE997E00E94C7100895662309F41BC3C5
:1023B00088E997E00E94C7100895662309F413C3C3
:1023C00083E997E00E94C7100895662309F40BC3C0
:1023D0008FE897E00E94C7100895662309F403C3AD
:1023E0008AE897E00E94C7100895662309F4FBC2AB
:1023F00085E897E00E94C7100895662309F4F3C2A8
:1024000080E897E00E94C7100895662309F4EBC2A4
:102410008BE797E00E94C7100895662309F4E3C292
:1024200087E797E00E94C7100895662309F4DBC28E
:1024300081E797E00E94C7100895662309F4D3C28C
:102440008CE697E00E94C7100895662309F4CBC27A
:1024500088E697E00E94C7100895662309F4C3C276
:1024600082E697E00E94C7100895662309F4BBC274
:102470008EE597E00E94C7100895662309F4B3C261
:1024800088E597E00E94C7100895662309F4ABC25F
:1024900081E597E00E94C7100895662309F4A3C25E
:1024A0008BE497E00E94C7100895662309F49BC24D
:1024B00087E497E00E94C7100895662309F493C249
:1024C00080E497E00E94C7100895662309F48BC248
:1024D0008AE397E00E94C7100895662309F483C237
:1024E00085E397E00E94C7100895662309F47BC234
:1024F0008EE297E00E94C7100895662309F473C224
:1025000088E297E00E94C7100895662309F46BC221
:1025100084E297E00E94C7100895662309F463C21D
:1025200080E297E00E94C7100895662309F45BC219
:102530008AE197E00E94C7100895662309F453C208
:1025400083E197E00E94C7100895662309F44BC207
:102550008EE097E00E94C7100895662309F443C2F5
:1025600088E097E00E94C7100895662309F43BC2F3
:1025700084E097E00E94C7100895662309F433C2EF
:102580008FEF96E00E94C7100895662309F42BC2CE
:1025900089EF96E00E94C7100895662309F423C2CC
:1025A00082EF96E00E94C7100895662309F41BC2CB
:1025B0008EEE96E00E94C7100895662309F413C2B8
:1025C00086EE96E00E94C7100895662309F40BC2B8
:1025D00082EE96E00E94C7100895662309F403C2B4
:1025E0008EED96E00E94C7100895662309F4FBC1A2
:1025F00088ED96E00E94C7100895662309F4F3C1A0
:1026000083ED96E00E94C7100895662309F4EBC19C
:102610008DEC96E00E94C7100895662309F4E3C18B
:1026200088EC96E00E94C7100895662309F4DBC188
:1026300081EC96E00E94C7100895662309F4D3C187
:102640008DEB96E00E94C7100895662309F4CBC174
:1026500086EB96E00E94C7100895662309F4C3C173
:102660008FEA96E00E94C7100895662309F4BBC163
:1026700089EA96E00E94C7100895662309F4B3C161
:1026800085EA96E00E94C7100895662309F4ABC15D
:1026900080EA96E00E94C7100895662309F4A3C15A
:1026A0008BE996E00E94C7100895662309F49BC148
:1026B00085E996E00E94C7100895662309F493C146
:1026C00081E996E00E94C7100895662309F48BC142
:1026D0008DE896E00E94C7100895662309F483C12F
:1026E00087E896E00E94C7100895662309F47BC12D
:1026F00081E896E00E94C7100895662309F473C12B
:102700008DE796E00E94C7100895662309F46BC117
:1027100089E796E00E94C7100895662309F463C113
:1027200085E796E00E94C7100895662309F45BC10F
:102730008DE696E00E94C7100895662309F453C100
:1027400087E696E00E94C7100895662309F44BC1FE
:1027500081E696E00E94C7100895662309F443C1FC
:102760008CE596E00E94C7100895662309F43BC1EA
:1027700087E596E00E94C7100895662309F433C1E7
:1027800081E596E00E94C7100895662309F42BC1E5
:102790008CE496E00E94C7100895662309F423C1D3
:1027A00087E496E00E94C7100895662309F41BC1D0
:1027B00081E496E00E94C7100895662309F413C1CE
:1027C0008BE396E00E94C7100895662309F40BC1BD
:1027D00085E396E00E94C7100895662309F403C1BB
:1027E0008FE296E00E94C7100895662309F4FBC0AB
:1027F00089E296E00E94C7100895662309F4F3C0A9
:1028000084E296E00E94C7100895662309F4EBC0A5
:102810008EE196E00E94C7100895662309F4E3C094
:1028200088E196E00E94C7100895662309F4DBC092
:1028300082E196E00E94C7100895662309F4D3C090
:102840008DE096E00E94C7100895662309F4CBC07E
:1028500085E096E00E94C7100895662309F4C3C07E
:102860008FEF95E00E94C7100895662309F4BBC05E
:1028700086EF95E00E94C7100895662309F4B3C05F
:1028800081EF95E00E94C7100895662309F4ABC05C
:102890008BEE95E00E94C7100895662309F4A3C04B
:1028A00085EE95E00E94C7100895662309F49BC049
:1028B0008FED95E00E94C7100895662309F493C038
:1028C0008AED95E00E94C7100895662309F48BC035
:1028D00084ED95E00E94C7100895662309F483C033
:1028E0008DEC95E00E94C7100895662309F47BC023
:1028F00086EC95E00E94C7100895662309F473C022
:102900008FEB95E00E94C7100895662309F46BC011
:1029100087EB95E00E94C7100895662309F463C011
:1029200080EB95E00E94C7100895662309F45BC010
:1029300089EA95E00E94C7100895662309F453C000
:1029400083EA95E00E94C7100895662309F44BC0FE
:102950008BE995E00E94C7100895662309F443C0EF
:1029600085E995E00E94C71008956623E1F18CE89F
:1029700095E00E94C71008956623A9F185E895E0C7
:102980000E94C7100895662371F18FE795E00E94B9
:10299000C7100895662339F189E795E00E94C710B2
:1029A0000895662301F181E795E00E94C71008951C
:1029B0006623C9F08AE695E00E94C7100895662351
:1029C00091F084E695E00E94C7100895662359F0BF
:1029D0008DE595E00E94C7100895662321F084E5F7
:1029E00095E00E94C71008951F93CF93DF93EC01E9
:1029F0001AE08881882309F43EC08130C9F59981A5
:102A00008A81913029F422960E94EF0F2196F1CF0E
:102A1000923021F422960E94580FF8CF933021F47F
:102A200022960E94FE0EF2CF943011F02196EECF46
:102A3000229630E020E0AE014F5F5F4F8053990B4C
:102A40008A30910550F02150310900F38FE99FE061
:102A50000197F1F700C00000F6CF129FB001139F5D
:102A6000700D11249C01260F371F8981EA01E3CFE5
:102A70000E946A10CBCFDF91CF911F910895909162
:102A8000890992FB222720F9281779F080FB92F917
:102A900090938909609188097091890984E090E098
:102AA0000E94312D82E00E94510C0895CF93109224
:102AB000B309C6E0EAECF4E0DF018C2F1D928A95A1
:102AC000E9F790E080E00E94460890E080E00E94F4
:102AD00021081092B9090E94910EEDEAF9E0DF0198
:102AE0001D92CA95E9F71092A6091092A7091092B3
:102AF000A8090E94AA08CF910895AAE2B0E0E3E8ED
:102B0000F5E10C94AF2C82E49AE02091F100FC01F5
:102B10002193CF01FAE08A349F07B9F78091430AE5
:102B2000833009F470C0B8F4813009F447C08230B2
:102B300009F4B1C08091E80083FF7EC28091420A0F
:102B40009091430A9A3008F077C2E92FF0E0E752FB
:102B5000F24D0C94EB2C8A3009F48CC08B3009F4C4
:102B60006FC0893039F78091420A813219F780911C
:102B7000460A9091470A0297E8F68091E800877F1D
:102B80008093E8008091E80082FF38C09091F300C4
:102B90008091F200029731F48091F100813011F0C0
:102BA000863021F48091F1008093350A8091E8000D
:102BB0008B778093E8000E94ED06BCCF8091420A9B
:102BC000813A09F0B7CF8091E800877F8093E800D1
:102BD0008091460A9091470A892B61F468E086E368
:102BE0009AE070E00E9499078091E8008B778093CB
:102BF000E800A0CF60E090E080E0F3CF8091400A51
:102C00008111C0CF97CF8091420A813A09F092CFCB
:102C10008091460A9091470A892B09F08BCF8091C9
:102C2000E800877F8093E8008091E80080FFFCCF78
:102C300080917C048093F1008091E8008E77B9CF79
:102C40008091420A813209F075CF8091460A9091B5
:102C5000470A892B09F06ECF8091E800877F809327
:102C6000E8000E94ED068091440A80937C040E9453
:102C7000561560CF8091420A813209F05BCF809176
:102C8000E800877F8093E8000E94ED068091450A66
:102C90008093340A4FCF8091420A813A09F04ACF9B
:102CA0008091E800877F8093E8008091E80080FFB2
:102CB000FCCF8091340ABECF803899F0823809F079
:102CC000BBC18091460A8F70873008F0B5C18093F0
:102CD000E9008091EB0085FB882780F91092E900DC
:102CE00006C080913E0A90913F0A911182609091B6
:102CF000E800977F9093E8008093F1001092F10034
:102D00008091E8008E7794C1882309F482C18230D3
:102D100009F092C18091440A811185C18091460ACF
:102D20008F702FEF280F263008F086C18093E900BE
:102D30002091EB0020FF77C1933031F48091EB00BC
:102D400080628093EB006FC19091EB009061909353
:102D5000EB0021E030E001C0220F8A95EAF72093D2
:102D6000EA001092EA008091EB008860EACF8111BE
:102D700063C11091440A1F778091E3008078812B12
:102D80008093E3008091E800877F8093E8000E94B1
:102D9000ED068091E80080FFFCCF8091E300806821
:102DA0008093E30082E0111183E08093400A44C1E4
:102DB0008058823008F040C18091440A9091450AC1
:102DC0008C3D23E09207A1F583E08A838AE2898320
:102DD0004FB7F894DE01139620E03EE051E2E32F76
:102DE000F0E050935700E49120FF03C0E295EF70AC
:102DF0003F5FEF708E2F90E0EA30C0F0C7968D9362
:102E00009D932F5F243159F74FBF8091E800877F52
:102E10008093E8006AE270E0CE0101960E94990773
:102E20008091E8008B778093E80006C1C096E7CFD9
:102E30004091460A5091470A292F33272330310504
:102E400009F444C078F52130310509F46FC08BE3F3
:102E500090E0EEE3FCE02230310509F0EDC0209176
:102E6000E800277F2093E8002091480A3091490A22
:102E70008217930708F49C0140E02115310509F001
:102E800064C0411162C08091E80082FDC9CF809189
:102E9000400A882329F2853019F28091E80083FFE7
:102EA000F2CFBECF21323105A9F12232310509F02E
:102EB000C3C04115510509F443C04130510509F023
:102EC000BBC08BE790E0E3E8FBE0C9CF99278130F6
:102ED0009105C1F0009759F0029709F0ADC0EBE8F9
:102EE000FCE0E4918E2F90E0EBE8FCE007C0E9EC19
:102EF000FCE0E4918E2F90E0E9ECFCE0009709F40F
:102F00009BC0ADCFE9EBFCE0E4918E2F90E0E9EBC4
:102F1000FCE0F4CF4115510571F04130510509F045
:102F20008BC089E090E0E9E6FCE099CF82E190E097
:102F3000E9E7FCE094CF89E090E0E0E5FCE08FCFAA
:102F400080E490E0EEEFFBE08ACF8091400A882396
:102F500009F466CF853009F463CF8091E80083FDE2
:102F60005FCF8091E80082FD8ECF8091E80080FFE6
:102F700084CF9091F3008091F2002115310519F072
:102F80008830910550F041E0089709F040E08091C9
:102F9000E8008E778093E80070CF44914093F10071
:102FA0003196215031090196E8CF803809F044C0AC
:102FB0008091E800877F8093E8008091410A8093A8
:102FC000F1009ECE811138C01091440A1230A0F554
:102FD0008091E800877F8093E8001093410A0E9467
:102FE000ED06112311F084E005C08091E30087FD18
:102FF000FACF81E08093400A42E061EC81E00E94D8
:103000000C0742E261EC82E00E940C078091400ACA
:1030100013C08091440A813079F481E0933009F043
:1030200080E080933F0A1092E9008091E800877F5A
:103030008093E8000E94ED068091E80083FF0AC0BB
:103040008091E800877F8093E8008091EB008062A8
:103050008093EB00AA96E3E00C94CB2C0E945615CB
:103060002FEF84E39CE0215080409040E1F700C0C6
:10307000000088E19AE00FB6F894A895809360006C
:103080000FBE90936000FFCFB0E0A0E0EAE4F8E16B
:103090000C94A92C8C01FC0183819481892B31F043
:1030A0008081918189238F3F09F0BFC5CDB7DEB7FD
:1030B000E9E00C94C52CF801828181110BC0C43564
:1030C000FCE7DF0709F46CC040F5C3353CE7D307E4
:1030D00009F445C080914C09C5302EE7D20709F4A8
:1030E00038C108F000C1CC32D10509F41DC1C4308B
:1030F0009EE7D90709F424C1C337FCE7DF0709F0CD
:1031000053C1F80182818823C9F18091B6098823CF
:1031100009F447C10E94D90E31C0C6358CE7D807E3
:1031200009F44CC0C7359CE7D907A1F6C09000014F
:10313000D0900101E0908609F09087090E94561511
:1031400090E080E00E943A0CC8ECD8E0CC16DD0696
:1031500009F447C0CE010E9444182897F7CF0E9477
:10316000561590E080E00E943A0C80ED94E0909338
:10317000D1088093D00881E08093D20880914309E0
:10318000877009F493CFF8018281882309F48ECFE8
:103190008091890982FF8ACF82E00E94510C86CFFC
:1031A0000E94561590E080E00E943A0C88EC98E06E
:1031B0009093D1088093D00882E0DECFC0900201C6
:1031C000D0900301E0908609F09087090E9456157F
:1031D00090E080E00E943A0CC0EDD4E0CC16DD0611
:1031E00031F40E945615C7010E943A0CC7CFCE0198
:1031F0000E9444182896F2CF8091D0089091D1086F
:10320000F4E0803D9F0729F0FC01389722812111CD
:1032100005C0909303018093020128C5CF01F0CF30
:103220008091D0089091D10828E0883C920729F03D
:10323000FC0138962281211105C0909301018093F1
:10324000000114C5CF01F0CF813031F1823009F097
:1032500041CF2091020130910301A091D008B0919B
:10326000D108F8018281811105C0F8E0A83CBF07B0
:1032700009F430CFCD0108962817390709F42ACF71
:1032800088E0F80101900D928A95E1F78091D008CD
:103290009091D108089722C020910001309101013E
:1032A000A091D008B091D108F8018281811105C0A8
:1032B000F4E0A03DBF0709F40DCFCD010897281712
:1032C000390709F407CF88E0F80101900D928A953B
:1032D000E1F78091D0089091D10808969093D10899
:1032E0008093D008F7CEC730EEE7DE0709F441C07F
:1032F000C8F1C8302EE7D20709F0FECEF80192815E
:10330000992309F451C063EE7EE080E392E00E94CD
:10331000C90D80E30E94580F80E30E94FE0E6EEC00
:103320007EE080E392E039C0982F9272E9F1F801D3
:103330008281882309F422CF8DE20E94EF0F1ECFF5
:10334000F8018281882309F419CF82E00E94510C90
:1033500015CFF8019281992339F18EE794E00E940C
:10336000F4140CCFF80192819923F1F08DE794E0E9
:10337000F6CFF80192819923B9F063EE7EE08FE2F7
:1033800092E00E94C90D8FE20E94580F8FE20E94C6
:10339000FE0E6EEC7EE08FE292E00E94C90D88E2A4
:1033A000CCCF0E94250BEACEF090B309F82A809189
:1033B000B609811110C0F2E2FF1202C00E94250B73
:1033C000FE01E851FC47E730F10508F053C0ED512C
:1033D000F24D0C94EB2C0E94150888579C4E90934C
:1033E000B5098093B409F8018281882349F38F2DB0
:1033F0008D7909F070C0C034F2E5DF0768F5C115BA
:1034000022E5D207B8F5C11530E4D30750F4C11551
:1034100080E2D80708F053C0C63ED10559F1CE016D
:103420000AC0C11590E5D907D0F7F8018581807FE2
:1034300039F2CE0199271092B9098832910508F026
:1034400055C08E31910508F058C0049708F443C068
:1034500082E08093B90951C0C43BE2E5DE0751F038
:10346000CE01C53BF2E5DF0720F58056924580345A
:103470009105A8F6F8018281882309F40EC4109200
:103480004C0ACE019057839708F0F3C384E090E094
:103490000E940D2D9093890980938809FE01E150C7
:1034A000F047E232F10508F050C0E651F24D0C94BD
:1034B000EB2C805C9245809708F0B1CFDBCFF80110
:1034C0008581807F09F0B5CF8D2F8F71823159F0C2
:1034D00028F4823041F00E94D90E72CF843109F471
:1034E0006FCF8631C1F71092B909F5CF8D329105B2
:1034F00009F4AECF28F48A9771F70E94910E60CF3D
:103500008C349105D1F38D329240B9F3E4CF26E2A9
:1035100041EE61EEC8010E940D1030CE27E245EE6B
:1035200065EEF8CF26E241EE60EEF4CF27E245EEFD
:1035300064EEF0CF26E241EE62EEECCF27E245EEFC
:1035400066EEE8CF28E241E0EBCF80918809816008
:103550008093880995C08091890988608093890942
:103560008FC0809188098260F3CF80918809846040
:10357000EFCF809188098860EBCF809189098160C5
:10358000EDCF809189098260E9CF809188098061BF
:10359000DFCF809188098062DBCF809188098064C9
:1035A000D7CF0E945615809188098068D1CF80912D
:1035B00088098C60CDCF809189098360CFCF8091BD
:1035C00088098E7FC5CF80918909877FC7CF809179
:1035D00088098D7FBDCF809188098B7FB9CF80917D
:1035E0008809877FB5CF809189098E7FB7CF809179
:1035F00089098D7FB3CF809188098F7EA9CF809173
:1036000088098F7DA5CF809188098F7BA1CF0E94EB
:103610005615809188098F779BCF80918809837F89
:1036200097CF809189098C7F99CF8091880982FBFF
:10363000992790F921E0922790FB82F990FB83F97A
:1036400087CF80918909982F909591708E7F892BD3
:1036500090FB81F983CF90918809892F8F7B96FF0A
:10366000806476CF0E94561590918809892F97FB28
:1036700087F980586DCF61E08EE090E00E94132DB5
:10368000609188097091890984E090E00E94312D51
:103690000E94561573CD60E0EFCF90918809892F75
:1036A0008F7E94FF806154CF90918809892F8E7FFF
:1036B00090FF81604DCF90918909892F877F93FF7B
:1036C00088604CCF85E3E4C285E3F0C20E945615C2
:1036D000FFEF24E33CE0F15020403040E1F700C030
:1036E000000087E797E7909301088093000888E13E
:1036F0009AE00FB6F894A895809360000FBE90935F
:103700006000FFCF6FEF7FEF90E080E00E94312DEF
:103710000E942E188091890982FB882780F991E008
:1037200089270E943F15F801868197810097B9F19A
:103730000E949009D82FC92FF801C280B580B29499
:103740003FE0B322809143098770C1F0EC2CCC207C
:10375000B1F0892F807F803421F080E28D0F883096
:1037600068F08091890982FF09C082E00E94510CB3
:10377000809143098770EE24E3948111E12CDC2EC3
:10378000D2942FE0D222FBE0FD1508F486C0ED2D87
:10379000F0E0E45FF14D0C94EB2C80E0C2CF82812D
:1037A000C081D181882369F0CE010E94900BF82E50
:1037B000682FCE010E94040CBE018F2D0E94730958
:1037C000B7CFCE010E94D10BF82EF6CF2C2F2F7041
:1037D000F22EC07F19F0F29490EFF922CC20B9F0CC
:1037E000FF2069F080E28D0F883010F0D11109C000
:1037F0008091B309F82AF092B3090E94910E8D2F9F
:103800004AC08091B909F82AF092B909F6CF8D2FF4
:103810000E94FE0EFF2009F440C080E28D0F883028
:1038200010F0D11104C08F2D0E94390B06C0F09406
:103830008091B909F822F092B9090E94910E2DC029
:103840003C2F3F70F32EC07FC03219F0F29480EF0E
:10385000F822DD2381F0D13009F494C0CC2009F4A2
:103860009EC0BB2009F494C0F801858180FFC7CFBA
:103870008F7085838DC08091890982FD37C0CC20EF
:1038800079F1FF2039F08091B309F82AF092B30959
:103890000E94910E80E00E94580FED2DE850FF0B22
:1038A000349710F40E94800EEE20A9F08091430915
:1038B00080FD11C0F80112828595859585950E943D
:1038C0006D0CC8010E944418809143098595859527
:1038D00085950E943F0C60E0C8010E94990DE6CBDF
:1038E00080E00E94FE0EFF20C1F29DCFCC2031F17E
:1038F000B11006C080914C098F290E94F40ECDCFE3
:1039000091E0B9120AC082FFC8CF80914C09F82A11
:10391000F81619F2F0924C09C0CFE2E0BE12EACFDD
:103920008F2D0E94F40E0E941F0B8091D408F82A5C
:10393000F81609F4B2CFF092D408AFCFB11006C098
:103940000E941F0B8F2D0E94ED0EA7CFF1E0BF123A
:103950000FC08091B3098F2109F49FCF8F2D0E9452
:10396000ED0E0E941F0B8091D408F094F822E0CF56
:1039700022E0B21609F491CF8F2D0E94ED0E0E9425
:103980001F0B8BCFCC2031F032E03B1508F485CFF4
:103990008F2DB3CF81E08B1508F47FCFD3CFBB2021
:1039A00089F2D93349F4FFEF27EE33E0F15020409C
:1039B0003040E1F700C000008D2F0E94FE0E6DCF59
:1039C0008C2F86958695837069F0813009F065CFDC
:1039D0008D2F9C2F9370C11002C080E090E00E9458
:1039E00021085BCF8D2F9C2F9370C11002C080E007
:1039F00090E00E94460851CF6C2D8D2F0E94C10C83
:103A00004CCF8C2F837009F03FC0C11046CF4D2F93
:103A1000429546954770440F440F2D2F2F7030E08C
:103A2000042E02C0220F331F0A94E2F790E080E0D8
:103A3000D4FF09C08FE090E002C0880F991F4A951B
:103A4000E2F780959095C695C695C370C23099F0FF
:103A500078F44091840950918509C13039F0822B66
:103A6000932B842395230E948B0C17CF242B352B6B
:103A7000822B932BF8CF822B932B209184093091AA
:103A8000850982279327EFCF8695CC2011F08C2FC4
:103A90008170882309F401CF4D2F429546954770D8
:103AA000440F440F2D2F2F7030E0042E02C0220F40
:103AB000331F0A94E2F790E080E0D4FF09C08FE062
:103AC00090E002C0880F991F4A95E2F78095909583
:103AD000C695C695C370C23099F078F440918609B6
:103AE00050918709C13039F0822B932B8423952381
:103AF0000E943A0CD2CE242B352B822B932BF8CF5D
:103B0000822B932B20918609309187098227932756
:103B1000EFCFCF70CC2029F08C2F0E946D0C8D2F11
:103B2000ECCE8D2F0E94ED0E8C2F0E943F0CB5CE57
:103B3000D23F71F160F4D03FB9F0D13F81F0CC2099
:103B400009F463C0B1105BCE8C2F8F7125C0D33FB9
:103B500031F1D43FA1F78091890982FD2EC08C2FCD
:103B60008F71CC2011F318C0CC2069F081E08B1547
:103B700008F493CECF7181E090E002C0880F991FC6
:103B8000CA95E2F7BFCF92E09B1508F486CEF2CF3C
:103B90008C2F8F71C110C9CF0E946D0C7ECE90E02A
:103BA00080E0CC2009F4A4CFCF7181E090E002C086
:103BB000880F991FCA95E2F79BCFCC20C9F080915E
:103BC00043098770843041F4109243098C2F8F7120
:103BD0000E943F0CE12C61CEE1E0EB15D8F3CF71F0
:103BE0008C2F0E946D0C63E08C2F0E947D0CF2CF15
:103BF000F1E0FB1530F41092430964E08C2F8F71D3
:103C0000F4CF81E00E94510CE5CFBB2059F0D933AD
:103C100009F0D2CE2FEF37EE83E0215030408040C4
:103C2000E1F7C8CE8C2F8F7180CF61E0C8010E9470
:103C3000990DEC018091D208882309F43CCA9E01B9
:103C400023553C472330310508F0FECA91E0C535C5
:103C5000DC4709F490E0F8012281291709F48ECAA3
:103C6000813009F4C9CA823009F4DACA1092D20844
:103C700085CAC631FCE7DF07E1F48091B3098A7A8F
:103C800091E009F490E09093D30881111BCD89E273
:103C90000E944D0B0E94910E71CAC631DC4709F09B
:103CA00042CD8091D30881110FCD89E20E94400B53
:103CB000F1CFC3303CE7D30709F424CD50F4C1154C
:103CC0009CE7D90709F402CDC130DC4709F420CDC7
:103CD0002ACDCB35FCE7DF0709F45FCDCC352CE7E7
:103CE000D20709F417CDCA35DC4709F01CCD81E0B5
:103CF00018CDCF93DF938091FE08807F09F049C0F3
:103D00008091FB08882309F444C080914209D09136
:103D100001096091F9087091FA08A091FC08B0912E
:103D2000FD08C62FC723D817A1F190E0109711F016
:103D3000CF3F19F401968770F6CF9C0143E0220F24
:103D4000331F4A95E1F7F901EE5FF64F41814713C2
:103D5000F1CF40814613EECF42814111EBCF438139
:103D600054814A1B5B0B483C510520F78091FE08AB
:103D70008F7080618093FE08F901E95FF64F8081C2
:103D80008F708061808389EF98E00E9444180E94C0
:103D9000860BDF91CF910895A5E1B0E0E2EDFEE161
:103DA0000C94A62C8C0185E0F801DE01519601905F
:103DB0000D928A95E1F7D8011296EC90129789EF4F
:103DC000882E88E0982E4091FC085091FD084115FE
:103DD000510509F465C19091F9082091FA08892FDD
:103DE00082238F3F09F45CC1DC901196CC9011972F
:103DF0001396AD90BC901497F090FB08F501E41B6E
:103E0000F50BFF2009F415C18091FE08382F307F93
:103E1000E83CF10508F0D2C0311181C0FE2C2C1114
:103E20001FC09D111DC04091FF08509100091696BA
:103E30002D913C914217530799F4E11011C08F70F6
:103E400080618093FE08C4010E9444188091FE089E
:103E5000D80115968C938F2D6596ECE00C94C22CAE
:103E6000A114B10429F08D2D8C218F3F09F036C1AA
:103E700080E080FF14C04E2D6C2D8D2D0E94660BAE
:103E8000882369F089EF98E00E94441888E0E9EF00
:103E9000F8E0DF011D928A95E9F7F12CDCCFA1143F
:103EA000B10429F08D2D8C218F3F09F014C180E0E1
:103EB000B82FB170AB2E80FF29C04E2D6C2D8D2DEB
:103EC0000E94660BB82E811121C0D98ACA8A8989BD
:103ED0009A890E94C40B292F22952F70223050F00E
:103EE000243078F49F7051F0F8019581907F31F47F
:103EF000FB2CB1CF9F7011F08823D1F3805E883006
:103F0000B8F3C8010E944418BA2CF2CFEE2009F48D
:103F1000A2CF8091FE0881608093FE08BECF2C1155
:103F20001DC09D111BC04091FF08509100091696BD
:103F30002D913C9117974217530781F4E1100EC061
:103F400015968C93C8010E94441888E0F801A9EFE7
:103F5000B8E001900D928A95E1F77DCFC8010E94EB
:103F6000900C882339F1EE2029F18091FE088032EF
:103F7000A0F02091F9083091FA083A8729871B862A
:103F8000BD86AC868E878091FF0890910009988B42
:103F90008F87CE0109960E94441888E0F801A9EFA6
:103FA000B8E001900D928A95E1F70E94791EFF24F6
:103FB000F39451CFC8010E944418F9CF332309F478
:103FC00061CF2C1118C09D1116C04091FF0850916F
:103FD0000009F801268137814217530761F4E11087
:103FE0000AC08583C8010E94441888E0D4011D924C
:103FF0008A95E9F730CFC8010E94900C8823D1F24E
:10400000EE20C1F28091FE08803238F22091F9084A
:104010003091FA083A8329831B82BD82AC828E8359
:104020008091FF089091000998878F83CE010196B7
:10403000B2CFE83CF105C8F6FE2CEE2009F4BACF69
:104040002C1120C09D111EC02091FF083091000945
:10405000F8018681978128173907A1F49091FE080D
:1040600090FD73CF907F09F470CF8091FE08858317
:10407000903F09F467CF982F907F905F8F70892BC6
:10408000858360CFC8010E94900C811186CF8091FA
:10409000FE0881608093FE08C8010E944418DBCEB0
:1040A000EE2009F487CFC8010E94900CF82E8823D7
:1040B00009F480CF88E0F801A9EFB8E001900D92F3
:1040C0008A95E1F78091F9089091FA080E94C40B53
:1040D0000E94791EC0CE81E08E25EACE81E08E2539
:1040E000C8CEA0E1B0E0E7E7F0E20C94B02C29875D
:1040F0003A874B875C876D877E878F87988BCE0149
:1041000009960E94CC1E811112C088E0FE013996EA
:10411000DE01119601900D928A95E1F78C859D85BF
:10412000892B29F089859A8589238F3F81F5809194
:10413000420990910109891317C06096E2E00C943E
:10414000CC2C93E0AA0FBB1F9A95E1F7AE5FB64F58
:1041500098E0FE01319601900D929A95E1F78093D7
:1041600001090E94860BE3CFB8E08B9FC0011124A8
:104170008E5F964F0E94CC1E8823F9F280914209EF
:1041800090E001968770992780934209D0CFA09143
:104190000109B0E0CD01019687709927209142096D
:1041A0002817190671F60E945615109201091092EF
:1041B000420988E0E9EFF8E0DF011D928A95E9F70E
:1041C000B6CF0F931F93CF93DF938091BB09E091FC
:1041D000BA091CE081111AC0DF91CF911F910F9194
:1041E000089501E00E0F0093BA09CE2FD0E0E19FB1
:1041F000F0011124E454F64F83819481892B29F036
:104200008081918189238F3FF9F4E02F8091BB0950
:10421000E81738F31092BB091092BA09DDCF18964F
:104220008D919C918F3F9807E1F061E00E942411ED
:104230001C9FF0011D9FF00D1124E454F64F1482D1
:1042400013821092B909E1CF1C9FD0011D9FB00DC0
:104250001124A454B64F16968D919C911797892BD3
:10426000F1F220813181428153816481758186819F
:1042700097810E947120DCCF1092270A1092260AA3
:1042800010927B048091250A8093240A0E94990849
:104290000E94E1200895B0E0A0E0E1E5F1E20C9495
:1042A000A02CC091240AE7E0FE2E01E010E0FCE023
:1042B0002F2EAEEFEA2E8091250A8C1309C00E94A2
:1042C000E1200E949908CDB7DEB7E2E10C94BC2C46
:1042D000D0E0FE01EE0FFF1FE45EF54F808191817B
:1042E000F89EF001F99EF00D1124EB5DFE4F248144
:1042F000211159C03090BB09ACEBB9E030E020E0AF
:10430000412C5F01231508F04CC01A966D907C90EB
:104310001B97F501808091804FEF5FEF512CC52CEA
:10432000D12CF601EE0FFF1FE80DF91D6591749178
:104330006616770609F4A601672B11F05394EFCFA8
:104340004F3F5407B9F1B80102C0660F771F4A9575
:10435000E2F7462AA801052C02C0440F551F0A9413
:10436000E2F7415051094416150601F5229EF0016D
:10437000239EF00D1124E454F64FF89ED001F99ECF
:10438000B00D1124AB5DBE4F12962D913C91139749
:1043900037832683E082E1829187808771E01596DA
:1043A0007C930E946B082196C37085CF14961C9253
:1043B0001E9213972F5F3F4F1C96A4CFA9E1B0E048
:1043C000E4EEF1E20C94A02C498B5A8B6B8B7C8B26
:1043D0008D8B61111092B9091D861E861F86188A61
:1043E00085E0FE017196DE01199601900D928A9585
:1043F000E1F78C859D85892B31F089859A85892304
:104400008F3F09F0C4C129853A854B855C856D8550
:104410007E858F8598890E947120C2C021E5A216F1
:104420002CE7B20629F4882379F00E943C21EBCFD7
:1044300032E5A3163CE7B30639F4882329F08091CE
:104440007B048111F2CFB3C105E211E0E12CD12C44
:10445000C12C88248394912C9EEF592E442443949C
:10446000F8016081718166246A94762C20E0422FE5
:1044700050E0FA01EE0FFF1FE60FF71F85919491B0
:10448000A816B90609F43A01892B11F02F5FEFCF76
:10449000F12CFFEF6F167F0609F444C0F801448148
:1044A000F0907B048F2D411180E0F82FF170FF2EEA
:1044B000F801258086819B85992309F4F2C0FF20AD
:1044C00009F4EFC0211014C0A401062C01C0440F50
:1044D0000A94EAF7842B86838091B7099091B809F2
:1044E000C29730F442E350E05093B8094093B709C3
:1044F000C40102C0880F991F2A95E2F70197F801BD
:1045000026812817190671F48091260A9091270AAE
:10451000009709F449C00E94FA07C39708F444C001
:10452000F8014482EF28FFEFCF1ADF0A095F1F4F1F
:104530002AE7C216D10409F093CF8B85882309F4AA
:1045400011C1EE2009F40EC10E9415089093270AAC
:104550008093260A8091BB09883010F591E0980F6E
:104560009093BB0998E0FE013996DE011196019007
:104570000D929A95E1F73CE0839FC0011124845489
:10458000964F28E0FE013196DC0101900D922A95AC
:10459000E1F72FEF3FEFFC0131872087B386A2863A
:1045A0006996E2E10C94BC2C8091240A6090250A63
:1045B000982FF0E0E0E0861114C09093240A0E17C3
:1045C0001F0709F4AFCF90E0FC01EE0FFF1FE45E80
:1045D000F54FD182C0820196837099278093250A76
:1045E000A1CF282E312CF101EE0FFF1FE45EF54F15
:1045F00020813181F7E0F29FD001F39FB00D1124AB
:10460000AB5DBE4F2D913C911197398F288F712C46
:1046100060E070E0E72FF0E0EE0FFF1F288D398D8E
:10462000E20FF31F2591349121153105E1F0F801D6
:104630000190F081E02DFF8BEE8B60E005C0241728
:10464000350709F47F2C6F5FE62FF0E0EE0FFF1FB8
:104650004E895F89E40FF51F45915491411551052D
:1046600071F77F5FD7CF7720C9F0F801671708F09F
:10467000FD0144820E171F0721F49093240AF72CA2
:1046800051CF981305C0AE17BF0711F49F5F937009
:1046900091012F5F3F4F822F83708DCFF0E0E0E0DC
:1046A000F7CF90E0211020C0B40102C0660F771F41
:1046B0002A95E2F79B01215031092817390731F477
:1046C000442309F44DC0C6010E946B08C401062CA6
:1046D00001C0880F0A94EAF7982F9095F801868117
:1046E00089238683F22C1ECF9C01062C02C03595AF
:1046F00027950A94E2F7A90141705527BC01615042
:10470000710986239723892B39F5452B29F1F80167
:1047100082819381892BD9F01B821C821D821E828B
:1047200059825A820E9415088160582F9D838C837C
:10473000F801828193818F83988729813A814B8107
:104740006D817E810E947120F8011582BFCF60E0EB
:10475000C6010E942411F8CFF22FF1702F2EB6CF90
:104760002F2CB4CF9091240A8091250A981731F00C
:104770000E944B21EE2009F446CE12CF0E94E12088
:104780001092270A1092260A0E949908F3CF61E03E
:10479000CE0109960E94990D5C018B85F0E5AF165C
:1047A000FCE7BF0609F03ACE882309F44DCE81E03C
:1047B00080937B0428CEA4E0B0E0E1EEF3E20C9419
:1047C000AE2C40916D0950916E0960916F09709106
:1047D00070092FB7F89480912F0A9091300AA09118
:1047E000310AB091320A2FBF841B950BA60BB70B71
:1047F00011E084369105A105B10590F10E945D0E8E
:10480000882399F10E9409086E5F7F4F8F4F9F4F59
:1048100069837A838B839C83809115019091160123
:104820008E59964F4091140150E04530510510F0DB
:1048300044E050E0BE016F5F7F4F0E94542D82E044
:1048400090E00E942A2C182F882351F00E9409081A
:1048500060936D0970936E0980936F09909370094E
:10486000812F2496E4E00C94CA2C0E940908009140
:104870007209109173092091740930917509600FC4
:10488000711F821F931FC0CFEF92FF921F93CF9390
:10489000DF9300D000D000D00F92CDB7DEB77B0100
:1048A00090E080E00E942A2C182F882309F480C011
:1048B0004091070150E04115510511F041E050E0F1
:1048C00060910801709109016E59764FCE010796EB
:1048D0000E94542D40915E0950915F0960916009DA
:1048E000709161092FB7F89480912F0A9091300A46
:1048F000A091310AB091320A2FBF841B950BA60BF1
:10490000B70B84369105A105B10540F483E699E023
:104910000E9486069F81891709F44AC081E090E0D1
:104920000E942A2C811116C010E086E0E8E5F9E02B
:10493000D70101900D928A95E1F7812F27960FB646
:10494000F894DEBF0FBECDBFDF91CF911F91FF90D6
:10495000EF90089540910F0150E04730510510F05D
:1049600046E050E060911001709111016E59764F50
:10497000CE0101960E94542D83E699E00E9486069E
:104980009F818913D1CF0E94090860935E097093BB
:104990005F09809360099093610986E0FE0131967A
:1049A000A8E5B9E001900D928A95E1F711E0BDCF3D
:1049B00086E0E3E6F9E0DE01119601900D928A951A
:1049C000E1F71111EACFB1CFA2E1B0E0EAEEF4E2F3
:1049D0000C94A52C8E010F5F1F4F8CE0D8011D9207
:1049E0008A95E9F789EBC82E84E0D82EF12CE12CCA
:1049F000AA24A394B12C25EC822E24E0922EF60159
:104A000081916F018F3F09F442C0F894E82FE2953D
:104A1000EF70F0E021A18F70A50102C0440F551F77
:104A20008A95E2F7CA01922F982B91A392A18095C3
:104A3000892382A3789400C0EFEBF4E0712C31E07D
:104A400021912F3F09F46BC0A22FA295AF70B0E067
:104A500090968C9190E02F7002C0959587952A953D
:104A6000E2F780FD5CC0832F782A330F8E169F06F5
:104A700039F7F601319780818F3F11F00E941909B3
:104A800050EA5A95F1F7F801EE0DFF1D70828FEF95
:104A9000E81AF80AA6E0EA16F10409F0B0CF4CE0F3
:104AA00050E0B80186E799E00E94472D009741F059
:104AB0002CE0F801A6E7B9E001900D922A95E1F704
:104AC00000918309892B69F181E080934F090E944D
:104AD000150890934E0980934D0980914D0990914E
:104AE0004E090E94FA07059700F110E00457164F8F
:104AF00046E050E066E779E0C8010E94472DB12CFE
:104B0000892B51F086E0E6E7F9E0D80101900D929B
:104B10008A95E1F7BB24B39410924F0907C080E057
:104B2000A3CF80914F098111D8CFB12C0E945D0E87
:104B3000F82EE0918309882309F46DC06E01BDE071
:104B4000CB0ED11C86E0D6011D928A95E9F70E2F77
:104B500010E00457164F809171098A3050F544E4F3
:104B600054E2B601C8010E942A0E882309F442C00B
:104B70004BED53E2B601C8010E942A0E8823D1F101
:104B8000109271098091820990E046E050E0B601F0
:104B90008457964F0E94472D21E020935609892B78
:104BA000E1F4F12C1F2D812F8B296296EDE00C94FE
:104BB000C12C80915009909151090E94FA07843FBD
:104BC000914068F680915609882359F386E0F601F2
:104BD00011928A95E9F710925609A0918209B0E0E6
:104BE000A457B64F86E0FE013D9601900D928A953E
:104BF000E1F7D8CF809171098F3F31F08F5F8093BB
:104C000071098A3008F4BECF0E94150890935109AB
:104C100080935009D7CFF0E0E457F64F86E0A3E643
:104C2000B9E001900D928A95E1F783E699E00E9440
:104C3000860680936209C0906909D0906A09E09065
:104C40006B09F0906C098091520990915309A091E1
:104C50005409B0915509C816D906EA06FB0611F4A5
:104C600010E0A1CFC0925209D0925309E0925409AA
:104C7000F09255090E945D0E182F8111F1CF0E940C
:104C80000908C61AD70AE80AF90AC0927209D0922E
:104C90007309E0927409F092750985CF1F920F9203
:104CA0000FB60F9211242F933F934F935F936F93FF
:104CB0007F938F939F93AF93BF93CF93DF93EF93A4
:104CC000FF93D091E900DF708091EC00C82FC17094
:104CD00080FDC0E81092E9008091F000877F80930A
:104CE000F00078940E947D151092E9008091F00008
:104CF00088608093F000CD2BCF70C093E900FF91C6
:104D0000EF91DF91CF91BF91AF919F918F917F9163
:104D10006F915F914F913F912F910F900FBE0F9028
:104D20001F9018951F920F920FB60F9211242F9378
:104D30003F934F935F936F937F938F939F93AF9323
:104D4000BF93EF93FF938091E10082FF09C08091B0
:104D5000E20082FF05C08091E1008B7F8093E1003B
:104D60008091DA0080FF24C08091D80080FF20C0AD
:104D70008091DA008E7F8093DA008091D90080FFE5
:104D80009DC080E189BD82E189BD09B400FEFDCFEF
:104D900081E08093400A8091330A811109C00E940A
:104DA0009D060E943E078091E20084608093E200AD
:104DB0008091E10080FF17C08091E20080FF13C066
:104DC0008091E2008E7F8093E2008091E20080611A
:104DD0008093E2008091D80080628093D80019BC53
:104DE00085E08093400A8091E10084FF2BC0809190
:104DF000E20084FF27C080E189BD82E189BD89B5D9
:104E0000982F917080FFFBCF8091D8008F7D809389
:104E1000D8008091E1008F7E8093E1008091E200D4
:104E20008F7E8093E2008091E20081608093E200B7
:104E30008091410A882309F447C084E08093400AA6
:104E40008091400A8091E10083FF27C08091E200B9
:104E500083FF23C08091E100877F8093E10082E09F
:104E60008093400A1092410A8091E1008E7F8093E6
:104E7000E1008091E2008E7F8093E2008091E20069
:104E800080618093E20042E060E080E00E940C07D5
:104E90008091F00088608093F000FF91EF91BF91C6
:104EA000AF919F918F917F916F915F914F913F91C2
:104EB0002F910F900FBE0F901F90189519BC109254
:104EC000400A1092330A74CF8091E30087FD93E08B
:104ED0009093400AB5CF78941F921FB61F92112469
:104EE0008F939F93AF93BF9380912F0A9091300A35
:104EF000A091310AB091320A0196A11DB11D809393
:104F00002F0A9093300AA093310AB093320ABF91CE
:104F1000AF919F918F911F901FBE1F9018951F9268
:104F20001FB61F9211248F939F93AF93BF938091CD
:104F30002E0A811113C080912F0A9091300AA091FE
:104F4000310AB091320A4196A11DB11D80932F0AFA
:104F50009093300AA093310AB093320ABF91AF9177
:104F60009F918F911F901FBE1F901895CDB7DEB7F0
:104F700060970FB6F894DEBF0FBECDBF85B78068CF
:104F800085BF85B7806885BF84B7877F84BF0FB62C
:104F9000F894A895809160008861809360001092D9
:104FA00060000FBE80E890E00FB6F8948093610037
:104FB000909361000FBE87E199E09093C7048093BE
:104FC000C6040E949D060E943E078091E200846014
:104FD0008093E20078948091400A8823A1F0109198
:104FE000E9001F709091EC00892F817090FD80E89E
:104FF000182B1092E9008091E80083FD0E947D1536
:105000001F701093E90082E084BD93E095BD9AEF94
:1050100097BD80936E0010927209109273091092DE
:105020007409109275090E945D0E80931C010E9404
:105030005D0E81110E943E2B80911C0180911C010C
:1050400096E0811190E09093830986E0891B80931C
:10505000820909EB14E07FEBE72E74E0F72ED8010C
:105060008D918D018F3F11F00E941909E016F10614
:10507000B1F70FEB14E065ECE62E64E0F62EF801D4
:1050800081918F018F3F11F00E941909E016F106FE
:10509000B1F78CE0ECE8F9E0DF01282F1D922A95AA
:1050A000E9F7E6E7F9E0DF011D928A95E9F790E07C
:1050B00080E00E940D2D873E9E4F09F45EC067EE92
:1050C0007EEF90E080E00E94312D60E082E090E091
:1050D0000E94132D60E083E090E00E94132D109257
:1050E00085091092840960E074E184E090E00E94F8
:1050F000312D60E086E090E00E94132D6FEF87E095
:1051000090E00E94132D40E050E0BA0188E090E06A
:105110000E94252D60E08DE090E00E94132D40E07C
:1051200050E0BA0188E190E00E94252D60E087E11F
:1051300090E00E94132D40E050E0BA018CE190E035
:105140000E94252D70E060E080E290E00E94312D09
:1051500040E050E0BA0188E190E00E94252D40E057
:1051600050E0BA018FE090E00E94252D40E050E031
:10517000BA0183E190E00E94252D82E090E00E9438
:10518000052D8093980984E090E00E940D2D909366
:1051900089098093880983E090E00E94052D90E0C2
:1051A0000E948B0C0E945D0E811102C00E94412B57
:1051B0008DE191E090932B0A80932A0A08E110E098
:1051C00040E4D42E58E9E52E59E0F52E30E1C32E07
:1051D0008091400A22E1B22E853009F480C00E94FD
:1051E000E42489E9A82E89E0B82E9CE8892E99E06C
:1051F000992ED401F50191918D9129E0E53AF207BC
:1052000009F477C09817B9F30E945D0E282E712C0F
:10521000D4016D904D01F50131905F01361429F1F3
:105220003624512C44244394842D8321B1F0222030
:10523000A1F05C867D8691E0842D862109F490E0C2
:105240009E870E9415088160782F988B8F874C85E8
:105250005D856E8588890E94DE215394440CF6E0BA
:105260005F12E2CFF5013197608273942CE07212E5
:10527000CFCF0E9409085DC08091400A843009F1B7
:1052800010922E0A0FB6F894A895009360000FBEF6
:10529000D092600083B7817F846083BF83B78160D1
:1052A00083BF7894889583B78E7F83BF0FB6F894B9
:1052B000A8958091600088618093600010926000E2
:1052C0000FBE80913F0A882351F00E94E424ECE84D
:1052D000F9E0819181115CC1EE16FF06D1F7809152
:1052E000400A853009F4C8CF0E9456150E94800EEE
:1052F00076CF981389CF0E9415085C0180918A09A6
:1053000090918B09A816B906A1F08FEF8F8388873B
:1053100019860E9415088160782F9B878A874F81A4
:10532000588569858B850E94DE21B0928B09A092F9
:105330008A090E945D0E8823A9F180917B0488234D
:1053400001F18091260A9091270A0097D1F00E94DE
:10535000FA072091B7093091B8092817390788F45E
:105360009091240A8091250A981709F4F8C00E94A8
:105370004B211092B8091092B7091092270A109287
:10538000260A8091B609882369F00E9415082091A9
:10539000B4093091B509821B930B8F3F9F4710F4DE
:1053A0000E94D90E86E0EDEAF9E0DE011196019047
:1053B0000D928A95E1F71092AF091092B009109200
:1053C000B1091092B2098B819C81892B09F44AC0E2
:1053D0008091AB099091AC090E94FA079C019091D1
:1053E000A609992309F4EEC025313105D8F19F3F74
:1053F00019F09F5F9093A609BB80BB2059F00E94D3
:10540000F3089FEF1B140CF491E0899F802D112469
:105410008093AF09BC80BB2059F00E94F3089FEF36
:105420001B140CF491E0899F802D11248093B00906
:105430003091AF093323B1F02091B009222391F0CC
:1054400045EB3403C0011124992309F491C09093D2
:10545000AF0945EB240390011124332309F48CC0D8
:105460003093B0098D819E81892B09F44AC08091C7
:10547000A9099091AA090E94FA079C019091A70995
:10548000992309F49BC021353105D8F19F3F19F0CC
:105490009F5F9093A709BD80BB2059F00E94D1085F
:1054A0009FEF1B140CF491E0899F802D11248093B1
:1054B000B109BE80BB2059F00E94D1089FEF1B1498
:1054C0000CF491E0899F802D11248093B2093091D2
:1054D000B1093323B1F02091B209222391F045EBB9
:1054E0003403C0011124992309F44AC09093B109EF
:1054F00045EB240390011124332309F445C0309374
:10550000B20946E050E0BE016F5F7F4F8DEA99E03F
:105510000E94472D892B61F48091AF099091B009C9
:10552000892B9091B109892B9091B209892B11F0A7
:105530000E94AA0886E0FE013196ADEAB9E001902A
:105540000D928A95E1F70E94800E9091A509891726
:1055500009F43ECE8093A5090E94090837CE0E9427
:10556000E1201092270A1092260A0E94990809CF7A
:1055700081E08093AF096DCF81E08093B00972CF55
:1055800081E08093B109B4CF81E08093B209B9CFB3
:10559000C9BCB9BC09B400FEFDCF8091D8008F7D95
:1055A0008093D8008091E00082608093E000809139
:1055B000E00081FDFCCF0E94561591CE232B09F00F
:1055C00067CF9FCF232B09F014CF4CCF8EE1489BA0
:1055D00002C08150E1F7489BFECF0895589880E2C1
:1055E0008A95F1F7589A0895FC013BE03A95F1F756
:1055F00098E020E080E031E040E14A95F1F7880F43
:10560000489B02C08160232742E04A95F1F70000E1
:1056100040E14A95F1F7915079F790E19A95F1F7C9
:1056200099B132E03A95F1F7000040E14A95F1F77F
:10563000917092272081920F90830895A1E0B0E0AD
:10564000E4E2FBE20C94AC2C19828C017C01E60EA6
:10565000F11C0E151F0541F481E09981911180E044
:105660002196E6E00C94C82C0E94E62ACE01019611
:105670000E94F42AF80181938F01EBCF509A589A37
:1056800008955098589AE89AE9E6F0E080818C7F76
:10569000808308956150770B91E001C0990F6A955E
:1056A000EAF720E031E0911108C0222391F0589AE6
:1056B00080E28A95F1F758980895492F482339F0E8
:1056C000589A232740E24A95F1F79695ECCF5898DF
:1056D000F9CF5898EDCFFF920F931F93CF93DF939D
:1056E000EC018C01060F111DC017D10729F4CDB7AD
:1056F000DEB7E5E00C94C92CF9900E94EE2A68E030
:105700008F2D0E944A2BF0CF1F920F920FB60F924F
:1057100011240F931F932F933F934F935F936F9396
:105720007F938F939F93AF93BF93EF93FF93CF9309
:10573000DF930F92CDB7DEB719820E94E62ACE0121
:1057400001960E94F42A082F069506950695282FA3
:1057500022952570902F9570290F922F9370269582
:105760002695920F982797708981982B09F05CC035
:10577000043008F059C080E18A95F1F7589A509AA0
:1057800082E08A95F1F700C0589888E0089F800170
:105790001124D801AC5FBE4F1696ED91FC9117977E
:1057A0003097A9F06091B7047091B80414962D91C8
:1057B0003C911597260F371F11968D919C9112974A
:1057C000680F791F13964C9113978C910995F801E6
:1057D000EC5FFE4F6381662351F02091B704309156
:1057E000B80484819581820F931F0E946B2B0E94C5
:1057F000EE2A80E18A95F1F758985098589A80E1FE
:105800008A95F1F7F801EC5FFE4F6081662351F055
:105810002091B7043091B80481819281820F931F47
:105820000E941E2B0E94E62A0F90DF91CF91FF91DC
:10583000EF91BF91AF919F918F917F916F915F9108
:105840004F913F912F911F910F910F900FBE0F908D
:105850001F9018950F931F93CF93DF93EC0104973C
:105860000CF04CC0F894509A589885E08A95F1F75E
:1058700000009C2F969595708C2F8570980F892F1E
:1058800083709695969523E0CC0FDD1F2A95E1F75E
:10589000980F8E01092B0E94EE2A00C068E0802F2D
:1058A0000E944A2B80E18A95F1F75098589A489BBC
:1058B0001EC087E090E048991CC0FE01EC5FFE4FDF
:1058C00063816623F9F02091B7043091B804848194
:1058D0009581820F931F0E941E2B811113C0509A35
:1058E000589A7894DF91CF911F910F91089500C03D
:1058F000DECF019729F4509A589A789480E0F2CF3D
:1059000000C0D9CF0E94E62A80E28A95F1F7589824
:10591000509A80E18A95F1F7CC5FDE4F688166236B
:1059200051F02091B7043091B80489819A81820F97
:10593000931F0E946B2B0E94EE2A789481E0D2CFB5
:105940002F923F924F925F926F927F928F929F928F
:10595000AF92BF92CF92DF92EF92FF920F931F937D
:10596000CF93DF93CDB7DEB7CA1BDB0B0FB6F8942E
:10597000DEBF0FBECDBF09942A88398848885F846E
:105980006E847D848C849B84AA84B984C884DF80DF
:10599000EE80FD800C811B81AA81B981CE0FD11DC3
:1059A0000FB6F894DEBF0FBECDBFED01089597FB93
:1059B000072E16F4009407D077FD09D00E94F12C31
:1059C00007FC05D03EF4909581959F4F0895709502
:1059D00061957F4F0895EE0FFF1F0590F491E02D24
:1059E0000994AA1BBB1B51E107C0AA1FBB1FA61726
:1059F000B70710F0A61BB70B881F991F5A95A9F778
:105A000080959095BC01CD010895F999FECF92BD86
:105A100081BDF89A992780B50895A8E1B0E042E0E9
:105A200050E00C94392D262FF999FECF92BD81BDFF
:105A3000F89A019700B4021639F01FBA20BD0FB6CC
:105A4000F894FA9AF99A0FBE08950396272F0E94A8
:105A5000142D0E94132D252F0E94142D242F0C94F9
:105A6000142D0196272F0E94142D0C94132DDC0168
:105A7000CB01FC01F999FECF06C0F2BDE1BDF89A59
:105A8000319600B40D9241505040B8F70895FB0193
:105A9000DC0104C08D910190801921F441505040E7
:105AA000C8F7881B990B0895FB01DC0102C0019027
:105AB0000D9241505040D8F70895F894FFCF2D1122
:105AC00035113D1145114D1155115D1165116D11C6
:105AD00075117D1185118D1195119D11A511AD11B6
