:100000000C9412060C94CF2A0C942F060C942F06F5
:100010000C942F060C942F060C942F060C942F068C
:100020000C942F060C942F060C94DD250C94992526
:100030000C94DA260C942F060C942F060C942F06A1
:100040000C942F060C942F060C942F060C942F065C
:100050000C942F060C94B6260C942F060C942F06A5
:100060000C942F060C942F060C942F060C942F063C
:100070000C942F060C942F060C942F060C942F062C
:100080000C942F060C942F060C942F060C942F061C
:100090000C942F060C942F060C942F060C942F060C
:1000A0000C942F060C942F060C942F062C002A007B
:1000B00007000B00120000002A0007000B001200CE
:1000C00000002C002A000A001000160000002A0080
:1000D0000A001000160000002C002A001200150073
:1000E0001C0000002A00120015001C0000002C005B
:1000F0002A00050000002C002A000C000F001A0046
:1001000000002A000C000F001A0000002C0008005C
:1001100010001700000008001000170000002C005D
:100120000700110000002C002A000C0017001A0024
:1001300000002C002A0009000B00150000002C0014
:100140002A000500110000002A000500110000002F
:100150002C002A0011001A0000002A0011001A00C9
:1001600000002C002A0004000B00170000002C00E7
:100170002A0009001000170000002C002A000C00C3
:10018000100000002A000C001000000006001A00F9
:1001900000002C002A000A000B00120000002A00B8
:1001A0000A000B00120000002C002A0007001100BA
:1001B000120000002C002A00040017001A000000A2
:1001C0002C002A001000160000002A001000160063
:1001D00000002C002A000700160000002A0007007B
:1001E000160000002A000B000C00170000002C0075
:1001F0002A0004001200170000002A000400120068
:10020000170000002C002A001000170000002A0030
:100210001000170000002C002A0008001A0000003F
:100220002A0008001A0000002C002A000400070021
:100230000B0000002C000800150019000000080049
:100240001500190000002C002A0012001500000003
:100250002A001200150000002C002A0006000F00E2
:10026000120000002A0006000F00120000002C00FF
:100270002A000500180000002A00050018000000F0
:100280002C001200170000002C002A000B001A009E
:1002900000002A000B001A0000002C002A000900B0
:1002A000100000002A000900100000002C002A00A5
:1002B0000A00120000002A000A00120000002C00B0
:1002C0002A000A00110000002A000A0011000000A4
:1002D0002C002A000400150000002A00040015006C
:1002E00000002C002A000F0012001A0000002A0053
:1002F0000F0012001A0000002C002A0007000B005B
:1003000000002A0007000B0000002C002A00080053
:100310000B001500170000002A0008000B00150054
:10032000170000002C002A000B0012001500170017
:1003300000002A000B0012001500170000002C001E
:100340002A000B0017001C0000002A000B001700F9
:100350001C0000002C002A001200170000002A00D8
:100360001200170000002C002A000C0016001700D5
:1003700000002A000C001600170000002C002A00C4
:100380000B001200170000002C000B0019000000E9
:100390000B00190000002C002A0004000F000000D0
:1003A0002A0004000F0000002C002A0008000B00A7
:1003B000150000002A0008000B00150000002C00AA
:1003C0002A000800160000002A000800160000009D
:1003D0002C002A000B000C00170000002C002A0043
:1003E0000F00120000002A000F00120000002C0075
:1003F0002A00170000002C002A0004001A00000048
:100400002A0004001A0000002C002A000900150030
:1004100000002A000900150000002C002A000C0032
:100420001A0000002A000C001A0000002C002A000C
:100430001100120000002A001100120000002C0020
:100440002A001100170000002A0011001700000008
:100450002C002A0018001C0000002A0018001C00B4
:1004600000002C002A000B00160000002A000B00E0
:10047000160000002C002A0009000B0017000000E5
:100480002C002A000400170000002A0004001700B6
:1004900000002C002A000B00150000002A000B00B1
:1004A000150000002C002A000A000C0000002A00A1
:1004B0000A000C0000002C002A00040007000000C5
:1004C0002A000400070000002C002A000B0017007F
:1004D00000002A000B001700000073686F756C6441
:1004E000200073686F756C6400736F6D6574686964
:1004F0006E672000736F6D657468696E6700796F51
:1005000075722000796F757200746F20626520002B
:1005100077696C6C200077696C6C007468656D207D
:10052000007468656D00646F206E6F7420007769D9
:100530007468207468652000666F72207468652096
:10054000006265656E20006265656E007768656EA5
:1005500020007768656E006174207468652000660D
:10056000726F6D20746865200068696D200068698D
:100570006D0077686963680074686F75676820004C
:1005800074686F75676800646964206E6F7420001A
:100590006974207761732000736F6D652000736F3D
:1005A0006D6500736169642000736169640074683B
:1005B0006569720061626F7574200061626F7574A5
:1005C000006D656E7420006D656E740077657265F0
:1005D00020007765726500616E6420746865200094
:1005E00065766572200065766572006F7572200011
:1005F0006F757200636F756C642000636F756C6457
:10060000006275742000627574006F6E20746865F6
:100610002000776861742000776861740066726FEB
:100620006D200066726F6D006F75676820006F75D2
:100630006768007468696E6720007468696E670097
:10064000617265200061726500776F756C642000CF
:10065000776F756C64006861642000686164007481
:100660006865726520007468657265006F746865FE
:100670007220006F74686572007468657920007478
:10068000686579006F757420006F7574007468690F
:100690007320007468697300746F207468652000AB
:1006A0006861766520006861766500616C6C200089
:1006B000616C6C0068657265200068657265007326
:1006C0006865200073686500696E207468652000A5
:1006D0006F756C6420006F756C6400746F20007718
:1006E0006173200077617300666F722000666F721D
:1006F0000077697468200077697468006E6F7420F1
:10070000006E6F740074696F6E200074696F6E0004
:10071000796F752000796F750068697320006869CA
:1007200073006F662074686520007468617420002F
:100730007468617400686572200068657200696E93
:10074000672000696E6700616E642000616E64005E
:1007500074686520007468650045003A003B003C01
:10076000003D003E00350014001A0009001300058A
:1007700000390004001500160017000A00A8521DD9
:10078000001B0006000700190000000000567C57FF
:100790007C2C00825200000000A152A452A2522BD5
:1007A000003F00400041004200430044000D000FA4
:1007B0000018001C00330031001000110008000C6C
:1007C00000120034000E000B003600370038002DF8
:1007D0000083522A004A004D00000000002800B2A9
:1007E0005229004C0000000000010001000100013E
:1007F0000001000100010014001A00080015001794
:1008000000010004001600070009000A0001001D95
:10081000001B0006001900050000000000537C5476
:100820007C01000100000000000100010001000146
:10083000000100010001000100010001001C00187E
:10084000000C001200130001000B000D000E000F41
:10085000003300010011001000360037003800019D
:100860000001000100010001000000000001000182
:100870000001000100000000002452530046004720
:10088000004800BD00A800077E087E2F023002BE8F
:1008900000A9002F003000260227024900AA000408
:1008A000011B0106011901190500000000537C54C9
:1008B0007C0100010000000000010001002A01018C
:1008C00000057E2302240220021E026152067E24BD
:1008D00000250026002202210236002100220023EA
:1008E00000550057002E001E001F00200054005627
:1008F000000100010027003700000000000100B2E5
:10090000000100010000000000245201000100016C
:10091000000100010001002F003000520065004C72
:10092000054B000100500051004F0001004E000433
:10093000011B01060119011905000000002B132BF2
:10094000010100010000000000010001002A010176
:1009500000010001000100010001006152077E2733
:1009600002260230002F004600087EE400E500E683
:1009700000E70001002302240220021F021E0201E0
:100980000001000100010001000000000001000161
:1009900000010001000000000000003A003B003CA4
:1009A000003D003E00007C00000000000000000050
:1009B00000000000000000000000000000007C00BB
:1009C00000000000000000007C00000000000000AB
:1009D0000001000100000000000100010001000111
:1009E000003F0040004100420043000000000000C2
:1009F00000000000000000000000000000000000F7
:100A000000000000000000000000000000000000E6
:100A100000010001000000000000000000010001D2
:100A200000010001000000000000000000000000C4
:100A300000000000000000000000000000000000B6
:100A4000000000000000000000000000007E0F0019
:100A5000D4FFFFFFC7000000780000000000000086
:100A6000002A2B2800000000000000000000000009
:100A70000000000029000000002C1E342021222448
:100A8000342627252E362D3738271E1F20212223D6
:100A90002425263333362E37381F04050607080968
:100AA0000A0B0C0D0E0F101112131415161718192E
:100AB0001A1B1C1D2F3130232D350405060708098C
:100AC0000A0B0C0D0E0F101112131415161718190E
:100AD0001A1B1C1D2F3130354C05010902A101855F
:100AE000020901A100050919012908150025019530
:100AF00008750181020501093009311581257F95AD
:100B0000027508810609381581257F9501750881D0
:100B100006050C0A38021581257F950175088106A6
:100B2000C0C005010980A101850319012AB700157C
:100B30000126B700950175108100C0050C0901A1BF
:100B400001850419012AA002150126A0029501754C
:100B5000108100C005010906A101050719E029E778
:100B6000150025019508750181029501750881011F
:100B70000507190029FF150026FF00950675088155
:100B80000005081901290595057501910295017562
:100B9000039101C009023B00020100A0FA09040010
:100BA0000001030101000921110100012240000799
:100BB0000581030800010904010001030000000988
:100BC0002111010001227B00070582032000011290
:100BD000010002000000084D44363501000102000A
:100BE000012C03440061006300740079006C002D47
:100BF000004D0061006E00750066006F0072006DB0
:100C00000020002800350078003600290000000E82
:100C1000037400730068006F007200740000000429
:100C20000309040011241FBECFEFDAE0DEBFCDBF01
:100C300014E0A0E0B1E0EEEAFAE502C005900D9202
:100C4000A237B107D9F729E0A2E7B4E001C01D92AD
:100C5000A93FB207E1F70E9401270C94A82C0C943D
:100C60000000FC01AC014A5F5F4F8FEF91E32191DF
:100C7000822728E030E087FF09C0880F89272150AC
:100C80003109C9F7E417F50791F70895880FF7CFF1
:100C9000E8EDF0E080818E7F80831092E200109278
:100CA000DA001092E100A0EEB0E08C9181608C93AC
:100CB00080818F77808319BCA7EDB0E08C918E7F07
:100CC0008C9380818F7E80831092DF09089520911C
:100CD000E4003091E50095E6A9012091EC00822F17
:100CE000817020FF06C08091E80080FF06C080E090
:100CF00008952091E80022FD1AC08091EC09882314
:100D000089F0853089F08091EB0085FD0FC020913E
:100D1000E4003091E50042175307F9F29150E1F6F3
:100D200084E0089582E0089583E0089581E00895C5
:100D30008091EE0987FF13C08091E80082FF06C012
:100D40008091E8008B778093E80004C08091EC09E3
:100D50008111F2CF08958091EC098823D9F3809115
:100D6000E80080FFF8CF8091E8008E77ECCF982FD5
:100D70009093E900242F762F50E0891731F070917D
:100D8000EC002091ED005091F00021FD07C09F5F25
:100D9000973071F78093E90081E008953091EB007E
:100DA0003E7F3093EB003091ED003D7F3093ED00BE
:100DB0003091EB0031603093EB007093EC002093A6
:100DC000ED005093F0002091EE0027FDE0CF80E091
:100DD0000895B0E0A0E0EFEEF6E00C94F52BC8ED3E
:100DE000D0E088818F7E8883E7EDF0E080818160AC
:100DF000808384E082BF81E08093DF0988818E7FD9
:100E0000888302EE10E0F80110821092DA0081EE81
:100E1000C82ED12CF601108288818F778883888133
:100E20008068888388818F7D888319BC1092EC0943
:100E30001092ED091092EB091092EA0990EEE92E5A
:100E4000F12CF70180818B7F80838881816088838A
:100E500042E060E080E00E94B706F60180818E7F6C
:100E60008083F801808181608083808188608083B5
:100E7000F70180818E7F8083888180618883CDB7F0
:100E8000DEB7E8E00C94112CFC018091F4099091FC
:100E9000F50986179707A0F06115710529F490915F
:100EA000E8009E779093E80090E06115710551F499
:100EB000911108C08091E80082FF34C080E008955D
:100EC000BC01F2CF8091EC098823C1F18530C1F1DA
:100ED0008091E80083FD30C08091E80082FDEACF78
:100EE0008091E80080FFE1CF8091F3002091F20033
:100EF000382F6115710519F02830310558F091E04F
:100F00002830310509F090E02091E8002E772093F9
:100F1000E800CBCF81918093F100615071092F5F80
:100F20003F4FE7CF8091EC09882341F0853041F0B5
:100F30008091E80083FFBECF81E0089582E00895AC
:100F400083E008958091E10908959C014FB7F894DA
:100F50008091DB099091DC09A091DD09B091DE0957
:100F60004FBF821B930B08952FB7F8946091DB0954
:100F70007091DC098091DD099091DE092FBF089501
:100F80002FB7F8948091DB099091DC09A091DD09DD
:100F9000B091DE092FBF0895A3E0B0E0E2EDF7E0E5
:100FA0000C94FB2B2091D8093091D90928173907C7
:100FB000A1F09093D9098093D809E091D609F091D6
:100FC000D709309751F024E029839B838A830680D8
:100FD000F781E02DCE01019609952396E2E00C946D
:100FE000172CA3E0B0E0E7EFF7E00C94FB2B209187
:100FF000D4093091D50928173907A1F09093D50964
:101000008093D409E091D609F091D709309751F037
:1010100023E029839B838A830680F781E02DCE011C
:10102000019609952396E2E00C94172CDC0160915F
:10103000D0098091D109962F891301C00895292FD5
:1010400030E0F901EE0FFF1FE853F64F4081518168
:101050004A175B07A1F487E08A9FA0018B9F500D80
:1010600011244B5D5E4F81E0FA0184839613E6CF35
:101070002F5F3F4F237033272093D00908952F5FB0
:101080003F4F922F9370D8CF10926409109263094A
:10109000E5E2F1E08581811102C014821682379663
:1010A00084E0E732F807B1F708950E94C0079C0179
:1010B00090915B0980915C09982B21F0309358093D
:1010C0002093570990915D0980915E09982B21F03A
:1010D0003093560920935509E091D609F091D7092C
:1010E000309749F082E0809359090480F581E02D22
:1010F00089E599E0099508958091540980FD16C00D
:1011000081FD16C082FD16C0809153098823A1F08D
:10111000883280F428E0829FC001112468E270E0E8
:101120000E94222C862F672B39F0089582E00895C3
:1011300084E0089588E0089581E00895809154093D
:1011400080FD16C081FD16C082FD18C08091520935
:10115000882391F08C3390F428E3829FC0011124FE
:101160006CE370E00E94222C862F672B49F00895D3
:101170008EE008958CE1089588E0089588E308954D
:1011800081E0089580E00895F894E82FE295EF70EB
:10119000F0E031A1282F2F7081E090E001C0880F8E
:1011A0002A95EAF7982F9095932391A392A1892BE2
:1011B00082A3789408959091340992FF06C0282F55
:1011C00028712830F9F4877F846093FF06C0282FA8
:1011D00028712831F1F4877E84612091350920FF40
:1011E00006C0382F38713830D9F4877F816021FFED
:1011F00006C0282F28712831D1F4877E816194FDA3
:10120000877E0895282F24712430F9F68B7F88601B
:10121000DCCF282F2471243101F78B7E8861DDCF4C
:10122000382F3171313019F78E7F8860E0CF282F49
:101230002171213121F78E7E8861E1CF972F7C309B
:10124000B8F46630A8F4853098F470E026E0929FF8
:10125000600D711D1124FB0198E4899FE00DF11DC3
:101260001124EE0FFF1FE75AF84F859194910895CE
:1012700080E090E00895CF93DF93EC0182389105F0
:10128000B9F108F041C08133910509F49FC050F5D0
:101290008932910509F48FC08A9709F49EC0C1155F
:1012A00020E5D20708F0BDC0C11530E4D30708F02F
:1012B0000AC1C03ED10508F0A5C0CD3CD10508F05B
:1012C00000C1C83AD10508F08FC0C53AD10508F071
:1012D000F0C0C130D10539F1209729F1C430D105D2
:1012E00010F546C08533910509F460C0C997B9F679
:1012F00080913409837009F044C18091350983FFDE
:1013000012C0C9E2D0E00FC0833E9105A1F178F48C
:10131000803E910509F1823E910509F0C0CF809190
:10132000340982FD21C0CE01DF91CF910895863E20
:10133000910561F1873E910571F1843E910509F0B7
:10134000AECF8091350981FFEECF80913409C7EE91
:10135000D0E084FD0DC0E7CF8091340980FD33C01B
:101360009091350990FFDFCFC3EED0E084FFDBCF53
:10137000D0E0C0E0D8CF8091340982FDFFC09091C9
:10138000350990FDFEC084FFCECFF2CF80913409A5
:1013900083FDDDCFC8CF8091340983FDF5C09091E6
:1013A000350991FFF0CFC4EED0E0BDCF8091340974
:1013B00085FFB9CFA6CF8091340985FDE8C0809123
:1013C000350983FFB0CFC9E3D0E0ADCF80913409B8
:1013D00086FFA9CFCAE2D0E0A6CF8091340986FF6C
:1013E000A2CFC1E3D0E09FCFC13CD10508F6C85AD7
:1013F000D0E0CC0FDD1FCF5CDB4F0990D881C02D32
:10140000D46491CFC11540E2D40708F0AAC0C11539
:1014100081E0D80708F087CFC83ED10508F483CF14
:10142000A7CFC03622E5D20718F5C03432E5D3077E
:1014300008F053C0C03242E5D40708F047C0C115D8
:1014400082E5D80708F47FC02C2F2695269540E228
:10145000249F900111248C2F8370C1E0D0E002C042
:10146000CC0FDD1F8A95E2F7C22BD32BDD685BCF53
:10147000C03A22E5D20760F4C03832E5D30708F459
:1014800041C0CF71D0E0DC2FCC27C46FD06A4BCFE6
:10149000C03C42E5D40708F44AC0C03E82E5D80704
:1014A00008F066CFDC2FCC27CC27DF71C06FD06A65
:1014B0003ACFC55AD0E0C25DDB4FC881D0E0D064DE
:1014C00032CFD06530CFDF70D06A2DCFCF71D0E072
:1014D000DC2FCC27C16FD06A26CF2C2F26952695DE
:1014E000277080E2289F900111248C2F8370C1E027
:1014F000D0E002C0CC0FDD1F8A95E2F7C22BD32BC0
:10150000DC6811CF2C2F26952695277040E2249F6A
:10151000900111248C2F8370C1E0D0E002C0CC0F69
:10152000DD1F8A95E2F7C22BD32BDA68FCCE8C2F15
:101530008F710E94DB08C82FD0E0DC2FCC27CC278E
:10154000DF71D062F0CE8C2F8F710E94DB0835E006
:10155000D695C7953A95E1F7CF709C2FEC01D069ED
:10156000E2CE8D2F8F710E94DB0890E0982F8827A4
:1015700088279F719C012C2BE901E3CFC2EED0E0BC
:10158000D2CEC0EED0E0CFCEC6EED0E0CCCEC5E31A
:10159000D0E0C9CE8091F80881111092F808089522
:1015A0008091620981110FC010925F090E94CA0ADE
:1015B0000E94C00788579C4E9093610980936009F0
:1015C00081E0809362090895809590915F09982346
:1015D00090935F090895E6E7F4E09191891303C0C1
:1015E000DF0111971C9294E0EC37F907B1F70895E9
:1015F000A6E7B4E0EFEF90E02D91821751F0EF3FB6
:1016000019F4211101C0E92F9F5F9630A9F7EF3F30
:1016100009F408950E2E000CFF0BEC58FB4F82834B
:1016200008952091EE089091AD08291302C080E042
:10163000089530E0F90153E0EE0FFF1F5A95E1F7EE
:10164000E255F74F5181561306C05081581303C01D
:101650005281541304C02F5F3F4F2770E6CF81E0C3
:1016600008958091EE089091AD08981301C00895F7
:101670008F5F8770FACFB0E0A0E0E1E4FBE00C946C
:10168000F42B7C01009132091091330980913009CB
:1016900090913109082B192BCFE0D0E0CC24C394D2
:1016A000D12CBC2EC6010C2E02C0880F991F0A94A3
:1016B000E2F780239123892B49F4219790F7B12CED
:1016C0008B2DCDB7DEB7E9E00C94102CB7018C2F31
:1016D0000E941E090E943B09019779F3F1CFCF9335
:1016E000DF93EC010E943B0BBE010E941E090E9489
:1016F0003B09DF91CF9108959C3078F5863068F5ED
:10170000E82FF0E086E0989FE00DF11D11249E2F58
:10171000977083E0F695E7958A95E1F7EE0FFF1F46
:10172000EE0FFF1FEF57F74F50E040E080E02191B0
:1017300030E0092E02C0369527950A94E2F7217011
:101740003327042E01C0220F0A94EAF7822B4F5F41
:101750005F4F4430510559F7089580E008959C305B
:1017600098F5863088F5E82FF0E086E0989FE00D48
:10177000F11D11248E2F877041E001C0440F8A951E
:10178000EAF783E0F695E7958A95E1F7EE0FFF1FFC
:10179000EE0FFF1FEF57F74F30E020E070E0519160
:1017A000DF011197CB01022E02C0969587950A940E
:1017B000E2F7817081958527842385278C932F5F9D
:1017C0003F4F2430310559F70895909333098093A2
:1017D0003209089521E030E002C0220F331F8A95BC
:1017E000E2F7209530958091320990913309822358
:1017F00093230E94E50B08959091EF08809589232B
:101800008093EF08282F277091F4282F082E000CC2
:10181000330B9217130659F09091350992FF07C0C8
:101820008595859585950E94EA0B1092EF0808959D
:1018300021E030E002C0220F331F8A95E2F7809149
:10184000320990913309822B932B0E94E50B089566
:101850009091350992FF07C098E0899F900111246B
:10186000622B6093EF080E94180C08959093310941
:10187000809330090895FC0183819481892B29F09C
:101880008081918189238F3FF1F480E008950E9447
:101890003B0992959F70963089F058F4925F9F7043
:1018A000923098F7803F19F030F4883E70F781E06D
:1018B00008959A5FF4CF843F41F7F9CF883EB8F39B
:1018C000813F19F7F4CF86819781009701F78081D6
:1018D00091810E946F0BDDCF662309F45DC08D3CC2
:1018E00041F40E949E08819580935C090E945508EE
:1018F00008958E3C19F40E949E08F6CF8F3C31F477
:101900000E949E08819580935B09F0CF803D19F479
:101910000E949E08F8CF893D29F40E947C0880939C
:101920005D09E4CF8A3D21F40E947C088195F7CFC0
:101930008B3D31F40E947C08819580935E09D6CF5F
:101940008C3D19F40E947C08F8CF9FE2980F9830E4
:1019500070F4815D990B21E030E001C0220F8A957F
:10196000EAF780915A09822B80935A09BFCF8D3DA7
:1019700031F480915409816080935409B7CF8E3D32
:1019800021F4809154098260F7CF8F3D09F0AECFEA
:10199000809154098460F0CF40915B098D3C59F4EB
:1019A00080915C0987FF0DC010925C0941110BC04A
:1019B0001092520908C08E3C81F480915C0918167F
:1019C0009CF3442381F080915D0990915E09892BFD
:1019D00009F08CCF1092530989CF8F3C49F447FF0F
:1019E000F0CF10925B0980915C098111ECCFE0CFC0
:1019F000803D19F41416ACF3E4CF90915D09893D54
:101A000029F41916F4F610925D09DBCF8A3D19F41A
:101A100097FFD7CFF8CF90915E098B3D29F497FFC0
:101A2000D0CF10925E09CDCF8C3D19F41916CCF3AE
:101A3000C8CF9FE2980F983090F4815D990B21E018
:101A400030E0B90102C0660F771F8A95E2F7CB013B
:101A5000809590915A09892380935A09B2CF8D3D80
:101A600031F4809154098E7F80935409AACF8E3D22
:101A700021F4809154098D7FF7CF8F3D09F0A1CFDC
:101A8000809154098B7FF0CFA5E0B0E0EAE4FDE05F
:101A90000C94FA2B9C01FC01868197810097E1F45C
:101AA00085E0DE01119601900D928A95E1F7F9012A
:101AB000228189819A81222399F0662389F00E94EC
:101AC0003B0B182F682F89819A810E94AF0B698187
:101AD0007A81812F0E941E092596E3E00C94162C32
:101AE0000E947C0B182FF3CF82E0FB01099508952B
:101AF0000F931F93CF93DF938B01EA019091EC0931
:101B0000943061F58093E9008FEF9091E800815067
:101B100095FD06C095ED9A95F1F700008111F5CF7E
:101B20008091E80085FF1AC00E946706811111C0EC
:101B30008091E80085FD06C08091E8008E77809353
:101B4000E800F2CFF80181918F018093F100219795
:101B500079F78091E8008E778093E800DF91CF914C
:101B60001F910F91089543E050E0BC0182E00E9474
:101B7000780D089546E050E0BC0182E00E94780DA7
:101B80000895CF93DF93EC0148E050E0BC0181E081
:101B90000E94780D88E0FE01A2EEB9E001900D925E
:101BA0008A95E1F7DF91CF910895B0E0A0E0EBEDE9
:101BB000FDE00C94F32B7C015B016A0180911D090F
:101BC00001E010E08A3010F40AE010E0C1E0D0E05B
:101BD000B501C701F6010995811104C021960C17C2
:101BE0001D072CF4CDB7DEB7EAE00C940F2CCC9F88
:101BF0009001CD9F300D300D112490E080E045E341
:101C00004A95F1F70000019682179307C1F7E0CFDC
:101C100080910309811110C08091D8008061809368
:101C2000D8008AE18A95F1F700C08091D90080FF41
:101C30000AC081E08093030981E09091030991300B
:101C400009F080E0089582E0809303090E9448062D
:101C50001092EC09F1CF0E94080E882359F0E09110
:101C6000D609F091D709309729F00190F081E02D45
:101C70000995089580E0089580915F099091650924
:101C8000892B809374049091F808992391F0892B03
:101C90008093740420E086E794E0FC013191CF0149
:101CA00031112F5FF4E08C379F07B9F721110E94A3
:101CB000CA0A48E050E060EF78E084E794E00E94D0
:101CC000922C892BA9F088E0E4E7F4E0A0EFB8E0DB
:101CD00001900D928A95E1F7E091D609F091D7092C
:101CE000309731F00280F381E02D84E794E009958C
:101CF0000895882341F08095909165098923809308
:101D000065090E943C0E089580916209882329F09C
:101D100082E20E94790E109262090895882339F0B8
:101D200090916509982B909365090E943C0E089547
:101D3000882321F00E94E40A0E943C0E0895882323
:101D400039F090915F09982B90935F090E943C0EA7
:101D50000895882309F456C0823879F40E942B0E26
:101D600081FF50C089E30E94F80A0E943C0E89E37B
:101D70000E94EB0A0E943C0E0895833859F40E9499
:101D80002B0E80FF3FC083E50E94F80A0E943C0EA4
:101D900083E5EECF843859F40E942B0E82FF32C0C7
:101DA00087E40E94F80A0E943C0E87E4E1CF9CEF92
:101DB000980F913AE8F290E2980F983050F48770BB
:101DC00091E001C0990F8A95EAF7892F0E94E40AF1
:101DD000D1CF9BE5980F933028F490E080E00E94EB
:101DE000F107089598E5980F993128F490E080E084
:101DF0000E94CC07089593E3980F933118F460E0A4
:101E00000E946C0C0895CF93C82F8823C9F08238A4
:101E1000C9F40E942B0E81FD13C089E30E94F80AC9
:101E20000E943C0E2FEF87EE93E0215080409040BF
:101E3000E1F700C0000089E30E94EB0A0E943C0E1B
:101E4000CF9108958338A1F40E942B0E80FDF8CF26
:101E500083E50E94F80A0E943C0E2FEF81EE94E089
:101E6000215080409040E1F700C0000083E5E4CFBE
:101E70008438A1F40E942B0E82FDE2CF87E40E94F9
:101E8000F80A0E943C0E2FEF81EE94E02150804032
:101E90009040E1F700C0000087E4CECF8CEF8C0FBC
:101EA000813A68F4E6E7F4E08191C817E9F124E0AB
:101EB000EC37F207C9F78C2F0E94F80ABFCF80E2F7
:101EC0008C0F883068F4C77021E030E001C0220F29
:101ED000CA95EAF780915F09822B80935F09AECFA4
:101EE000EBE5EC0FE33040F4F0E0E25DFB4F808186
:101EF00090E00E94F107A4CFE8E5EC0FE93150F43F
:101F0000F0E0EE0FFF1FEF5CFB4F808191810E949C
:101F1000CC0796CF83E38C0F833108F091CF61E03B
:101F20008C2F0E946C0C8CCF8C2F0E94EB0A0E948D
:101F30003C0EC1CF1F93CF93DF93182FD0E0C0E0AA
:101F4000893311F4C0E5D0E0812F0E94030F209760
:101F500039F4812F0E94A90EDF91CF911F9108952E
:101F60008FE99FE00197F1F700C000002197EFCFC4
:101F70000F931F93CF93DF93C62FD42F022FFC0113
:101F800082818823A9F06093F8090E94C00790938A
:101F9000F7098093F609C77081E001C0880FCA95E0
:101FA000EAF70E949F0EDF91CF911F910F91089544
:101FB0008091F809681332C08091F6099091F70971
:101FC0000E94A507883C910548F510E21D0FCD172A
:101FD000B9F080E28C0F883040F4C77081E001C016
:101FE000880FCA95EAF70E94980E183048F481E0ED
:101FF0009D2F977001C0880F9A95EAF70E949F0E57
:10200000802F0E949A0F183070F6D77081E001C0BF
:10201000880FDA95EAF70E94980EC5CFC77081E065
:1020200001C0880FCA95EAF7F6CFB0E0A0E0EBE177
:10203000F0E10C94F62BE82FF0E0E75AF54FD4903E
:10204000282F26952695269530E0F901E75BF54F78
:102050000491877010E0082E02C0159507950A9428
:10206000E2F701701127F901E75CF54FE490F12CDC
:10207000082E02C0F594E7940A94E2F791E0E92271
:10208000FF24F901E75DF54FC491D0E002C0D5957A
:10209000C7958A95E2F7C170DD270115110519F082
:1020A00081EE0E94030FE114F10419F086EE0E9404
:1020B000030F8D2D0E949A0FE114F10419F086EEA2
:1020C0000E94A90E0115110519F081EE0E94A90EBA
:1020D000CD2B19F08CE20E949A0FCDB7DEB7E7E066
:1020E0000C94122CFF920F931F93CF93DF938C01CC
:1020F0008AE0F82EF8018491882309F44BC08130DE
:1021000009F044C0E8012196FE018491813049F430
:102110002196FE0184910E949A0F8E010F5F1F4F3E
:10212000E9CF823039F4E8012296FE0184910E94C1
:10213000030FF3CF833039F4E8012296FE01849136
:102140000E94A90EEACF843041F7E8012296FE01F1
:10215000249190E080E0FE0131962053330B2A3029
:10216000310548F00197C8F2EFE9FFE03197F1F748
:1021700000C00000F7CFF89EA001F99E500D112479
:10218000C901840F951F2491EF01E5CF0E9415101E
:10219000E801C3CFCDB7DEB7E5E00C94142C8E3642
:1021A000910508F06BC38655934DFC010C94362CB9
:1021B000662309F463C385E597E00E9472100895D1
:1021C000662309F45BC380E597E00E9472100895CE
:1021D000662309F453C38CE497E00E9472100895BB
:1021E000662309F44BC387E497E00E9472100895B8
:1021F000662309F443C383E497E00E9472100895B4
:10220000662309F43BC38EE397E00E9472100895A1
:10221000662309F433C38AE397E00E94721008959D
:10222000662309F42BC385E397E00E94721008959A
:10223000662309F423C380E397E00E947210089597
:10224000662309F41BC38AE297E00E947210089586
:10225000662309F413C382E297E00E947210089586
:10226000662309F40BC38EE197E00E947210089573
:10227000662309F403C389E197E00E947210089570
:10228000662309F4FBC285E197E00E94721008956D
:10229000662309F4F3C280E197E00E94721008956A
:1022A000662309F4EBC28BE097E00E947210089558
:1022B000662309F4E3C285E097E00E947210089556
:1022C000662309F4DBC281E097E00E947210089552
:1022D000662309F4D3C28CEF96E00E947210089531
:1022E000662309F4CBC287EF96E00E94721008952E
:1022F000662309F4C3C281EF96E00E94721008952C
:10230000662309F4BBC28DEE96E00E947210089518
:10231000662309F4B3C288EE96E00E947210089515
:10232000662309F4ABC284EE96E00E947210089511
:10233000662309F4A3C28FED96E00E9472100895FF
:10234000662309F49BC28BED96E00E9472100895FB
:10235000662309F493C286ED96E00E9472100895F8
:10236000662309F48BC280ED96E00E9472100895F6
:10237000662309F483C288EC96E00E9472100895E7
:10238000662309F47BC284EC96E00E9472100895E3
:10239000662309F473C28FEB96E00E9472100895D1
:1023A000662309F46BC28AEB96E00E9472100895CE
:1023B000662309F463C284EB96E00E9472100895CC
:1023C000662309F45BC280EB96E00E9472100895C8
:1023D000662309F453C28BEA96E00E9472100895B6
:1023E000662309F44BC286EA96E00E9472100895B3
:1023F000662309F443C280EA96E00E9472100895B1
:10240000662309F43BC288E996E00E9472100895A1
:10241000662309F433C283E996E00E94721008959E
:10242000662309F42BC28DE896E00E94721008958D
:10243000662309F423C289E896E00E947210089589
:10244000662309F41BC284E896E00E947210089586
:10245000662309F413C28FE796E00E947210089574
:10246000662309F40BC289E796E00E947210089572
:10247000662309F403C283E796E00E947210089570
:10248000662309F4FBC18CE696E00E947210089561
:10249000662309F4F3C186E696E00E94721008955F
:1024A000662309F4EBC18FE596E00E94721008954F
:1024B000662309F4E3C18BE596E00E94721008954B
:1024C000662309F4DBC186E596E00E947210089548
:1024D000662309F4D3C180E596E00E947210089546
:1024E000662309F4CBC189E496E00E947210089536
:1024F000662309F4C3C185E496E00E947210089532
:10250000662309F4BBC180E496E00E94721008952E
:10251000662309F4B3C18AE396E00E94721008951D
:10252000662309F4ABC183E396E00E94721008951C
:10253000662309F4A3C18EE296E00E94721008950A
:10254000662309F49BC188E296E00E947210089508
:10255000662309F493C183E296E00E947210089505
:10256000662309F48BC18DE196E00E9472100895F4
:10257000662309F483C188E196E00E9472100895F1
:10258000662309F47BC182E196E00E9472100895EF
:10259000662309F473C18AE096E00E9472100895E0
:1025A000662309F46BC186E096E00E9472100895DC
:1025B000662309F463C181E096E00E9472100895D9
:1025C000662309F45BC18BEF95E00E9472100895B9
:1025D000662309F453C184EF95E00E9472100895B8
:1025E000662309F44BC180EF95E00E9472100895B4
:1025F000662309F443C18BEE95E00E9472100895A2
:10260000662309F43BC186EE95E00E94721008959E
:10261000662309F433C180EE95E00E94721008959C
:10262000662309F42BC187ED95E00E94721008958E
:10263000662309F423C182ED95E00E94721008958B
:10264000662309F41BC18CEC95E00E94721008957A
:10265000662309F413C187EC95E00E947210089577
:10266000662309F40BC181EC95E00E947210089575
:10267000662309F403C18BEB95E00E947210089564
:10268000662309F4FBC084EB95E00E947210089564
:10269000662309F4F3C08EEA95E00E947210089553
:1026A000662309F4EBC089EA95E00E947210089550
:1026B000662309F4E3C083EA95E00E94721008954E
:1026C000662309F4DBC08EE995E00E94721008953C
:1026D000662309F4D3C088E995E00E94721008953A
:1026E000662309F4CBC080E995E00E94721008953A
:1026F000662309F4C3C087E895E00E94721008952C
:10270000662309F4BBC080E895E00E94721008952A
:10271000662309F4B3C088E795E00E94721008951B
:10272000662309F4ABC082E795E00E947210089519
:10273000662309F4A3C08EE695E00E947210089506
:10274000662309F49BC089E695E00E947210089503
:10275000662309F493C08FE595E00E9472100895F6
:10276000662309F48BC087E595E00E9472100895F6
:10277000662309F483C082E595E00E9472100895F3
:10278000662309F47BC08CE495E00E9472100895E2
:10279000662309F473C087E495E00E9472100895DF
:1027A000662309F46BC081E495E00E9472100895DD
:1027B000662309F463C088E395E00E9472100895CF
:1027C000662309F45BC08EE295E00E9472100895C2
:1027D000662309F453C086E295E00E9472100895C2
:1027E000662309F44BC081E295E00E9472100895BF
:1027F000662309F443C08BE195E00E9472100895AE
:102800006623E1F186E195E00E9472100895662347
:10281000A9F180E195E00E9472100895662371F19C
:1028200089E095E00E9472100895662339F184E0F2
:1028300095E00E9472100895662301F18EEF94E0F6
:102840000E94721008956623C9F084EF94E00E94FC
:1028500072100895662391F089EE94E00E94721040
:102860000895662359F082EE94E00E947210089554
:10287000662321F08AED94E00E94721008951F9360
:10288000CF93DF93EC011AE08881882309F43EC0DE
:102890008130C9F599818A81913029F422960E946C
:1028A0009A0F2196F1CF923021F422960E94030FC5
:1028B000F8CF933021F422960E94A90EF2CF9430E3
:1028C00011F02196EECF229630E020E0AE014F5F6E
:1028D0005F4F8053990B8A30910550F02150310998
:1028E00000F38FE99FE00197F1F700C00000F6CFF9
:1028F000129FB001139F700D11249C01260F371FEA
:102900008981EA01E3CF0E941510CBCFDF91CF91EF
:102910001F9108959091350992FB222720F92817DD
:1029200079F080FB92F990933509609134097091A8
:10293000350984E090E00E947C2C82E00E94FC0B30
:102940000895CF9310925F09C6E0E6E7F4E0DF0157
:102950008C2F1D928A95E9F790E080E00E94F107A4
:1029600090E080E00E94CC07109265090E943C0E26
:10297000E9E5F9E0DF011D92CA95E9F710925209E5
:1029800010925309109254090E945508CF9108954E
:10299000AAE2B0E0EEECF4E10C94FA2B8EEE99E0B2
:1029A0002091F100FC012193CF01F9E0863F9F07C0
:1029B000B9F78091EF09833009F470C0B8F4813021
:1029C00009F447C0823009F4B1C08091E80083FF68
:1029D0007EC28091EE099091EF099A3008F077C29B
:1029E000E92FF0E0E85EF24D0C94362C8A3009F4C1
:1029F0008CC08B3009F46FC0893039F78091EE09B3
:102A0000813219F78091F2099091F3090297E8F663
:102A10008091E800877F8093E8008091E80082FF42
:102A200038C09091F3008091F200029731F48091C8
:102A3000F100813011F0863021F48091F100809313
:102A4000E1098091E8008B778093E8000E94980666
:102A5000BCCF8091EE09813A09F0B7CF8091E800B0
:102A6000877F8093E8008091F2099091F309892B88
:102A700061F468E082EE99E070E00E944407809182
:102A8000E8008B778093E800A0CF60E090E080E0E2
:102A9000F3CF8091EC098111C0CF97CF8091EE09DF
:102AA000813A09F092CF8091F2099091F309892B34
:102AB00009F08BCF8091E800877F8093E8008091B8
:102AC000E80080FFFCCF809128048093F100809182
:102AD000E8008E77B9CF8091EE09813209F075CF89
:102AE0008091F2099091F309892B09F06ECF8091C2
:102AF000E800877F8093E8000E9498068091F009A3
:102B0000809328040E94A11460CF8091EE09813245
:102B100009F05BCF8091E800877F8093E8000E94F6
:102B200098068091F1098093E0094FCF8091EE09DA
:102B3000813A09F04ACF8091E800877F8093E800CE
:102B40008091E80080FFFCCF8091E009BECF803803
:102B500099F0823809F0BBC18091F2098F708730FB
:102B600008F0B5C18093E9008091EB0085FB8827D0
:102B700080F91092E90006C08091EA099091EB0972
:102B8000911182609091E800977F9093E800809384
:102B9000F1001092F1008091E8008E7794C18823B3
:102BA00009F482C1823009F092C18091F00981114B
:102BB00085C18091F2098F702FEF280F263008F021
:102BC00086C18093E9002091EB0020FF77C193300C
:102BD00031F48091EB0080628093EB006FC19091A3
:102BE000EB0090619093EB0021E030E001C0220FF8
:102BF0008A95EAF72093EA001092EA008091EB00B0
:102C00008860EACF811163C11091F0091F7780912C
:102C1000E3008078812B8093E3008091E800877F38
:102C20008093E8000E9498068091E80080FFFCCF26
:102C30008091E30080688093E30082E0111183E0DB
:102C40008093EC0944C18058823008F040C18091E3
:102C5000F0099091F1098C3D23E09207A1F583E002
:102C60008A838AE289834FB7F894DE01139620E0C5
:102C70003EE051E2E32FF0E050935700E49120FF53
:102C800003C0E295EF703F5FEF708E2F90E0EA3067
:102C9000C0F0C7968D939D932F5F243159F74FBF96
:102CA0008091E800877F8093E8006AE270E0CE01BF
:102CB00001960E9444078091E8008B778093E8009A
:102CC00006C1C096E7CF4091F2095091F309292F30
:102CD00033272330310509F444C078F5213031051C
:102CE00009F46FC08BE390E0E4E9FBE022303105AA
:102CF00009F0EDC02091E800277F2093E8002091A3
:102D0000F4093091F5098217930708F49C0140E01B
:102D10002115310509F064C0411162C08091E800BD
:102D200082FDC9CF8091EC09882329F2853019F200
:102D30008091E80083FFF2CFBECF21323105A9F1A7
:102D40002232310509F0C3C04115510509F443C0D1
:102D50004130510509F0BBC08BE790E0E9EDFAE0A6
:102D6000C9CF992781309105C1F0009759F002979A
:102D700009F0ADC0E1EEFBE0E4918E2F90E0E1EED2
:102D8000FBE007C0EFE1FCE0E4918E2F90E0EFE183
:102D9000FCE0009709F49BC0ADCFEFE0FCE0E491CC
:102DA0008E2F90E0EFE0FCE0F4CF4115510571F07B
:102DB0004130510509F08BC089E090E0EFEBFBE07A
:102DC00099CF82E190E0EFECFBE094CF89E090E0D6
:102DD000E6EAFBE08FCF80E490E0E4E5FBE08ACF19
:102DE0008091EC09882309F466CF853009F463CF1C
:102DF0008091E80083FD5FCF8091E80082FD8ECF57
:102E00008091E80080FF84CF9091F3008091F200E0
:102E10002115310519F08830910550F041E00897EF
:102E200009F040E08091E8008E778093E80070CF51
:102E300044914093F1003196215031090196E8CF39
:102E4000803809F044C08091E800877F8093E800D3
:102E50008091ED098093F1009ECE811138C01091D0
:102E6000F0091230A0F58091E800877F8093E80098
:102E70001093ED090E949806112311F084E005C01B
:102E80008091E30087FDFACF81E08093EC0942E076
:102E900061EC81E00E94B70642E261EC82E00E94B0
:102EA000B7068091EC0913C08091F009813079F464
:102EB00081E0933009F080E08093EB091092E90003
:102EC0008091E800877F8093E8000E9498068091B7
:102ED000E80083FF0AC08091E800877F8093E800C4
:102EE0008091EB0080628093EB00AA96E3E00C9463
:102EF000162C0E94A1142FEF84E39CE02150804007
:102F00009040E1F700C0000088E19AE00FB6F89425
:102F1000A895809360000FBE90936000FFCFB0E053
:102F2000A0E0E5E9F7E10C94F42B8C01FC0183812E
:102F30009481892B31F08081918189238F3F09F021
:102F4000BFC5CDB7DEB7E9E00C94102CF801828143
:102F500081110BC0C435FCE7DF0709F46CC040F5F4
:102F6000C3353CE7D30709F445C08091F808C53064
:102F70002EE7D20709F438C108F000C1CC32D105E0
:102F800009F41DC1C4309EE7D90709F424C1C33731
:102F9000FCE7DF0709F053C1F80182818823C9F1FA
:102FA00080916209882309F447C10E94840E31C0D0
:102FB000C6358CE7D80709F44CC0C7359CE7D9075C
:102FC000A1F6C0900001D0900101E0903209F0908C
:102FD00033090E94A11490E080E00E94E50BC4E751
:102FE000D8E0CC16DD0609F447C0CE010E948F1749
:102FF0002897F7CF0E94A11490E080E00E94E50B93
:103000008CE794E090937D0880937C0881E0809326
:103010007E088091EF08877009F493CFF8018281D0
:10302000882309F48ECF8091350982FF8ACF82E010
:103030000E94FC0B86CF0E94A11490E080E00E94C9
:10304000E50B84E798E090937D0880937C0882E00C
:10305000DECFC0900201D0900301E0903209F090E1
:1030600033090E94A11490E080E00E94E50BCCE7B8
:10307000D4E0CC16DD0631F40E94A114C7010E94F1
:10308000E50BC7CFCE010E948F172896F2CF809113
:103090007C0890917D08F4E08C379F0729F0FC01B3
:1030A00038972281211105C090930301809302017A
:1030B00028C5CF01F0CF80917C0890917D0828E051
:1030C0008437920729F0FC0138962281211105C02E
:1030D000909301018093000114C5CF01F0CF81309E
:1030E00031F1823009F041CF20910201309103018A
:1030F000A0917C08B0917D08F8018281811105C002
:10310000F8E0A437BF0709F430CFCD01089628179F
:10311000390709F42ACF88E0F80101900D928A95C9
:10312000E1F780917C0890917D08089722C020915A
:10313000000130910101A0917C08B0917D08F80157
:103140008281811105C0F4E0AC37BF0709F40DCFCF
:10315000CD0108972817390709F407CF88E0F8014F
:1031600001900D928A95E1F780917C0890917D08FD
:10317000089690937D0880937C08F7CEC730EEE7E1
:10318000DE0709F441C0C8F1C8302EE7D20709F0C4
:10319000FECEF8019281992309F451C06EE87EE0D9
:1031A00080E392E00E94740D80E30E94030F80E3AD
:1031B0000E94A90E69E77EE080E392E039C0982F73
:1031C0009272E9F1F8018281882309F422CF8DE21D
:1031D0000E949A0F1ECFF8018281882309F419CF2B
:1031E00082E00E94FC0B15CFF8019281992339F1FE
:1031F0008AE294E00E943F140CCFF8019281992357
:10320000F1F089E294E0F6CFF80192819923B9F0C8
:103210006EE87EE08FE292E00E94740D8FE20E94E1
:10322000030F8FE20E94A90E69E77EE08FE292E031
:103230000E94740D88E2CCCF0E94D00AEACEF090B2
:103240005F09F82A80916209811110C0F2E2FF1231
:1032500002C00E94D00AFE01E851FC47E730F105A8
:1032600008F053C0EE5DF24D0C94362C0E94C0075E
:1032700088579C4E9093610980936009F801828180
:10328000882349F38F2D8D7909F070C0C034F2E5A1
:10329000DF0768F5C11522E5D207B8F5C11530E49E
:1032A000D30750F4C11580E2D80708F053C0C63EDA
:1032B000D10559F1CE010AC0C11590E5D907D0F763
:1032C000F8018581807F39F2CE0199271092650936
:1032D0008832910508F055C08E31910508F058C02C
:1032E000049708F443C082E08093650951C0C43B51
:1032F000E2E5DE0751F0CE01C53BF2E5DF0720F540
:103300008056924580349105A8F6F8018281882381
:1033100009F40EC41092F809CE019057839708F073
:10332000F3C384E090E00E94582C90933509809379
:103330003409FE01E150F047E232F10508F050C0D7
:10334000E75DF24D0C94362C805C9245809708F036
:10335000B1CFDBCFF8018581807F09F0B5CF8D2F0C
:103360008F71823159F028F4823041F00E94840E2E
:1033700072CF843109F46FCF8631C1F7109265099D
:10338000F5CF8D32910509F4AECF28F48A9771F705
:103390000E943C0E60CF8C349105D1F38D32924067
:1033A000B9F3E4CF26E241EE61EEC8010E94B80F06
:1033B00030CE27E245EE65EEF8CF26E241EE60EE34
:1033C000F4CF27E245EE64EEF0CF26E241EE62EE66
:1033D000ECCF27E245EE66EEE8CF28E241E0EBCF06
:1033E0008091340981608093340995C080913509BA
:1033F0008860809335098FC0809134098260F3CF53
:10340000809134098460EFCF809134098860EBCFDC
:10341000809135098160EDCF809135098260E9CFD7
:10342000809134098061DFCF809134098062DBCFE5
:10343000809134098064D7CF0E94A114809134090F
:103440008068D1CF809134098C60CDCF80913509CF
:103450008360CFCF809134098E7FC5CF80913509AD
:10346000877FC7CF809134098D7FBDCF809134098C
:103470008B7FB9CF80913409877FB5CF8091350993
:103480008E7FB7CF809135098D7FB3CF809134097E
:103490008F7EA9CF809134098F7DA5CF809134098B
:1034A0008F7BA1CF0E94A114809134098F779BCF8D
:1034B00080913409837F97CF809135098C7F99CF94
:1034C0008091340982FB992790F921E0922790FBA3
:1034D00082F990FB83F987CF80913509982F9095D9
:1034E00091708E7F892B90FB81F983CF9091340965
:1034F000892F8F7B96FF806476CF0E94A1149091D4
:103500003409892F97FB87F980586DCF61E08EE0F1
:1035100090E00E945E2C609134097091350984E03E
:1035200090E00E947C2C0E94A11473CD60E0EFCF4C
:1035300090913409892F8F7E94FF806154CF9091B0
:103540003409892F8E7F90FF81604DCF909135098E
:10355000892F877F93FF88604CCF85E3E4C285E3A2
:10356000F0C20E94A114FFEF24E33CE0F1502040A0
:103570003040E1F700C0000087E797E7909301082B
:103580008093000888E19AE00FB6F894A89580939C
:1035900060000FBE90936000FFCF6FEF7FEF90E071
:1035A00080E00E947C2C0E9479178091350982FB73
:1035B000882780F991E089270E948A14F801868182
:1035C00097810097B9F10E943B09D82FC92FF801C4
:1035D000C280B580B2943FE0B3228091EF0887703B
:1035E000C1F0EC2CCC20B1F0892F807F803421F009
:1035F00080E28D0F883068F08091350982FF09C024
:1036000082E00E94FC0B8091EF088770EE24E39427
:103610008111E12CDC2ED2942FE0D222FBE0FD15AB
:1036200008F486C0ED2DF0E0E55BF24D0C94362CED
:1036300080E0C2CF8281C081D181882369F0CE0130
:103640000E943B0BF82E682FCE010E94AF0BBE01EB
:103650008F2D0E941E09B7CFCE010E947C0BF82E41
:10366000F6CF2C2F2F70F22EC07F19F0F29490EF2E
:10367000F922CC20B9F0FF2069F080E28D0F88306C
:1036800010F0D11109C080915F09F82AF0925F090A
:103690000E943C0E8D2F4AC080916509F82AF09255
:1036A0006509F6CF8D2F0E94A90EFF2009F440C0B6
:1036B00080E28D0F883010F0D11104C08F2D0E9450
:1036C000E40A06C0F09480916509F822F092650939
:1036D0000E943C0E2DC03C2F3F70F32EC07FC032A5
:1036E00019F0F29480EFF822DD2381F0D13009F453
:1036F00094C0CC2009F49EC0BB2009F494C0F8010A
:10370000858180FFC7CF8F7085838DC080913509FB
:1037100082FD37C0CC2079F1FF2039F080915F091C
:10372000F82AF0925F090E943C0E80E00E94030F8D
:10373000ED2DE850FF0B349710F40E942B0EEE2075
:10374000A9F08091EF0880FD11C0F80112828595E3
:10375000859585950E94180CC8010E948F1780914D
:10376000EF088595859585950E94EA0B60E0C80174
:103770000E94440DE6CB80E00E94A90EFF20C1F21A
:103780009DCFCC2031F1B11006C08091F8088F296F
:103790000E949F0ECDCF91E0B9120AC082FFC8CF20
:1037A0008091F808F82AF81619F2F092F808C0CFBC
:1037B000E2E0BE12EACF8F2D0E949F0E0E94CA0A3D
:1037C00080918008F82AF81609F4B2CFF0928008A8
:1037D000AFCFB11006C00E94CA0A8F2D0E94980E6A
:1037E000A7CFF1E0BF120FC080915F098F2109F4CC
:1037F0009FCF8F2D0E94980E0E94CA0A8091800848
:10380000F094F822E0CF22E0B21609F491CF8F2D88
:103810000E94980E0E94CA0A8BCFCC2031F032E071
:103820003B1508F485CF8F2DB3CF81E08B1508F4BD
:103830007FCFD3CFBB2089F2D93349F4FFEF27EEF6
:1038400033E0F15020403040E1F700C000008D2F00
:103850000E94A90E6DCF8C2F86958695837069F096
:10386000813009F065CF8D2F9C2F9370C11002C05D
:1038700080E090E00E94CC075BCF8D2F9C2F93704F
:10388000C11002C080E090E00E94F10751CF6C2D82
:103890008D2F0E946C0C4CCF8C2F837009F03FC091
:1038A000C11046CF4D2F429546954770440F440FA7
:1038B0002D2F2F7030E0042E02C0220F331F0A94E8
:1038C000E2F790E080E0D4FF09C08FE090E002C012
:1038D000880F991F4A95E2F780959095C695C695F1
:1038E000C370C23099F078F4409130095091310999
:1038F000C13039F0822B932B842395230E94360C00
:1039000017CF242B352B822B932BF8CF822B932B85
:10391000209130093091310982279327EFCF869586
:10392000CC2011F08C2F8170882309F401CF4D2F0A
:10393000429546954770440F440F2D2F2F7030E06D
:10394000042E02C0220F331F0A94E2F790E080E0B9
:10395000D4FF09C08FE090E002C0880F991F4A95FC
:10396000E2F780959095C695C695C370C23099F0E0
:1039700078F44091320950913309C13039F0822BEB
:10398000932B842395230E94E50BD2CE242B352B39
:10399000822B932BF8CF822B932B209132093091DD
:1039A000330982279327EFCFCF70CC2029F08C2FBB
:1039B0000E94180C8D2FECCE8D2F0E94980E8C2F0C
:1039C0000E94EA0BB5CED23F71F160F4D03FB9F05E
:1039D000D13F81F0CC2009F463C0B1105BCE8C2FB5
:1039E0008F7125C0D33F31F1D43FA1F780913509C4
:1039F00082FD2EC08C2F8F71CC2011F318C0CC20EB
:103A000069F081E08B1508F493CECF7181E090E0EE
:103A100002C0880F991FCA95E2F7BFCF92E09B15AD
:103A200008F486CEF2CF8C2F8F71C110C9CF0E94BF
:103A3000180C7ECE90E080E0CC2009F4A4CFCF71AA
:103A400081E090E002C0880F991FCA95E2F79BCFF2
:103A5000CC20C9F08091EF088770843041F4109237
:103A6000EF088C2F8F710E94EA0BE12C61CEE1E010
:103A7000EB15D8F3CF718C2F0E94180C63E08C2FBC
:103A80000E94280CF2CFF1E0FB1530F41092EF0801
:103A900064E08C2F8F71F4CF81E00E94FC0BE5CFA6
:103AA000BB2059F0D93309F0D2CE2FEF37EE83E0A7
:103AB000215030408040E1F7C8CE8C2F8F7180CFED
:103AC00061E0C8010E94440DEC0180917E088823CA
:103AD00009F43CCA9E0123553C472330310508F0C8
:103AE000FECA91E0C535DC4709F490E0F801228177
:103AF000291709F48ECA813009F4C9CA823009F441
:103B0000DACA10927E0885CAC631FCE7DF07E1F405
:103B100080915F098A7A91E009F490E090937F08A0
:103B200081111BCD89E20E94F80A0E943C0E71CAE5
:103B3000C631DC4709F042CD80917F0881110FCD5D
:103B400089E20E94EB0AF1CFC3303CE7D30709F4C6
:103B500024CD50F4C1159CE7D90709F402CDC1303A
:103B6000DC4709F420CD2ACDCB35FCE7DF0709F48B
:103B70005FCDCC352CE7D20709F417CDCA35DC4729
:103B800009F01CCD81E018CDCF93DF938091AA0876
:103B9000807F09F049C08091A708882309F444C0B8
:103BA0008091EE08D091AD086091A5087091A608AB
:103BB000A091A808B091A908C62FC723D817A1F1D2
:103BC00090E0109711F0CF3F19F401968770F6CF6F
:103BD0009C0143E0220F331F4A95E1F7F901E255BA
:103BE000F74F41814713F1CF40814613EECF428119
:103BF0004111EBCF438154814A1B5B0B483C51057B
:103C000020F78091AA088F7080618093AA08F9013B
:103C1000ED54F74F80818F708061808385EA98E052
:103C20000E948F170E94310BDF91CF910895A5E17B
:103C3000B0E0EDE1FEE10C94F12B8C0185E0F801A0
:103C4000DE01519601900D928A95E1F7D801129606
:103C5000EC90129785EA882E88E0982E4091A8086B
:103C60005091A9084115510509F465C19091A50825
:103C70002091A608892F82238F3F09F45CC1DC9034
:103C80001196CC9011971396AD90BC901497F0902C
:103C9000A708F501E41BF50BFF2009F415C180917D
:103CA000AA08382F307FE83CF10508F0D2C0311166
:103CB00081C0FE2C2C111FC09D111DC04091AB086E
:103CC0005091AC0816962D913C914217530799F4E8
:103CD000E11011C08F7080618093AA08C4010E9416
:103CE0008F178091AA08D80115968C938F2D659611
:103CF000ECE00C940D2CA114B10429F08D2D8C2135
:103D00008F3F09F036C180E080FF14C04E2D6C2D2E
:103D10008D2D0E94110B882369F085EA98E00E949E
:103D20008F1788E0E5EAF8E0DF011D928A95E9F750
:103D3000F12CDCCFA114B10429F08D2D8C218F3F03
:103D400009F014C180E0B82FB170AB2E80FF29C0FC
:103D50004E2D6C2D8D2D0E94110BB82E811121C07E
:103D6000D98ACA8A89899A890E946F0B292F22953C
:103D70002F70223050F0243078F49F7051F0F80109
:103D80009581907F31F4FB2CB1CF9F7011F0882387
:103D9000D1F3805E8830B8F3C8010E948F17BA2C27
:103DA000F2CFEE2009F4A2CF8091AA08816080931F
:103DB000AA08BECF2C111DC09D111BC04091AB089D
:103DC0005091AC0816962D913C91179742175307C6
:103DD00081F4E1100EC015968C93C8010E948F17D4
:103DE00088E0F801A5EAB8E001900D928A95E1F724
:103DF0007DCFC8010E943B0C882339F1EE2029F1C8
:103E00008091AA088032A0F02091A5083091A608E0
:103E10003A8729871B86BD86AC868E878091AB0842
:103E20009091AC08988B8F87CE0109960E948F17CE
:103E300088E0F801A5EAB8E001900D928A95E1F7D3
:103E40000E94C41DFF24F39451CFC8010E948F1714
:103E5000F9CF332309F461CF2C1118C09D1116C07E
:103E60004091AB085091AC08F80126813781421788
:103E7000530761F4E1100AC08583C8010E948F17BF
:103E800088E0D4011D928A95E9F730CFC8010E94DD
:103E90003B0C8823D1F2EE20C1F28091AA08803237
:103EA00038F22091A5083091A6083A8329831B8215
:103EB000BD82AC828E838091AB089091AC089887CC
:103EC0008F83CE010196B2CFE83CF105C8F6FE2CF7
:103ED000EE2009F4BACF2C1120C09D111EC02091F4
:103EE000AB083091AC08F801868197812817390713
:103EF000A1F49091AA0890FD73CF907F09F470CF40
:103F00008091AA088583903F09F467CF982F907F0E
:103F1000905F8F70892B858360CFC8010E943B0C16
:103F2000811186CF8091AA0881608093AA08C80178
:103F30000E948F17DBCEEE2009F487CFC8010E94C4
:103F40003B0CF82E882309F480CF88E0F801A5EA1D
:103F5000B8E001900D928A95E1F78091A5089091C3
:103F6000A6080E946F0B0E94C41DC0CE81E08E2562
:103F7000EACE81E08E25C8CEA0E1B0E0E2ECFFE120
:103F80000C94FB2B29873A874B875C876D877E874C
:103F90008F87988BCE0109960E94171E811112C03F
:103FA00088E0FE013996DE01119601900D928A9506
:103FB000E1F78C859D85892B29F089859A85892350
:103FC0008F3F81F58091EE089091AD08891317C05D
:103FD0006096E2E00C94172C93E0AA0FBB1F9A9511
:103FE000E1F7A255B74F98E0FE01319601900D928E
:103FF0009A95E1F78093AD080E94310BE3CFB8E0CA
:104000008B9FC00111248255974F0E94171E882351
:10401000F9F28091EE0890E00196877099278093DD
:10402000EE08D0CFA091AD08B0E0CD010196877029
:1040300099272091EE082817190671F60E94A114FD
:104040001092AD081092EE0888E0E5EAF8E0DF0192
:104050001D928A95E9F7B6CF0F931F93CF93DF9305
:1040600080916709E09166091CE081111AC0DF9117
:10407000CF911F910F91089501E00E0F00936609F3
:10408000CE2FD0E0E19FF0011124E859F64F838153
:104090009481892B29F08081918189238F3FF9F4C4
:1040A000E02F80916709E81738F3109267091092A2
:1040B0006609DDCF18968D919C918F3F9807E1F0AE
:1040C00061E00E94CF101C9FF0011D9FF00D112494
:1040D000E859F64F1482138210926509E1CF1C9FB4
:1040E000D0011D9FB00D1124A859B64F16968D9181
:1040F0009C911797892BF1F2208131814281538164
:1041000064817581868197810E94BC1FDCCF1092EB
:10411000D3091092D209109227048091D10980937B
:10412000D0090E9444080E942C200895B0E0A0E02D
:10413000ECE9F0E20C94EB2BC091D009E7E0FE2E05
:1041400001E010E0FCE02F2EAEEFEA2E8091D109C5
:104150008C1309C00E942C200E944408CDB7DEB702
:10416000E2E10C94072CD0E0FE01EE0FFF1FE853B4
:10417000F64F80819181F89EF001F99EF00D112497
:10418000EB5DFE4F2481211159C030906709A8E6EC
:10419000B9E030E020E0412C5F01231508F04CC06D
:1041A0001A966D907C901B97F501808091804FEF5F
:1041B0005FEF512CC52CD12CF601EE0FFF1FE80D3F
:1041C000F91D659174916616770609F4A601672BAF
:1041D00011F05394EFCF4F3F5407B9F1B80102C02B
:1041E000660F771F4A95E2F7462AA801052C02C000
:1041F000440F551F0A94E2F7415051094416150621
:1042000001F5229EF001239EF00D1124E859F64F8E
:10421000F89ED001F99EB00D1124AB5DBE4F1296F1
:104220002D913C91139737832683E082E182918719
:10423000808771E015967C930E9416082196C370C2
:1042400085CF14961C921E9213972F5F3F4F1C969A
:10425000A4CFA9E1B0E0EFE2F1E20C94EB2B498BA3
:104260005A8B6B8B7C8B8D8B6111109265091D862F
:104270001E861F86188A85E0FE017196DE0119965A
:1042800001900D928A95E1F78C859D85892B31F0FF
:1042900089859A8589238F3F09F0C4C129853A858C
:1042A0004B855C856D857E858F8598890E94BC1FB6
:1042B000C2C021E5A2162CE7B20629F4882379F0C2
:1042C0000E948720EBCF32E5A3163CE7B30639F412
:1042D000882329F0809127048111F2CFB3C105E230
:1042E00011E0E12CD12CC12C88248394912C9EEFD9
:1042F000592E44244394F8016081718166246A94A4
:10430000762C20E0422F50E0FA01EE0FFF1FE60F5F
:10431000F71F85919491A816B90609F43A01892BE3
:1043200011F02F5FEFCFF12CFFEF6F167F0609F42E
:1043300044C0F8014481F09027048F2D411180E0A2
:10434000F82FF170FF2EF801258086819B85992337
:1043500009F4F2C0FF2009F4EFC0211014C0A40139
:10436000062C01C0440F0A94EAF7842B86838091BF
:10437000630990916409C29730F442E350E050938E
:10438000640940936309C40102C0880F991F2A95EC
:10439000E2F70197F80126812817190671F4809138
:1043A000D2099091D309009709F449C00E94A5074A
:1043B000C39708F444C0F8014482EF28FFEFCF1AF6
:1043C000DF0A095F1F4F2EE6C216D10409F093CF12
:1043D0008B85882309F411C1EE2009F40EC10E94D7
:1043E000C0079093D3098093D209809167098830E0
:1043F00010F591E0980F9093670998E0FE013996C7
:10440000DE01119601900D929A95E1F73CE0839FB1
:10441000C00111248859964F28E0FE013196DC0135
:1044200001900D922A95E1F72FEF3FEFFC013187C4
:104430002087B386A2866996E2E10C94072C8091CE
:10444000D0096090D109982FF0E0E0E0861114C007
:104450009093D0090E171F0709F4AFCF90E0FC012D
:10446000EE0FFF1FE853F64FD182C0820196837092
:1044700099278093D109A1CF282E312CF101EE0F7D
:10448000FF1FE853F64F20813181F7E0F29FD00102
:10449000F39FB00D1124AB5DBE4F2D913C91119750
:1044A000398F288F712C60E070E0E72FF0E0EE0F7D
:1044B000FF1F288D398DE20FF31F259134912115AF
:1044C0003105E1F0F8010190F081E02DFF8BEE8BDA
:1044D00060E005C02417350709F47F2C6F5FE62FD5
:1044E000F0E0EE0FFF1F4E895F89E40FF51F459145
:1044F00054914115510571F77F5FD7CF7720C9F0EF
:10450000F801671708F0FD0144820E171F0721F418
:104510009093D009F72C51CF981305C0AE17BF0761
:1045200011F49F5F937091012F5F3F4F822F837033
:104530008DCFF0E0E0E0F7CF90E0211020C0B40193
:1045400002C0660F771F2A95E2F79B0121503109BF
:104550002817390731F4442309F44DC0C6010E94DD
:104560001608C401062C01C0880F0A94EAF7982F98
:104570009095F801868189238683F22C1ECF9C01B9
:10458000062C02C0359527950A94E2F7A9014170DF
:104590005527BC016150710986239723892B39F572
:1045A000452B29F1F80182819381892BD9F01B8257
:1045B0001C821D821E8259825A820E94C00781601D
:1045C000582F9D838C83F801828193818F839887F4
:1045D00029813A814B816D817E810E94BC1FF80147
:1045E0001582BFCF60E0C6010E94CF10F8CFF22F36
:1045F000F1702F2EB6CF2F2CB4CF9091D00980918F
:10460000D109981731F00E949620EE2009F446CE89
:1046100012CF0E942C201092D3091092D2090E942E
:104620004408F3CF61E0CE0109960E94440D5C017D
:104630008B85F0E5AF16FCE7BF0609F03ACE88237C
:1046400009F44DCE81E08093270428CEA4E0B0E0A9
:10465000ECE2F3E20C94F92B4091190950911A09FC
:1046600060911B0970911C092FB7F8948091DB09A8
:104670009091DC09A091DD09B091DE092FBF841B68
:10468000950BA60BB70B11E084369105A105B1057A
:1046900090F10E94080E882399F10E94B4076E5F82
:1046A0007F4F8F4F9F4F69837A838B839C83809149
:1046B000150190911601825F964F4091140150E0D0
:1046C0004530510510F044E050E0BE016F5F7F4F70
:1046D0000E949F2C82E090E00E94752B182F882367
:1046E00051F00E94B4076093190970931A098093DE
:1046F0001B0990931C09812F2496E4E00C94152C3F
:104700000E94B40700911E0910911F0920912009F1
:1047100030912109600F711F821F931FC0CFEF924C
:10472000FF921F93CF93DF9300D000D000D00F9261
:10473000CDB7DEB77B0190E080E00E94752B182F8B
:10474000882309F480C04091070150E041155105CC
:1047500011F041E050E06091080170910901625F41
:10476000764FCE0107960E949F2C40910A095091E6
:104770000B0960910C0970910D092FB7F894809185
:10478000DB099091DC09A091DD09B091DE092FBF12
:10479000841B950BA60BB70B84369105A105B105BB
:1047A00040F48FE099E00E9431069F81891709F457
:1047B0004AC081E090E00E94752B811116C010E084
:1047C00086E0E4E0F9E0D70101900D928A95E1F7E7
:1047D000812F27960FB6F894DEBF0FBECDBFDF91B5
:1047E000CF911F91FF90EF90089540910F0150E0FD
:1047F0004730510510F046E050E060911001709193
:104800001101625F764FCE0101960E949F2C8FE0CE
:1048100099E00E9431069F818913D1CF0E94B4078D
:1048200060930A0970930B0980930C0990930D090A
:1048300086E0FE013196A4E0B9E001900D928A95E0
:10484000E1F711E0BDCF86E0EFE0F9E0DE0111967F
:1048500001900D928A95E1F71111EACFB1CFA2E153
:10486000B0E0E5E3F4E20C94F02B8E010F5F1F4FF4
:104870008CE0D8011D928A95E9F785E6C82E84E080
:10488000D82EF12CE12CAA24A394B12C21E7822E5E
:1048900024E0922EF60181916F018F3F09F442C00E
:1048A000F894E82FE295EF70F0E021A18F70A50158
:1048B00002C0440F551F8A95E2F7CA01922F982B28
:1048C00091A392A18095892382A3789400C0EBE6FE
:1048D000F4E0712C31E021912F3F09F46BC0A22F3D
:1048E000A295AF70B0E090968C9190E02F7002C0CE
:1048F000959587952A95E2F780FD5CC0832F782AED
:10490000330F8E169F0639F7F601319780818F3F5E
:1049100011F00E94C40850EA5A95F1F7F801EE0D23
:10492000FF1D70828FEFE81AF80AA6E0EA16F1047C
:1049300009F0B0CF4CE050E0B80182E299E00E946B
:10494000922C009741F02CE0F801A2E2B9E001902E
:104950000D922A95E1F700912F09892B69F181E0E9
:104960008093FB080E94C0079093FA088093F9088F
:104970008091F9089091FA080E94A507059700F127
:1049800010E0085C164F46E050E062E279E0C801B2
:104990000E94922CB12C892B51F086E0E2E2F9E0E2
:1049A000D80101900D928A95E1F7BB24B39410923F
:1049B000FB0807C080E0A3CF8091FB088111D8CF0E
:1049C000B12C0E94080EF82EE0912F09882309F4DB
:1049D0006DC06E01BDE0CB0ED11C86E0D6011D92EC
:1049E0008A95E9F70E2F10E0085C164F80911D099B
:1049F0008A3050F54FE853E2B601C8010E94D50D48
:104A0000882309F442C046E253E2B601C8010E947D
:104A1000D50D8823D1F110921D0980912E0990E0C7
:104A200046E050E0B601885C964F0E94922C21E04F
:104A300020930209892BE1F4F12C1F2D812F8B2962
:104A40006296EDE00C940C2C8091FC089091FD088E
:104A50000E94A507843F914068F68091020988234F
:104A600059F386E0F60111928A95E9F7109202094E
:104A7000A0912E09B0E0A85CB64F86E0FE013D96FD
:104A800001900D928A95E1F7D8CF80911D098F3F53
:104A900031F08F5F80931D098A3008F4BECF0E94E9
:104AA000C0079093FD088093FC08D7CFF0E0E85C46
:104AB000F64F86E0AFE0B9E001900D928A95E1F7FC
:104AC0008FE099E00E94310680930E09C09015098D
:104AD000D0901609E0901709F09018098091FE080F
:104AE0009091FF08A0910009B0910109C816D9065C
:104AF000EA06FB0611F410E0A1CFC092FE08D092A6
:104B0000FF08E0920009F09201090E94080E182F98
:104B10008111F1CF0E94B407C61AD70AE80AF90A30
:104B2000C0921E09D0921F09E0922009F09221093B
:104B300085CF1F920F920FB60F9211242F933F93A0
:104B40004F935F936F937F938F939F93AF93BF9395
:104B5000CF93DF93EF93FF93D091E900DF708091C3
:104B6000EC00C82FC17080FDC0E81092E900809170
:104B7000F000877F8093F00078940E94C814109210
:104B8000E9008091F00088608093F000CD2BCF7019
:104B9000C093E900FF91EF91DF91CF91BF91AF9169
:104BA0009F918F917F916F915F914F913F912F9145
:104BB0000F900FBE0F901F9018951F920F920FB677
:104BC0000F9211242F933F934F935F936F937F9393
:104BD0008F939F93AF93BF93EF93FF938091E100E7
:104BE00082FF09C08091E20082FF05C08091E10050
:104BF0008B7F8093E1008091DA0080FF24C0809158
:104C0000D80080FF20C08091DA008E7F8093DA0088
:104C10008091D90080FF9DC080E189BD82E189BD7E
:104C200009B400FEFDCF81E08093EC098091DF099B
:104C3000811109C00E9448060E94E9068091E200A5
:104C400084608093E2008091E10080FF17C0809132
:104C5000E20080FF13C08091E2008E7F8093E2002B
:104C60008091E20080618093E2008091D8008062B0
:104C70008093D80019BC85E08093EC098091E10015
:104C800084FF2BC08091E20084FF27C080E189BDB2
:104C900082E189BD89B5982F917080FFFBCF80910B
:104CA000D8008F7D8093D8008091E1008F7E809323
:104CB000E1008091E2008F7E8093E2008091E2002B
:104CC00081608093E2008091ED09882309F447C058
:104CD00084E08093EC098091EC098091E10083FFEE
:104CE00027C08091E20083FF23C08091E100877F8D
:104CF0008093E10082E08093EC091092ED098091AD
:104D0000E1008E7F8093E1008091E2008E7F8093AE
:104D1000E2008091E20080618093E20042E060E086
:104D200080E00E94B7068091F00088608093F000D8
:104D3000FF91EF91BF91AF919F918F917F916F9173
:104D40005F914F913F912F910F900FBE0F901F9049
:104D5000189519BC1092EC091092DF0974CF80915C
:104D6000E30087FD93E09093EC09B5CF78941F9210
:104D70001FB61F9211248F939F93AF93BF9380917F
:104D8000DB099091DC09A091DD09B091DE09019663
:104D9000A11DB11D8093DB099093DC09A093DD096F
:104DA000B093DE09BF91AF919F918F911F901FBE6D
:104DB0001F9018951F921FB61F9211248F939F93D7
:104DC000AF93BF938091DA09811113C08091DB0901
:104DD0009091DC09A091DD09B091DE094196A11DF9
:104DE000B11D8093DB099093DC09A093DD09B0939A
:104DF000DE09BF91AF919F918F911F901FBE1F90B1
:104E00001895CDB7DEB760970FB6F894DEBF0FBE2A
:104E1000CDBF85B7806885BF85B7806885BF84B7FB
:104E2000877F84BF0FB6F894A89580916000886151
:104E300080936000109260000FBE80E890E00FB693
:104E4000F89480936100909361000FBE82EC98E02B
:104E500090937304809372040E9448060E94E906AE
:104E60008091E20084608093E20078948091EC0964
:104E70008823A1F01091E9001F709091EC00892F18
:104E8000817090FD80E8182B1092E9008091E80075
:104E900083FD0E94C8141F701093E90082E084BD56
:104EA00093E095BD9AEF97BD80936E0010921E0916
:104EB00010921F0910922009109221090E94080ED9
:104EC00080931C010E94080E81110E94892A809102
:104ED0001C0180911C0196E0811190E090932F09B4
:104EE00086E0891B80932E0905E614E07BE6E72E19
:104EF00074E0F72ED8018D918D018F3F11F00E9443
:104F0000C408E016F106B1F70BE614E061E7E62EFF
:104F100064E0F62EF80181918F018F3F11F00E941D
:104F2000C408E016F106B1F78CE0E8E3F9E0DF0130
:104F3000282F1D922A95E9F7E2E2F9E0DF011D92A0
:104F40008A95E9F790E080E00E94582C873E9E4FBA
:104F500009F45EC067EE7EEF90E080E00E947C2C5A
:104F600060E082E090E00E945E2C60E083E090E0F0
:104F70000E945E2C109231091092300960E074E1B9
:104F800084E090E00E947C2C60E086E090E00E944B
:104F90005E2C6FEF87E090E00E945E2C40E050E0D6
:104FA000BA0188E090E00E94702C60E08DE090E013
:104FB0000E945E2C40E050E0BA0188E190E00E943F
:104FC000702C60E087E190E00E945E2C40E050E0B1
:104FD000BA018CE190E00E94702C70E060E080E209
:104FE00090E00E947C2C40E050E0BA0188E190E023
:104FF0000E94702C40E050E0BA018FE090E00E94E7
:10500000702C40E050E0BA0183E190E00E94702CE7
:1050100082E090E00E94502C8093440984E090E06C
:105020000E94582C909335098093340983E090E0D6
:105030000E94502C90E00E94360C0E94080E8111B4
:1050400002C00E948C2A8DE191E09093D709809351
:10505000D60908E110E040E4D42E54E4E52E59E0EE
:10506000F52E30E1C32E8091EC0922E1B22E85307D
:1050700009F480C00E942F2485E4A82E89E0B82E70
:1050800098E3892E99E0992ED401F50191918D91A3
:1050900029E0E135F20709F477C09817B9F30E94C7
:1050A000080E282E712CD4016D904D01F501319020
:1050B0005F01361429F13624512C44244394842D65
:1050C0008321B1F02220A1F05C867D8691E0842DC1
:1050D000862109F490E09E870E94C0078160782FA6
:1050E000988B8F874C855D856E8588890E942921E4
:1050F0005394440CF6E05F12E2CFF50131976082E1
:1051000073942CE07212CFCF0E94B4075DC08091DF
:10511000EC09843009F11092DA090FB6F894A895D9
:10512000009360000FBED092600083B7817F8460DF
:1051300083BF83B7816083BF7894889583B78E7F60
:1051400083BF0FB6F894A895809160008861809322
:105150006000109260000FBE8091EB09882351F02F
:105160000E942F24E8E3F9E0819181115CC1EE16E1
:10517000FF06D1F78091EC09853009F4C8CF0E9471
:10518000A1140E942B0E76CF981389CF0E94C007DE
:105190005C018091360990913709A816B906A1F0F3
:1051A0008FEF8F83888719860E94C0078160782FD0
:1051B0009B878A874F81588569858B850E94292125
:1051C000B0923709A09236090E94080E8823A9F1EF
:1051D00080912704882301F18091D2099091D3090D
:1051E0000097D1F00E94A5072091630930916409CE
:1051F0002817390788F49091D0098091D109981720
:1052000009F4F8C00E949620109264091092630974
:105210001092D3091092D20980916209882369F013
:105220000E94C0072091600930916109821B930B95
:105230008F3F9F4710F40E94840E86E0E9E5F9E075
:10524000DE01119601900D928A95E1F710925B09AB
:1052500010925C0910925D0910925E098B819C810D
:10526000892B09F44AC080915709909158090E94EE
:10527000A5079C0190915209992309F4EEC02531AC
:105280003105D8F19F3F19F09F5F90935209BB8081
:10529000BB2059F00E949E089FEF1B140CF491E074
:1052A000899F802D112480935B09BC80BB2059F01D
:1052B0000E949E089FEF1B140CF491E0899F802DA3
:1052C000112480935C0930915B093323B1F0209164
:1052D0005C09222391F045EB3403C001112499238A
:1052E00009F491C090935B0945EB240390011124CC
:1052F000332309F48CC030935C098D819E81892B06
:1053000009F44AC080915509909156090E94A50759
:105310009C0190915309992309F49BC021353105D3
:10532000D8F19F3F19F09F5F90935309BD80BB2038
:1053300059F00E947C089FEF1B140CF491E0899FA8
:10534000802D112480935D09BE80BB2059F00E94FE
:105350007C089FEF1B140CF491E0899F802D112491
:1053600080935E0930915D093323B1F020915E098D
:10537000222391F045EB3403C0011124992309F451
:105380004AC090935D0945EB240390011124332317
:1053900009F445C030935E0946E050E0BE016F5FFE
:1053A0007F4F89E599E00E94922C892B61F48091CE
:1053B0005B0990915C09892B90915D09892B9091F3
:1053C0005E09892B11F00E94550886E0FE01319696
:1053D000A9E5B9E001900D928A95E1F70E942B0EA4
:1053E00090915109891709F43ECE809351090E948A
:1053F000B40737CE0E942C201092D3091092D20904
:105400000E94440809CF81E080935B096DCF81E061
:1054100080935C0972CF81E080935D09B4CF81E015
:1054200080935E09B9CFC9BCB9BC09B400FEFDCFF9
:105430008091D8008F7D8093D8008091E0008260B9
:105440008093E0008091E00081FDFCCF0E94A114D8
:1054500091CE232B09F067CF9FCF232B09F014CFD8
:105460004CCF8EE1489B02C08150E1F7489BFECFB4
:105470000895589880E28A95F1F7589A0895FC01AA
:105480003BE03A95F1F798E020E080E031E040E140
:105490004A95F1F7880F489B02C08160232742E0BC
:1054A0004A95F1F7000040E14A95F1F7915079F7FC
:1054B00090E19A95F1F799B132E03A95F1F7000051
:1054C00040E14A95F1F7917092272081920F9083E5
:1054D0000895A1E0B0E0EFE6FAE20C94F72B198210
:1054E0008C017C01E60EF11C0E151F0541F481E0D4
:1054F0009981911180E02196E6E00C94132C0E9492
:10550000312ACE0101960E943F2AF80181938F0132
:10551000EBCF509A589A08955098589AE89AE9E62D
:10552000F0E080818C7F808308956150770B91E05B
:1055300001C0990F6A95EAF720E031E0911108C0A7
:10554000222391F0589A80E28A95F1F758980895AD
:10555000492F482339F0589A232740E24A95F1F71A
:105560009695ECCF5898F9CF5898EDCFFF920F93BE
:105570001F93CF93DF93EC018C01060F111DC01711
:10558000D10729F4CDB7DEB7E5E00C94142CF990DF
:105590000E94392A68E08F2D0E94952AF0CF1F9231
:1055A0000F920FB60F9211240F931F932F933F93D7
:1055B0004F935F936F937F938F939F93AF93BF931B
:1055C000EF93FF93CF93DF930F92CDB7DEB719829E
:1055D0000E94312ACE0101960E943F2A082F06958B
:1055E00006950695282F22952570902F9570290FE6
:1055F000922F937026952695920F98279770898100
:10560000982B09F05CC0043008F059C080E18A95FD
:10561000F1F7589A509A82E08A95F1F700C05898AD
:1056200088E0089F80011124D801AC5FBE4F169618
:10563000ED91FC9117973097A9F0609163047091F8
:10564000640414962D913C911597260F371F1196DF
:105650008D919C911297680F791F13964C91139717
:105660008C910995F801EC5FFE4F6381662351F040
:10567000209163043091640484819581820F931F8B
:105680000E94B62A0E94392A80E18A95F1F758983B
:105690005098589A80E18A95F1F7F801EC5FFE4F37
:1056A0006081662351F0209163043091640481810C
:1056B0009281820F931F0E94692A0E94312A0F90C3
:1056C000DF91CF91FF91EF91BF91AF919F918F911A
:1056D0007F916F915F914F913F912F911F910F910A
:1056E0000F900FBE0F901F9018950F931F93CF939D
:1056F000DF93EC0104970CF04CC0F894509A589842
:1057000085E08A95F1F700009C2F969595708C2F77
:105710008570980F892F83709695969523E0CC0F0E
:10572000DD1F2A95E1F7980F8E01092B0E94392A77
:1057300000C068E0802F0E94952A80E18A95F1F7E9
:105740005098589A489B1EC087E090E048991CC02A
:10575000FE01EC5FFE4F63816623F9F02091630444
:105760003091640484819581820F931F0E94692A7D
:10577000811113C0509A589A7894DF91CF911F915C
:105780000F91089500C0DECF019729F4509A589ADE
:10579000789480E0F2CF00C0D9CF0E94312A80E215
:1057A0008A95F1F75898509A80E18A95F1F7CC5F85
:1057B000DE4F6881662351F02091630430916404C8
:1057C00089819A81820F931F0E94B62A0E94392AEA
:1057D000789481E0D2CF2F923F924F925F926F9256
:1057E0007F928F929F92AF92BF92CF92DF92EF9271
:1057F000FF920F931F93CF93DF93CDB7DEB7CA1BF2
:10580000DB0B0FB6F894DEBF0FBECDBF09942A881C
:10581000398848885F846E847D848C849B84AA84C4
:10582000B984C884DF80EE80FD800C811B81AA8151
:10583000B981CE0FD11D0FB6F894DEBF0FBECDBF1C
:10584000ED01089597FB072E16F4009407D077FD1D
:1058500009D00E943C2C07FC05D03EF49095819520
:105860009F4F0895709561957F4F0895EE0FFF1F2C
:105870000590F491E02D0994AA1BBB1B51E107C0D0
:10588000AA1FBB1FA617B70710F0A61BB70B881FD0
:10589000991F5A95A9F780959095BC01CD0108955F
:1058A000F999FECF92BD81BDF89A992780B50895E8
:1058B000A8E1B0E042E050E00C94842C262FF99946
:1058C000FECF92BD81BDF89A019700B4021639F05F
:1058D0001FBA20BD0FB6F894FA9AF99A0FBE089530
:1058E0000396272F0E945F2C0E945E2C252F0E947A
:1058F0005F2C242F0C945F2C0196272F0E945F2C85
:105900000C945E2CDC01CB01FC01F999FECF06C0A2
:10591000F2BDE1BDF89A319600B40D92415050406D
:10592000B8F70895FB01DC0104C08D910190801946
:1059300021F441505040C8F7881B990B0895FB0192
:10594000DC0102C001900D9241505040D8F70895FB
:10595000F894FFCFD810E010E810F010F810001104
:10596000081110111811201128113011381140118F
:10597000481150115811601168117011781180117F
:10598000881190119811A011A811B011B811C0116F
:10599000C811D011D811E011E811F011F81100125E
:1059A0000812101218122012281230123812401247
:1059B0004812501258126012681270127812801237
:1059C000881290129812A012A812B012B812C01227
:1059D000C812D012D812E012E812F012F812001316
:1059E00008131013181320132813301338134013FF
:1059F00048135013581360136813701378138013EF
:105A0000881390139813A013A813B013B813C013DE
:105A1000C813D013D813E013E813F013F8130014CD
:105A200007140E1415141C1423142A1431143814DA
:105A3000A715CF156717CF15671702162316671717
:105A400020172D17DD19E119D219D919E519E9190E
:105A5000ED192A1A9F1A321AFC19001A361A041A5A
:105A60003A1A461A101A981A141A4A1A181A4E1A7A
:105A7000761A1C1A521A7D1A221A581A601A081A13
:105A80003E1A0C1A421A261A5C1A6C1A861A961AB0
:105A9000F6192E1AA61A311B311B6B1B6B1B2B1C04
:0E5AA000471C981B981B4C1CD41CE31CE31CD9
:105AAE0074087C04000000010000000000000006E5
:105ABE0001000000040700000000000001A207C161
:105ACE000DBA0DB30DD2040000000000C804000092
