:100000000C944A060C94772B0C9467060C946706A4
:100010000C9467060C9467060C9467060C946706AC
:100020000C9467060C9467060C9485260C94412664
:100030000C9482270C9467060C9467060C94670650
:100040000C9467060C9467060C9467060C9467067C
:100050000C9467060C945E270C9467060C94670654
:100060000C9467060C9467060C9467060C9467065C
:100070000C9467060C9467060C9467060C9467064C
:100080000C9467060C9467060C9467060C9467063C
:100090000C9467060C9467060C9467060C9467062C
:1000A0000C9467060C9467060C9467062C002A00D3
:1000B0000F001A0000002A000F001A0000002C0098
:1000C00008001100170000000800110017000000D0
:1000D0002C002A001000150000002A001000150056
:1000E00000002C002A00120015001C0000002A004D
:1000F000120015001C0000002C002A00080015004A
:10010000190000002A0008001500190000002C004A
:100110002A0012001500190000002A001200150024
:10012000190000002C002A000A0010001600000030
:100130002A000A001000160000002C000C0010001D
:10014000170000000C001000170000002C002A000F
:100150000C00110000002A000C00110000002C000F
:100160002A00070000002C002A00120015000000E1
:100170002A001200150000002C002A0010001700B1
:1001800000002A001000170000002C002A000C00BC
:100190000F0000002A000C000F0000002C002A00B5
:1001A0000500110000002A000500110000002C00CD
:1001B0002A00150000002C002A0010001600000084
:1001C0002A001000160000002C002A001000000079
:1001D0002C002A001700180000002A001700180041
:1001E00000002C002A001A0000002C0005001C0052
:1001F00000002C002A000A00110000002A000A005A
:10020000110000002C002A0011001A0000002A0032
:1002100011001A0000002C002A001C0000002C0015
:100220002A000B000C0000002A000B000C0000004C
:1002300006001A0000002C000700110000002C002E
:100240002A0004001200170000002A000400120017
:10025000170000002C002A000700160000002A00EA
:100260000700160000002C002A000B000C001700ED
:1002700000002A000B000C00170000002C002A00D0
:1002800008001A0000002A0008001A0000002C00D4
:100290002A000600180000002A00060018000000CE
:1002A0002C002A001200170000002A00120017007C
:1002B00000002C002A000400150000002A000400A1
:1002C000150000002C002A000B001200150017007A
:1002D00000002A000B0012001500170000002C007F
:1002E0002A000B001A0000002A000B001A00000070
:1002F0002C002A0007001100120000002C002A0028
:1003000004000C0000002C002A0009001000170057
:1003100000002C002A00050000002C002A00050027
:10032000180000002A000500180000002C002A0018
:10033000170000002C002A0018001A0000002A00F4
:1003400018001A0000002C002A0008000B001500FD
:1003500000002A0008000B00150000002C002A00F5
:100360000800150000002A000800150000002C00FD
:100370002A0004000F0000002A0004000F00000003
:100380002A0007000B0000002C000B0019000000E1
:100390000B00190000002C002A0007000B000000D1
:1003A0002C002A000B0017001C0000002A000B0084
:1003B00017001C0000002C002A000900100000009B
:1003C0002A000900100000002C002A001600170067
:1003D00000002A001600170000002C001100120077
:1003E000170000002C001100120000002C002A0051
:1003F000040000002C002A00160000002A00110052
:10040000170000002C002A000B00120000002C0036
:100410002A000800160000002A000800160000004C
:100420002C002A000900150000002A000900150010
:1004300000002C002A000C0000002C002A000B00F9
:10044000160000002A000B00160000002C002A00F5
:100450001100120000002A001100120000002C0000
:100460002A0018001C0000002A0018001C000000D0
:100470002C002A0004001A0000002A0004001A00C0
:1004800000002C002A000C001A0000002A000C00BA
:100490001A0000002C002A000B0000002C002A008B
:1004A0001100170000002C002A000A000C000000B8
:1004B0002A000A000C0000002C002A000B00150086
:1004C00000002A000B00150000002C002A0011007B
:1004D00000002C002A000400170000002A0004007D
:1004E000170000002C002A0009000B0000002C005F
:1004F0002A00090000002C002A00120000002C0035
:100500002A000400070000002A0004000700000081
:100510002C002A000B00170000002A000B00170017
:10052000000077696C6C200077696C6C00746865FA
:100530006E20007468656E006D6F726520006D6FCF
:10054000726500796F75722000796F75720065763B
:100550006572200065766572006F76657220006FA7
:1005600076657200736F6D657468696E67200073DD
:100570006F6D657468696E670074696D65200074DD
:10058000696D6500696E746F2000696E746F006438
:100590006F20006F757220006F7572007468656D52
:1005A00020007468656D006C696B6520006C696B78
:1005B00065006265656E20006265656E006F722081
:1005C00000736F6D652000736F6D65006D652000B1
:1005D0007468726F75676820007468726F756768F9
:1005E0000077652000627920007468696E672000DA
:1005F0007468696E67007768656E20007768656E5D
:10060000006D79200068696D200068696D00776869
:1006100069636800646F206E6F74200061626F759B
:1006200074200061626F75740073616964200073E7
:100630006169640074686569722000746865697234
:10064000007765726520007765726500636F756C71
:10065000642000636F756C64006F757420006F75A3
:1006600074006172652000617265006F7468657264
:1006700020006F7468657200776861742000776885
:10068000617400646964206E6F742000697420775F
:100690006173200066726F6D20746865200062656A
:1006A0002000627574200062757400617420007708
:1006B0006F756C642000776F756C64007468657288
:1006C000652000746865726500657265200065725A
:1006D0006500616C6C2000616C6C0068616400688E
:1006E00061766520006861766500616E64207468DB
:1006F0006520007468657920007468657900667209
:100700006F6D200066726F6D0074686973200074ED
:10071000686973006F6E2074686520006F6E20003A
:10072000617320006973200074696F6E00746F201C
:100730007468652000736865200073686500666FE3
:10074000722000666F72006974200068697320006F
:10075000686973006E6F7420006E6F7400796F7536
:100760002000796F750077617320007761730077DF
:100770006974682000776974680068652000696E94
:10078000207468652000696E672000696E670068E4
:100790006572200068657200696E2000746861747B
:1007A000200074686174006F662074686520006FB3
:1007B000662000746F2000616E642000616E64002A
:1007C00074686520007468650045003A003B003C91
:1007D000003D003E00350014001A0009001300051A
:1007E00000390004001500160017000A00A8521D69
:1007F000001B0006000700190000000000567C578F
:100800007C2C00825200000000A152A452A2522B64
:10081000003F00400041004200430044000D000F33
:100820000018001C00330031001000110008000CFB
:1008300000120034000E000B003600370038002D87
:100840000083522A004A004D00000000002800B238
:100850005229004C000000000001000100010001CD
:100860000001000100010014001A00080015001723
:1008700000010004001600070009000A0001001D25
:10088000001B0006001900050000000000537C5406
:100890007C010001000000000001000100010001D6
:1008A000000100010001000100010001001C00180E
:1008B000000C001200130001000B000D000E000FD1
:1008C000003300010011001000360037003800012D
:1008D0000001000100010001000000000001000112
:1008E00000010001000000000024525300460047B0
:1008F000004800BD00A800077E087E2F023002BE1F
:1009000000A9002F003000260227024900AA000497
:10091000011B0106011901190500000000537C5458
:100920007C0100010000000000010001002A01011B
:1009300000057E2302240220021E026152067E244C
:100940000025002600220221023600210022002379
:1009500000550057002E001E001F002000540056B6
:10096000000100010027003700000000000100B274
:1009700000010001000000000024520100010001FC
:10098000000100010001002F003000520065004C02
:10099000054B000100500051004F0001004E0004C3
:1009A000011B01060119011905000000002B132B82
:1009B000010100010000000000010001002A010106
:1009C00000010001000100010001006152077E27C3
:1009D00002260230002F004600087EE400E500E613
:1009E00000E70001002302240220021F021E020170
:1009F00000010001000100010000000000010001F1
:100A000000010001000000000000003A003B003C33
:100A1000003D003E00007C000000000000000000DF
:100A200000000000000000000000000000007C004A
:100A300000000000000000007C000000000000003A
:100A400000010001000000000001000100010001A0
:100A5000003F004000410042004300000000000051
:100A60000000000000000000000000000000000086
:100A70000000000000000000000000000000000076
:100A80000001000100000000000000000001000162
:100A90000001000100000000000000000000000054
:100AA0000000000000000000000000000000000046
:100AB000000000000000000000000000007E0F00A9
:100AC000D4FFFFFFC7000000780000000000000016
:100AD000002A2B2800000000000000000000000099
:100AE0000000000029000000002C1E3420212224D8
:100AF000342627252E362D3738271E1F2021222366
:100B00002425263333362E37381F040506070809F7
:100B10000A0B0C0D0E0F10111213141516171819BD
:100B20001A1B1C1D2F3130232D350405060708091B
:100B30000A0B0C0D0E0F101112131415161718199D
:100B40001A1B1C1D2F3130354C05010902A10185EE
:100B5000020901A1000509190129081500250195BF
:100B600008750181020501093009311581257F953C
:100B7000027508810609381581257F950175088160
:100B800006050C0A38021581257F95017508810636
:100B9000C0C005010980A101850319012AB700150C
:100BA0000126B700950175108100C0050C0901A14F
:100BB00001850419012AA002150126A002950175DC
:100BC000108100C005010906A101050719E029E708
:100BD00015002501950875018102950175088101AF
:100BE0000507190029FF150026FF009506750881E5
:100BF00000050819012905950575019102950175F2
:100C0000039101C009023B00020100A0FA0904009F
:100C10000001030101000921110100012240000728
:100C20000581030800010904010001030000000917
:100C30002111010001227B0007058203200001121F
:100C4000010002000000084D443635010001020099
:100C5000012C03440061006300740079006C002DD6
:100C6000004D0061006E00750066006F0072006D3F
:100C70000020002800350078003600290000000E12
:100C8000037400730068006F0072007400000004B9
:100C90000309040011241FBECFEFDAE0DEBFCDBF91
:100CA00014E0A0E0B1E0EAE1FCE502C005900D929D
:100CB000A43DB107D9F72AE0A4EDB4E001C01D922C
:100CC000AB35B207E1F70E94A9270C94502D0C9484
:100CD0000000FC01AC014A5F5F4F8FEF91E321916F
:100CE000822728E030E087FF09C0880F892721503C
:100CF0003109C9F7E417F50791F70895880FF7CF81
:100D0000E8EDF0E080818E7F80831092E200109207
:100D1000DA001092E100A0EEB0E08C9181608C933B
:100D200080818F77808319BCA7EDB0E08C918E7F96
:100D30008C9380818F7E80831092410A0895209148
:100D4000E4003091E50095E6A9012091EC00822FA6
:100D5000817020FF06C08091E80080FF06C080E01F
:100D600008952091E80022FD1AC080914E0A882340
:100D700089F0853089F08091EB0085FD0FC02091CE
:100D8000E4003091E50042175307F9F29150E1F683
:100D900084E0089582E0089583E0089581E0089555
:100DA0008091500A87FF13C08091E80082FF06C03F
:100DB0008091E8008B778093E80004C080914E0A10
:100DC0008111F2CF089580914E0A8823D9F3809142
:100DD000E80080FFF8CF8091E8008E77ECCF982F65
:100DE0009093E900242F762F50E0891731F070910D
:100DF000EC002091ED005091F00021FD07C09F5FB5
:100E0000973071F78093E90081E008953091EB000D
:100E10003E7F3093EB003091ED003D7F3093ED004D
:100E20003091EB0031603093EB007093EC00209335
:100E3000ED005093F0002091EE0027FDE0CF80E020
:100E40000895B0E0A0E0E7E2F7E00C949D2CC8ED37
:100E5000D0E088818F7E8883E7EDF0E0808181603B
:100E6000808384E082BF81E08093410A88818E7F05
:100E7000888302EE10E0F80110821092DA0081EE11
:100E8000C82ED12CF601108288818F7788838881C3
:100E90008068888388818F7D888319BC10924E0A70
:100EA00010924F0A10924D0A10924C0A90EEE92EC1
:100EB000F12CF70180818B7F80838881816088831A
:100EC00042E060E080E00E94EF06F60180818E7FC4
:100ED0008083F80180818160808380818860808345
:100EE000F70180818E7F8083888180618883CDB780
:100EF000DEB7E8E00C94B92CFC018091560A909181
:100F0000570A86179707A0F06115710529F490918B
:100F1000E8009E779093E80090E06115710551F428
:100F2000911108C08091E80082FF34C080E00895EC
:100F3000BC01F2CF80914E0A8823C1F18530C1F106
:100F40008091E80083FD30C08091E80082FDEACF07
:100F50008091E80080FFE1CF8091F3002091F200C2
:100F6000382F6115710519F02830310558F091E0DE
:100F70002830310509F090E02091E8002E77209389
:100F8000E800CBCF81918093F100615071092F5F10
:100F90003F4FE7CF80914E0A882341F0853041F0E2
:100FA0008091E80083FFBECF81E0089582E008953C
:100FB00083E008958091430A08959C014FB7F89407
:100FC00080913D0A90913E0AA0913F0AB091400A5B
:100FD0004FBF821B930B08952FB7F89460913D0A81
:100FE00070913E0A80913F0A9091400A2FBF089568
:100FF0002FB7F89480913D0A90913E0AA0913F0A44
:10100000B091400A2FBF0895A3E0B0E0EAE0F8E015
:101010000C94A32C20913A0A30913B0A28173907E7
:10102000A1F090933B0A80933A0AE091380AF0913C
:10103000390A309751F024E029839B838A83068004
:10104000F781E02DCE01019609952396E2E00C94FC
:10105000BF2CA3E0B0E0EFE2F8E00C94A32C2091C9
:10106000360A3091370A28173907A1F09093370ACA
:101070008093360AE091380AF091390A309751F09E
:1010800023E029839B838A830680F781E02DCE01AC
:10109000019609952396E2E00C94BF2CDC01609147
:1010A000320A8091330A962F891301C00895292F9F
:1010B00030E0F901EE0FFF1FE65DF54F40815181F1
:1010C0004A175B07A1F487E08A9FA0018B9F500D10
:1010D00011244B5D5E4F81E0FA0184839613E6CFC5
:1010E0002F5F3F4F237033272093320A08952F5FDD
:1010F0003F4F922F9370D8CF1092C6091092C50916
:10110000E5E2F1E08581811102C0148216823796F2
:1011100084E0E938F807B1F708950E94F8079C01C8
:101120009091BD098091BE09982B21F03093BA09A6
:101130002093B9099091BF098091C009982B21F0A3
:101140003093B8092093B709E091380AF091390A31
:10115000309749F082E08093BB090480F581E02D4F
:101160008BEB99E0099508958091B60980FD16C032
:1011700081FD16C082FD16C08091B5098823A1F0BB
:10118000883280F428E0829FC001112468E270E078
:101190000E94CA2C862F672B39F0089582E00895AB
:1011A00084E0089588E0089581E008958091B6096B
:1011B00080FD16C081FD16C082FD18C08091B40963
:1011C000882391F08C3390F428E3829FC00111248E
:1011D0006CE370E00E94CA2C862F672B49F00895BB
:1011E0008EE008958CE1089588E0089588E30895DD
:1011F00081E0089580E00895F894E82FE295EF707B
:10120000F0E031A1282F2F7081E090E001C0880F1D
:101210002A95EAF7982F9095932391A392A1892B71
:1012200082A3789408959091960992FF06C0282F82
:1012300028712830F9F4877F846093FF06C0282F37
:1012400028712831F1F4877E84612091970920FF6D
:1012500006C0382F38713830D9F4877F816021FF7C
:1012600006C0282F28712831D1F4877E816194FD32
:10127000877E0895282F24712430F9F68B7F8860AB
:10128000DCCF282F2471243101F78B7E8861DDCFDC
:10129000382F3171313019F78E7F8860E0CF282FD9
:1012A0002171213121F78E7E8861E1CF972F7C302B
:1012B000B8F46630A8F4853098F470E026E0929F88
:1012C000600D711D1124FB0198E4899FE00DF11D53
:1012D0001124EE0FFF1FE753F84F85919491089565
:1012E00080E090E00895CF93DF93EC018238910580
:1012F000B9F108F041C08133910509F49FC050F560
:101300008932910509F48FC08A9709F49EC0C115EE
:1013100020E5D20708F0BDC0C11530E4D30708F0BE
:101320000AC1C03ED10508F0A5C0CD3CD10508F0EA
:1013300000C1C83AD10508F08FC0C53AD10508F000
:10134000F0C0C130D10539F1209729F1C430D10561
:1013500010F546C08533910509F460C0C997B9F608
:1013600080919609837009F044C18091970983FFA9
:1013700012C0C9E2D0E00FC0833E9105A1F178F41C
:10138000803E910509F1823E910509F0C0CF809120
:10139000960982FD21C0CE01DF91CF910895863E4E
:1013A000910561F1873E910571F1843E910509F047
:1013B000AECF8091970981FFEECF80919609C7EE5D
:1013C000D0E084FD0DC0E7CF8091960980FD33C049
:1013D0009091970990FFDFCFC3EED0E084FFDBCF81
:1013E000D0E0C0E0D8CF8091960982FDFFC09091F7
:1013F000970990FDFEC084FFCECFF2CF8091960971
:1014000083FDDDCFC8CF8091960983FDF5C0909113
:10141000970991FFF0CFC4EED0E0BDCF809196093F
:1014200085FFB9CFA6CF8091960985FDE8C0809150
:10143000970983FFB0CFC9E3D0E0ADCF8091960983
:1014400086FFA9CFCAE2D0E0A6CF8091960986FF99
:10145000A2CFC1E3D0E09FCFC13CD10508F6C85A66
:10146000D0E0CC0FDD1FCD56DB4F0990D881C02DC9
:10147000D46491CFC11540E2D40708F0AAC0C115C9
:1014800081E0D80708F087CFC83ED10508F483CFA4
:10149000A7CFC03622E5D20718F5C03432E5D3070E
:1014A00008F053C0C03242E5D40708F047C0C11568
:1014B00082E5D80708F47FC02C2F2695269540E2B8
:1014C000249F900111248C2F8370C1E0D0E002C0D2
:1014D000CC0FDD1F8A95E2F7C22BD32BDD685BCFE3
:1014E000C03A22E5D20760F4C03832E5D30708F4E9
:1014F00041C0CF71D0E0DC2FCC27C46FD06A4BCF76
:10150000C03C42E5D40708F44AC0C03E82E5D80793
:1015100008F066CFDC2FCC27CC27DF71C06FD06AF4
:101520003ACFC55AD0E0C057DB4FC881D0E0D06475
:1015300032CFD06530CFDF70D06A2DCFCF71D0E001
:10154000DC2FCC27C16FD06A26CF2C2F269526956D
:10155000277080E2289F900111248C2F8370C1E0B6
:10156000D0E002C0CC0FDD1F8A95E2F7C22BD32B4F
:10157000DC6811CF2C2F26952695277040E2249FFA
:10158000900111248C2F8370C1E0D0E002C0CC0FF9
:10159000DD1F8A95E2F7C22BD32BDA68FCCE8C2FA5
:1015A0008F710E941309C82FD0E0DC2FCC27CC27E5
:1015B000DF71D062F0CE8C2F8F710E94130935E05D
:1015C000D695C7953A95E1F7CF709C2FEC01D0697D
:1015D000E2CE8D2F8F710E94130990E0982F8827FB
:1015E00088279F719C012C2BE901E3CFC2EED0E04C
:1015F000D2CEC0EED0E0CFCEC6EED0E0CCCEC5E3AA
:10160000D0E0C9CE80915A09811110925A090895EB
:101610008091C40981110FC01092C1090E94020B70
:101620000E94F80788579C4E9093C3098093C20983
:1016300081E08093C409089580959091C109982311
:101640009093C1090895E8EDF4E09191891303C0E6
:10165000DF0111971C9294E0EE3DF907B1F7089570
:10166000A8EDB4E0EFEF90E02D91821751F0EF3F3D
:1016700019F4211101C0E92F9F5F9630A9F7EF3FC0
:1016800009F408950E2E000CFF0BEA52FB4F8283E3
:1016900008952091500990910F09291302C080E00C
:1016A000089530E0F90153E0EE0FFF1F5A95E1F77E
:1016B000E05FF64F5181561306C05081581303C0A6
:1016C0005281541304C02F5F3F4F2770E6CF81E053
:1016D00008958091500990910F09981301C00895C1
:1016E0008F5F8770FACFB0E0A0E0E9E7FBE00C94F1
:1016F0009C2C7C010091940910919509809192098C
:1017000090919309082B192BCFE0D0E0CC24C394FF
:10171000D12CBC2EC6010C2E02C0880F991F0A9432
:10172000E2F780239123892B49F4219790F7B12C7C
:101730008B2DCDB7DEB7E9E00C94B82CB7018C2F18
:101740000E9456090E947309019779F3F1CFCF9354
:10175000DF93EC010E94730BBE010E9456090E94A8
:101760007309DF91CF9108959C3078F5863068F544
:10177000E82FF0E086E0989FE00DF11D11249E2FE8
:10178000977083E0F695E7958A95E1F7EE0FFF1FD6
:10179000EE0FFF1FED51F74F50E040E080E0219148
:1017A00030E0092E02C0369527950A94E2F72170A1
:1017B0003327042E01C0220F0A94EAF7822B4F5FD1
:1017C0005F4F4430510559F7089580E008959C30EB
:1017D00098F5863088F5E82FF0E086E0989FE00DD8
:1017E000F11D11248E2F877041E001C0440F8A95AE
:1017F000EAF783E0F695E7958A95E1F7EE0FFF1F8C
:10180000EE0FFF1FED51F74F30E020E070E05191F7
:10181000DF011197CB01022E02C0969587950A949D
:10182000E2F7817081958527842385278C932F5F2C
:101830003F4F2430310559F70895909395098093CF
:101840009409089521E030E002C0220F331F8A95E9
:10185000E2F7209530958091940990919509822323
:1018600093230E941D0C089590915109809589231E
:1018700080935109282F277091F4282F082E000CEF
:10188000330B9217130659F09091970992FF07C0F6
:101890008595859585950E94220C10925109089591
:1018A00021E030E002C0220F331F8A95E2F78091D9
:1018B000940990919509822B932B0E941D0C0895F9
:1018C0009091970992FF07C098E0899F9001112499
:1018D000622B609351090E94500C089590939309D4
:1018E000809392090895FC0183819481892B29F0CA
:1018F0008081918189238F3FF1F480E008950E94D7
:10190000730992959F70963089F058F4925F9F709A
:10191000923098F7803F19F030F4883E70F781E0FC
:1019200008959A5FF4CF843F41F7F9CF883EB8F32A
:10193000813F19F7F4CF86819781009701F7808165
:1019400091810E94A70BDDCF662309F45DC08D3C19
:1019500041F40E94D60881958093BE090E948D08AB
:1019600008958E3C19F40E94D608F6CF8F3C31F4CE
:101970000E94D60881958093BD09F0CF803D19F46F
:101980000E94D608F8CF893D29F40E94B4088093BC
:10199000BF09E4CF8A3D21F40E94B4088195F7CFB6
:1019A0008B3D31F40E94B40881958093C009D6CF55
:1019B0008C3D19F40E94B408F8CF9FE2980F98303C
:1019C00070F4815D990B21E030E001C0220F8A950F
:1019D000EAF78091BC09822B8093BC09BFCF8D3D73
:1019E00031F48091B60981608093B609B7CF8E3DFE
:1019F00021F48091B6098260F7CF8F3D09F0AECF18
:101A00008091B6098460F0CF4091BD098D3C59F4B6
:101A10008091BE0987FF0DC01092BE0941110BC015
:101A20001092B40908C08E3C81F48091BE0918164A
:101A30009CF3442381F08091BF099091C009892BC8
:101A400009F08CCF1092B50989CF8F3C49F447FF3C
:101A5000F0CF1092BD098091BE098111ECCFE0CF8B
:101A6000803D19F41416ACF3E4CF9091BF09893D81
:101A700029F41916F4F61092BF09DBCF8A3D19F448
:101A800097FFD7CFF8CF9091C0098B3D29F497FFEE
:101A9000D0CF1092C009CDCF8C3D19F41916CCF3DC
:101AA000C8CF9FE2980F983090F4815D990B21E0A8
:101AB00030E0B90102C0660F771F8A95E2F7CB01CB
:101AC00080959091BC0989238093BC09B2CF8D3D4C
:101AD00031F48091B6098E7F8093B609AACF8E3DEE
:101AE00021F48091B6098D7FF7CF8F3D09F0A1CF0A
:101AF0008091B6098B7FF0CFA5E0B0E0E2E8FDE091
:101B00000C94A22C9C01FC01868197810097E1F442
:101B100085E0DE01119601900D928A95E1F7F901B9
:101B2000228189819A81222399F0662389F00E947B
:101B3000730B182F682F89819A810E94E70B6981A6
:101B40007A81812F0E9456092596E3E00C94BE2CE1
:101B50000E94B40B182FF3CF82E0FB010995089582
:101B60000F931F93CF93DF938B01EA0190914E0A5D
:101B7000943061F58093E9008FEF9091E8008150F7
:101B800095FD06C095ED9A95F1F700008111F5CF0E
:101B90008091E80085FF1AC00E949F06811111C044
:101BA0008091E80085FD06C08091E8008E778093E3
:101BB000E800F2CFF80181918F018093F100219725
:101BC00079F78091E8008E778093E800DF91CF91DC
:101BD0001F910F91089543E050E0BC0182E00E9404
:101BE000B00D089546E050E0BC0182E00E94B00DC7
:101BF0000895CF93DF93EC0148E050E0BC0181E011
:101C00000E94B00D88E0FE01A4E4BAE001900D92BC
:101C10008A95E1F7DF91CF910895B0E0A0E0E3E18C
:101C2000FEE00C949B2C7C015B016A0180917F0992
:101C300001E010E08A3010F40AE010E0C1E0D0E0EA
:101C4000B501C701F6010995811104C021960C1751
:101C50001D072CF4CDB7DEB7EAE00C94B72CCC9F6F
:101C60009001CD9F300D300D112490E080E045E3D0
:101C70004A95F1F70000019682179307C1F7E0CF6C
:101C800080916509811110C08091D8008061809396
:101C9000D8008AE18A95F1F700C08091D90080FFD1
:101CA0000AC081E08093650981E0909165099130D7
:101CB00009F080E0089582E0809365090E94800623
:101CC00010924E0AF1CF0E94400E882359F0E09105
:101CD000380AF091390A309729F00190F081E02D0F
:101CE0000995089580E008958091C1099091C709F0
:101CF000892B8093D60490915A09992391F0892BCE
:101D00008093D60420E088ED94E0FC013191CF016E
:101D100031112F5FF4E08E3D9F07B9F721110E942A
:101D2000020B48E050E062E579E086ED94E00E9425
:101D30003A2D892BA9F088E0E6EDF4E0A2E5B9E0C0
:101D400001900D928A95E1F7E091380AF091390AF5
:101D5000309731F00280F381E02D86ED94E0099513
:101D60000895882341F080959091C7098923809335
:101D7000C7090E94740E08958091C409882329F030
:101D800082E20E94B10E1092C4090895882339F0AE
:101D90009091C709982B9093C7090E94740E0895DB
:101DA000882321F00E941C0B0E94740E0895882342
:101DB00039F09091C109982B9093C1090E94740E3B
:101DC0000895882309F456C0823879F40E94630E7E
:101DD00081FF50C089E30E94300B0E94740E89E39A
:101DE0000E94230B0E94740E0895833859F40E94B8
:101DF000630E80FF3FC083E50E94300B0E94740E8B
:101E000083E5EECF843859F40E94630E82FF32C01E
:101E100087E40E94300B0E94740E87E4E1CF9CEFB0
:101E2000980F913AE8F290E2980F983050F487704A
:101E300091E001C0990F8A95EAF7892F0E941C0B47
:101E4000D1CF9BE5980F933028F490E080E00E947A
:101E50002908089598E5980F993128F490E080E0DA
:101E60000E940408089593E3980F933118F460E0FA
:101E70000E94A40C0895CF93C82F8823C9F08238FC
:101E8000C9F40E94630E81FD13C089E30E94300BE8
:101E90000E94740E2FEF87EE93E021508040904017
:101EA000E1F700C0000089E30E94230B0E94740E3A
:101EB000CF9108958338A1F40E94630E80FDF8CF7E
:101EC00083E50E94300B0E94740E2FEF81EE94E0A8
:101ED000215080409040E1F700C0000083E5E4CF4E
:101EE0008438A1F40E94630E82FDE2CF87E40E9451
:101EF000300B0E94740E2FEF81EE94E02150804051
:101F00009040E1F700C0000087E4CECF8CEF8C0F4B
:101F1000813A68F4E8EDF4E08191C817E9F124E032
:101F2000EE3DF207C9F78C2F0E94300BBFCF80E245
:101F30008C0F883068F4C77021E030E001C0220FB8
:101F4000CA95EAF78091C109822B8093C109AECF6F
:101F5000EBE5EC0FE33040F4F0E0E057FB4F80811D
:101F600090E00E942908A4CFE8E5EC0FE93150F495
:101F7000F0E0EE0FFF1FED56FB4F808191810E9434
:101F8000040896CF83E38C0F833108F091CF61E092
:101F90008C2F0E94A40C8CCF8C2F0E94230B0E94AC
:101FA000740EC1CF1F93CF93DF93182FD0E0C0E002
:101FB000893311F4C0E5D0E0812F0E943B0F2097B8
:101FC00039F4812F0E94E10EDF91CF911F91089586
:101FD0008FE99FE00197F1F700C000002197EFCF54
:101FE0000F931F93CF93DF93C62FD42F022FFC01A3
:101FF00082818823A9F060935A0A0E94F80790937F
:10200000590A8093580AC77081E001C0880FCA95A9
:10201000EAF70E94D70EDF91CF911F910F9108959B
:1020200080915A0A681332C08091580A9091590AD7
:102030000E94DD07883C910548F510E21D0FCD1781
:10204000B9F080E28C0F883040F4C77081E001C0A5
:10205000880FCA95EAF70E94D00E183048F481E044
:102060009D2F977001C0880F9A95EAF70E94D70EAE
:10207000802F0E94D20F183070F6D77081E001C017
:10208000880FDA95EAF70E94D00EC5CFC77081E0BD
:1020900001C0880FCA95EAF7F6CFB0E0A0E0E3E50B
:1020A000F0E10C949E2CE82FF0E0E753F54FD4902C
:1020B000282F26952695269530E0F901E754F54F0F
:1020C0000491877010E0082E02C0159507950A94B8
:1020D000E2F701701127F901E755F54FE490F12C73
:1020E000082E02C0F594E7940A94E2F791E0E92201
:1020F000FF24F901E756F54FC491D0E002C0D59511
:10210000C7958A95E2F7C170DD270115110519F011
:1021100081EE0E943B0FE114F10419F086EE0E945B
:102120003B0F8D2D0E94D20FE114F10419F086EEC1
:102130000E94E10E0115110519F081EE0E94E10ED9
:10214000CD2B19F08CE20E94D20FCDB7DEB7E7E0BD
:102150000C94BA2CFF920F931F93CF93DF938C01B3
:102160008AE0F82EF8018491882309F44BC081306D
:1021700009F044C0E8012196FE018491813049F4C0
:102180002196FE0184910E94D20F8E010F5F1F4F96
:10219000E9CF823039F4E8012296FE0184910E9451
:1021A0003B0FF3CF833039F4E8012296FE0184918E
:1021B0000E94E10EEACF843041F7E8012296FE0149
:1021C000249190E080E0FE0131962053330B2A30B9
:1021D000310548F00197C8F2EFE9FFE03197F1F7D8
:1021E00000C00000F7CFF89EA001F99E500D112409
:1021F000C901840F951F2491EF01E5CF0E944D1076
:10220000E801C3CFCDB7DEB7E5E00C94BC2C8C372A
:10221000910508F0DBC38E5A924DFC010C94DE2C24
:10222000662309F4D3C385EC97E00E94AA100895B1
:10223000662309F4CBC380EC97E00E94AA100895AE
:10224000662309F4C3C38CEB97E00E94AA1008959B
:10225000662309F4BBC387EB97E00E94AA10089598
:10226000662309F4B3C383EB97E00E94AA10089594
:10227000662309F4ABC38FEA97E00E94AA10089581
:10228000662309F4A3C387EA97E00E94AA10089581
:10229000662309F49BC382EA97E00E94AA1008957E
:1022A000662309F493C38CE997E00E94AA1008956D
:1022B000662309F48BC388E997E00E94AA10089569
:1022C000662309F483C384E997E00E94AA10089565
:1022D000662309F47BC38FE897E00E94AA10089553
:1022E000662309F473C38BE897E00E94AA1008954F
:1022F000662309F46BC386E897E00E94AA1008954C
:10230000662309F463C38EE797E00E94AA1008953C
:10231000662309F45BC38AE797E00E94AA10089538
:10232000662309F453C385E797E00E94AA10089535
:10233000662309F44BC38FE697E00E94AA10089524
:10234000662309F443C38BE697E00E94AA10089520
:10235000662309F43BC386E697E00E94AA1008951D
:10236000662309F433C382E697E00E94AA10089519
:10237000662309F42BC38DE597E00E94AA10089507
:10238000662309F423C389E597E00E94AA10089503
:10239000662309F41BC384E597E00E94AA10089500
:1023A000662309F413C380E597E00E94AA100895FC
:1023B000662309F40BC38BE497E00E94AA100895EA
:1023C000662309F403C387E497E00E94AA100895E6
:1023D000662309F4FBC283E497E00E94AA100895E3
:1023E000662309F4F3C28EE397E00E94AA100895D1
:1023F000662309F4EBC28AE397E00E94AA100895CD
:10240000662309F4E3C285E397E00E94AA100895C9
:10241000662309F4DBC28DE297E00E94AA100895BA
:10242000662309F4D3C288E297E00E94AA100895B7
:10243000662309F4CBC284E297E00E94AA100895B3
:10244000662309F4C3C280E297E00E94AA100895AF
:10245000662309F4BBC28CE197E00E94AA1008959C
:10246000662309F4B3C284E197E00E94AA1008959C
:10247000662309F4ABC28FE097E00E94AA1008958A
:10248000662309F4A3C289E097E00E94AA10089588
:10249000662309F49BC284E097E00E94AA10089585
:1024A000662309F493C28EEF96E00E94AA10089565
:1024B000662309F48BC289EF96E00E94AA10089562
:1024C000662309F483C283EF96E00E94AA10089560
:1024D000662309F47BC28AEE96E00E94AA10089552
:1024E000662309F473C285EE96E00E94AA1008954F
:1024F000662309F46BC28FED96E00E94AA1008953E
:10250000662309F463C28BED96E00E94AA10089539
:10251000662309F45BC287ED96E00E94AA10089535
:10252000662309F453C282ED96E00E94AA10089532
:10253000662309F44BC28EEC96E00E94AA1008951F
:10254000662309F443C289EC96E00E94AA1008951C
:10255000662309F43BC283EC96E00E94AA1008951A
:10256000662309F433C28CEB96E00E94AA1008950A
:10257000662309F42BC286EB96E00E94AA10089508
:10258000662309F423C28FEA96E00E94AA100895F8
:10259000662309F41BC28BEA96E00E94AA100895F4
:1025A000662309F413C287EA96E00E94AA100895F0
:1025B000662309F40BC282EA96E00E94AA100895ED
:1025C000662309F403C28EE996E00E94AA100895DA
:1025D000662309F4FBC184E996E00E94AA100895DD
:1025E000662309F4F3C18CE896E00E94AA100895CE
:1025F000662309F4EBC183E896E00E94AA100895CF
:10260000662309F4E3C18EE796E00E94AA100895BC
:10261000662309F4DBC188E796E00E94AA100895BA
:10262000662309F4D3C182E796E00E94AA100895B8
:10263000662309F4CBC18BE696E00E94AA100895A8
:10264000662309F4C3C187E696E00E94AA100895A4
:10265000662309F4BBC182E696E00E94AA100895A1
:10266000662309F4B3C18EE596E00E94AA1008958E
:10267000662309F4ABC189E596E00E94AA1008958B
:10268000662309F4A3C183E596E00E94AA10089589
:10269000662309F49BC18CE496E00E94AA10089579
:1026A000662309F493C187E496E00E94AA10089576
:1026B000662309F48BC181E496E00E94AA10089574
:1026C000662309F483C18BE396E00E94AA10089563
:1026D000662309F47BC184E396E00E94AA10089562
:1026E000662309F473C18FE296E00E94AA10089550
:1026F000662309F46BC189E296E00E94AA1008954E
:10270000662309F463C183E296E00E94AA1008954B
:10271000662309F45BC18CE196E00E94AA1008953B
:10272000662309F453C184E196E00E94AA1008953B
:10273000662309F44BC18EE096E00E94AA1008952A
:10274000662309F443C18AE096E00E94AA10089526
:10275000662309F43BC185E096E00E94AA10089523
:10276000662309F433C181E096E00E94AA1008951F
:10277000662309F42BC18CEF95E00E94AA100895FE
:10278000662309F423C186EF95E00E94AA100895FC
:10279000662309F41BC180EF95E00E94AA100895FA
:1027A000662309F413C189EE95E00E94AA100895EA
:1027B000662309F40BC185EE95E00E94AA100895E6
:1027C000662309F403C181EE95E00E94AA100895E2
:1027D000662309F4FBC089ED95E00E94AA100895D4
:1027E000662309F4F3C080ED95E00E94AA100895D5
:1027F000662309F4EBC08CEC95E00E94AA100895C2
:10280000662309F4E3C087EC95E00E94AA100895BE
:10281000662309F4DBC081EC95E00E94AA100895BC
:10282000662309F4D3C08DEB95E00E94AA100895A9
:10283000662309F4CBC088EB95E00E94AA100895A6
:10284000662309F4C3C082EB95E00E94AA100895A4
:10285000662309F4BBC08DEA95E00E94AA10089592
:10286000662309F4B3C087EA95E00E94AA10089590
:10287000662309F4ABC082EA95E00E94AA1008958D
:10288000662309F4A3C08CE995E00E94AA1008957C
:10289000662309F49BC088E995E00E94AA10089578
:1028A000662309F493C083E995E00E94AA10089575
:1028B000662309F48BC08FE895E00E94AA10089562
:1028C000662309F483C08AE895E00E94AA1008955F
:1028D000662309F47BC084E895E00E94AA1008955D
:1028E000662309F473C08FE795E00E94AA1008954B
:1028F000662309F46BC089E795E00E94AA10089549
:10290000662309F463C08FE695E00E94AA1008953B
:10291000662309F45BC084E695E00E94AA1008953E
:10292000662309F453C08FE595E00E94AA1008952C
:10293000662309F44BC089E595E00E94AA1008952A
:10294000662309F443C084E595E00E94AA10089527
:102950006623E1F18EE495E00E94AA1008956623B3
:10296000A9F189E495E00E94AA100895662371F107
:1029700083E495E00E94AA100895662339F18EE35E
:1029800095E00E94AA100895662301F188E395E07E
:102990000E94AA1008956623C9F083E395E00E947F
:1029A000AA100895662391F08DE295E00E94AA1086
:1029B0000895662359F088E295E00E94AA100895D0
:1029C000662321F082E295E00E94AA1008951F93E9
:1029D000CF93DF93EC011AE08881882309F43EC08D
:1029E0008130C9F599818A81913029F422960E941B
:1029F000D20F2196F1CF923021F422960E943B0F04
:102A0000F8CF933021F422960E94E10EF2CF943059
:102A100011F02196EECF229630E020E0AE014F5F1C
:102A20005F4F8053990B8A30910550F02150310946
:102A300000F38FE99FE00197F1F700C00000F6CFA7
:102A4000129FB001139F700D11249C01260F371F98
:102A50008981EA01E3CF0E944D10CBCFDF91CF9166
:102A60001F9108959091970992FB222720F928172A
:102A700079F080FB92F99093970960919609709193
:102A8000970984E090E00E94242D82E00E94340C9B
:102A90000895CF931092C109C6E0E8EDF4E0DF019C
:102AA0008C2F1D928A95E9F790E080E00E9429081A
:102AB00090E080E00E9404081092C7090E94740E02
:102AC000EBEBF9E0DF011D92CA95E9F71092B4092A
:102AD0001092B5091092B6090E948D08CF91089501
:102AE000AAE2B0E0E6E7F5E10C94A22C80E59AE0DA
:102AF0002091F100FC012193CF01FAE088359F0776
:102B0000B9F78091510A833009F470C0B8F481306C
:102B100009F447C0823009F4B1C08091E80083FF16
:102B20007EC28091500A9091510A9A3008F077C283
:102B3000E92FF0E0E253F24D0C94DE2C8A3009F4D8
:102B40008CC08B3009F46FC0893039F78091500AFE
:102B5000813219F78091540A9091550A0297E8F64C
:102B60008091E800877F8093E8008091E80082FFF1
:102B700038C09091F3008091F200029731F4809177
:102B8000F100813011F0863021F48091F1008093C2
:102B9000430A8091E8008B778093E8000E94D0067A
:102BA000BCCF8091500A813A09F0B7CF8091E800FC
:102BB000877F8093E8008091540A9091550A892B71
:102BC00061F468E084E49AE070E00E947C07809100
:102BD000E8008B778093E800A0CF60E090E080E091
:102BE000F3CF80914E0A8111C0CF97CF8091500AC8
:102BF000813A09F092CF8091540A9091550A892B1D
:102C000009F08BCF8091E800877F8093E800809166
:102C1000E80080FFFCCF80918A048093F1008091CE
:102C2000E8008E77B9CF8091500A813209F075CFD4
:102C30008091540A9091550A892B09F06ECF8091AA
:102C4000E800877F8093E8000E94D0068091520AB6
:102C500080938A040E94491560CF8091500A813286
:102C600009F05BCF8091E800877F8093E8000E94A5
:102C7000D0068091530A8093420A4FCF8091500A28
:102C8000813A09F04ACF8091E800877F8093E8007D
:102C90008091E80080FFFCCF8091420ABECF80384F
:102CA00099F0823809F0BBC18091540A8F70873047
:102CB00008F0B5C18093E9008091EB0085FB88277F
:102CC00080F91092E90006C080914C0A90914D0A5B
:102CD000911182609091E800977F9093E800809333
:102CE000F1001092F1008091E8008E7794C1882362
:102CF00009F482C1823009F092C18091520A811197
:102D000085C18091540A8F702FEF280F263008F06C
:102D100086C18093E9002091EB0020FF77C19330BA
:102D200031F48091EB0080628093EB006FC1909151
:102D3000EB0090619093EB0021E030E001C0220FA6
:102D40008A95EAF72093EA001092EA008091EB005E
:102D50008860EACF811163C11091520A1F77809178
:102D6000E3008078812B8093E3008091E800877FE7
:102D70008093E8000E94D0068091E80080FFFCCF9D
:102D80008091E30080688093E30082E0111183E08A
:102D900080934E0A44C18058823008F040C180912F
:102DA000520A9091530A8C3D23E09207A1F583E0EB
:102DB0008A838AE289834FB7F894DE01139620E074
:102DC0003EE051E2E32FF0E050935700E49120FF02
:102DD00003C0E295EF703F5FEF708E2F90E0EA3016
:102DE000C0F0C7968D939D932F5F243159F74FBF45
:102DF0008091E800877F8093E8006AE270E0CE016E
:102E000001960E947C078091E8008B778093E80010
:102E100006C1C096E7CF4091540A5091550A292F18
:102E200033272330310509F444C078F521303105CA
:102E300009F46FC08BE390E0E4E0FCE02230310560
:102E400009F0EDC02091E800277F2093E800209151
:102E5000560A3091570A8217930708F49C0140E004
:102E60002115310509F064C0411162C08091E8006C
:102E700082FDC9CF80914E0A882329F2853019F24C
:102E80008091E80083FFF2CFBECF21323105A9F156
:102E90002232310509F0C3C04115510509F443C080
:102EA0004130510509F0BBC08BE790E0E9E4FBE05D
:102EB000C9CF992781309105C1F0009759F0029749
:102EC00009F0ADC0E1E5FCE0E4918E2F90E0E1E592
:102ED000FCE007C0EFE8FCE0E4918E2F90E0EFE823
:102EE000FCE0009709F49BC0ADCFEFE7FCE0E49174
:102EF0008E2F90E0EFE7FCE0F4CF4115510571F023
:102F00004130510509F08BC089E090E0EFE2FCE030
:102F100099CF82E190E0EFE3FCE094CF89E090E08C
:102F2000E6E1FCE08FCF80E490E0E4ECFBE08ACFC8
:102F300080914E0A882309F466CF853009F463CF67
:102F40008091E80083FD5FCF8091E80082FD8ECF05
:102F50008091E80080FF84CF9091F3008091F2008F
:102F60002115310519F08830910550F041E008979E
:102F700009F040E08091E8008E778093E80070CF00
:102F800044914093F1003196215031090196E8CFE8
:102F9000803809F044C08091E800877F8093E80082
:102FA00080914F0A8093F1009ECE811138C010911C
:102FB000520A1230A0F58091E800877F8093E800E4
:102FC00010934F0A0E94D006112311F084E005C02F
:102FD0008091E30087FDFACF81E080934E0A42E0C2
:102FE00061EC81E00E94EF0642E261EC82E00E9427
:102FF000EF0680914E0A13C08091520A813079F415
:1030000081E0933009F080E080934D0A1092E9004E
:103010008091E800877F8093E8000E94D00680912D
:10302000E80083FF0AC08091E800877F8093E80072
:103030008091EB0080628093EB00AA96E3E00C9411
:10304000BE2C0E9449152FEF84E39CE02150804064
:103050009040E1F700C0000088E19AE00FB6F894D4
:10306000A895809360000FBE90936000FFCFB0E002
:10307000A0E0EDE3F8E10C949C2C8C01FC01838131
:103080009481892B31F08081918189238F3F09F0D0
:10309000BFC5CDB7DEB7E9E00C94B82CF80182814A
:1030A00081110BC0C435FCE7DF0709F46CC040F5A3
:1030B000C3353CE7D30709F445C080915A09C530B0
:1030C0002EE7D20709F438C108F000C1CC32D1058F
:1030D00009F41DC1C4309EE7D90709F424C1C337E0
:1030E000FCE7DF0709F053C1F80182818823C9F1A9
:1030F0008091C409882309F447C10E94BC0E31C0E5
:10310000C6358CE7D80709F44CC0C7359CE7D9070A
:10311000A1F6C0900001D0900101E0909409F090D8
:1031200095090E94491590E080E00E941D0CC6EDB3
:10313000D8E0CC16DD0609F447C0CE010E9437184E
:103140002897F7CF0E94491590E080E00E941D0C5F
:103150008EED94E09093DF088093DE0881E0809309
:10316000E00880915109877009F493CFF8018281BA
:10317000882309F48ECF8091970982FF8ACF82E05D
:103180000E94340C86CF0E94491590E080E00E9496
:103190001D0C86ED98E09093DF088093DE0882E0B6
:1031A000DECFC0900201D0900301E0909409F0902E
:1031B00095090E94491590E080E00E941D0CCEED1B
:1031C000D4E0CC16DD0631F40E944915C7010E94F7
:1031D0001D0CC7CFCE010E9437182896F2CF8091E0
:1031E000DE089091DF08F4E08E3D9F0729F0FC0196
:1031F00038972281211105C0909303018093020129
:1032000028C5CF01F0CF8091DE089091DF0828E03B
:10321000863D920729F0FC0138962281211105C0D4
:10322000909301018093000114C5CF01F0CF81304C
:1032300031F1823009F041CF209102013091030138
:10324000A091DE08B091DF08F8018281811105C0EC
:10325000F8E0A63DBF0709F430CFCD010896281746
:10326000390709F42ACF88E0F80101900D928A9578
:10327000E1F78091DE089091DF08089722C0209145
:10328000000130910101A091DE08B091DF08F80142
:103290008281811105C0F4E0AE3DBF0709F40DCF76
:1032A000CD0108972817390709F407CF88E0F801FE
:1032B00001900D928A95E1F78091DE089091DF08E8
:1032C00008969093DF088093DE08F7CEC730EEE7CC
:1032D000DE0709F441C0C8F1C8302EE7D20709F073
:1032E000FECEF8019281992309F451C066EC7EE08C
:1032F00080E392E00E94AC0D80E30E943B0F80E3EC
:103300000E94E10E61EB7EE080E392E039C0982FED
:103310009272E9F1F8018281882309F422CF8DE2CB
:103320000E94D20F1ECFF8018281882309F419CFA1
:1033300082E00E94340C15CFF8019281992339F173
:103340008CE894E00E94E7140CCFF8019281992355
:10335000F1F08BE894E0F6CFF80192819923B9F06F
:1033600066EC7EE08FE292E00E94AC0D8FE20E945C
:103370003B0F8FE20E94E10E61EB7EE08FE292E074
:103380000E94AC0D88E2CCCF0E94080BEACEF090F0
:10339000C109F82A8091C409811110C0F2E2FF121C
:1033A00002C00E94080BFE01E851FC47E730F1051E
:1033B00008F053C0E852F24D0C94DE2C0E94F8073E
:1033C00088579C4E9093C3098093C209F80182816B
:1033D000882349F38F2D8D7909F070C0C034F2E550
:1033E000DF0768F5C11522E5D207B8F5C11530E44D
:1033F000D30750F4C11580E2D80708F053C0C63E89
:10340000D10559F1CE010AC0C11590E5D907D0F711
:10341000F8018581807F39F2CE0199271092C70982
:103420008832910508F055C08E31910508F058C0DA
:10343000049708F443C082E08093C70951C0C43B9D
:10344000E2E5DE0751F0CE01C53BF2E5DF0720F5EE
:103450008056924580349105A8F6F8018281882330
:1034600009F40EC410925A0ACE019057839708F0BF
:10347000F3C384E090E00E94002D9093970980931D
:103480009609FE01E150F047E232F10508F050C024
:10349000E152F24D0C94DE2C805C9245809708F04E
:1034A000B1CFDBCFF8018581807F09F0B5CF8D2FBB
:1034B0008F71823159F028F4823041F00E94BC0EA5
:1034C00072CF843109F46FCF8631C1F71092C709EA
:1034D000F5CF8D32910509F4AECF28F48A9771F7B4
:1034E0000E94740E60CF8C349105D1F38D329240DE
:1034F000B9F3E4CF26E241EE61EEC8010E94F00F7D
:1035000030CE27E245EE65EEF8CF26E241EE60EEE2
:10351000F4CF27E245EE64EEF0CF26E241EE62EE14
:10352000ECCF27E245EE66EEE8CF28E241E0EBCFB4
:103530008091960981608093960995C08091970942
:103540008860809397098FC0809196098260F3CF3D
:10355000809196098460EFCF809196098860EBCFC7
:10356000809197098160EDCF809197098260E9CFC2
:10357000809196098061DFCF809196098062DBCFD0
:10358000809196098064D7CF0E9449158091960951
:103590008068D1CF809196098C60CDCF80919709BA
:1035A0008360CFCF809196098E7FC5CF8091970998
:1035B000877FC7CF809196098D7FBDCF8091960977
:1035C0008B7FB9CF80919609877FB5CF809197097E
:1035D0008E7FB7CF809197098D7FB3CF8091960969
:1035E0008F7EA9CF809196098F7DA5CF8091960976
:1035F0008F7BA1CF0E944915809196098F779BCF31
:1036000080919609837F97CF809197098C7F99CF7E
:103610008091960982FB992790F921E0922790FBEF
:1036200082F990FB83F987CF80919709982F909525
:1036300091708E7F892B90FB81F983CF90919609B1
:10364000892F8F7B96FF806476CF0E9449159091D9
:103650009609892F97FB87F980586DCF61E08EE03E
:1036600090E00E94062D609196097091970984E080
:1036700090E00E94242D0E94491573CD60E0EFCFA9
:1036800090919609892F8F7E94FF806154CF9091FD
:103690009609892F8E7F90FF81604DCF9091970979
:1036A000892F877F93FF88604CCF85E3E4C285E351
:1036B000F0C20E944915FFEF24E33CE0F1502040A6
:1036C0003040E1F700C0000087E797E790930108DA
:1036D0008093000888E19AE00FB6F894A89580934B
:1036E00060000FBE90936000FFCF6FEF7FEF90E020
:1036F00080E00E94242D0E9421188091970982FB6E
:10370000882780F991E089270E943215F801868187
:1037100097810097B9F10E947309D82FC92FF8013A
:10372000C280B580B2943FE0B32280915109877086
:10373000C1F0EC2CCC20B1F0892F807F803421F0B7
:1037400080E28D0F883068F08091970982FF09C070
:1037500082E00E94340C809151098770EE24E3943A
:103760008111E12CDC2ED2942FE0D222FBE0FD155A
:1037700008F486C0ED2DF0E0EF5FF14D0C94DE2CE7
:1037800080E0C2CF8281C081D181882369F0CE01DF
:103790000E94730BF82E682FCE010E94E70BBE012A
:1037A0008F2D0E945609B7CFCE010E94B40BF82E80
:1037B000F6CF2C2F2F70F22EC07F19F0F29490EFDD
:1037C000F922CC20B9F0FF2069F080E28D0F88301B
:1037D00010F0D11109C08091C109F82AF092C109F5
:1037E0000E94740E8D2F4AC08091C709F82AF0926A
:1037F000C709F6CF8D2F0E94E10EFF2009F440C0CB
:1038000080E28D0F883010F0D11104C08F2D0E94FE
:103810001C0B06C0F0948091C709F822F092C709EA
:103820000E94740E2DC03C2F3F70F32EC07FC0321B
:1038300019F0F29480EFF822DD2381F0D13009F401
:1038400094C0CC2009F49EC0BB2009F494C0F801B8
:10385000858180FFC7CF8F7085838DC08091970948
:1038600082FD37C0CC2079F1FF2039F08091C10969
:10387000F82AF092C1090E94740E80E00E943B0F6A
:10388000ED2DE850FF0B349710F40E94630EEE20EC
:10389000A9F08091510980FD11C0F801128285952F
:1038A000859585950E94500CC8010E94371880911B
:1038B00051098595859585950E94220C60E0C80187
:1038C0000E947C0DE6CB80E00E94E10EFF20C1F259
:1038D0009DCFCC2031F1B11006C080915A098F29BB
:1038E0000E94D70ECDCF91E0B9120AC082FFC8CF97
:1038F00080915A09F82AF81619F2F0925A09C0CFA5
:10390000E2E0BE12EACF8F2D0E94D70E0E94020B7A
:103910008091E208F82AF81609F4B2CFF092E20892
:10392000AFCFB11006C00E94020B8F2D0E94D00EA7
:10393000A7CFF1E0BF120FC08091C1098F2109F418
:103940009FCF8F2D0E94D00E0E94020B8091E20823
:10395000F094F822E0CF22E0B21609F491CF8F2D37
:103960000E94D00E0E94020B8BCFCC2031F032E0AF
:103970003B1508F485CF8F2DB3CF81E08B1508F46C
:103980007FCFD3CFBB2089F2D93349F4FFEF27EEA5
:1039900033E0F15020403040E1F700C000008D2FAF
:1039A0000E94E10E6DCF8C2F86958695837069F00D
:1039B000813009F065CF8D2F9C2F9370C11002C00C
:1039C00080E090E00E9404085BCF8D2F9C2F9370C5
:1039D000C11002C080E090E00E94290851CF6C2DF8
:1039E0008D2F0E94A40C4CCF8C2F837009F03FC008
:1039F000C11046CF4D2F429546954770440F440F56
:103A00002D2F2F7030E0042E02C0220F331F0A9496
:103A1000E2F790E080E0D4FF09C08FE090E002C0C0
:103A2000880F991F4A95E2F780959095C695C6959F
:103A3000C370C23099F078F4409192095091930983
:103A4000C13039F0822B932B842395230E946E0C76
:103A500017CF242B352B822B932BF8CF822B932B34
:103A6000209192093091930982279327EFCF869571
:103A7000CC2011F08C2F8170882309F401CF4D2FB9
:103A8000429546954770440F440F2D2F2F7030E01C
:103A9000042E02C0220F331F0A94E2F790E080E068
:103AA000D4FF09C08FE090E002C0880F991F4A95AB
:103AB000E2F780959095C695C695C370C23099F08F
:103AC00078F44091940950919509C13039F0822BD6
:103AD000932B842395230E941D0CD2CE242B352BAF
:103AE000822B932BF8CF822B932B2091940930912A
:103AF000950982279327EFCFCF70CC2029F08C2F08
:103B00000E94500C8D2FECCE8D2F0E94D00E8C2F4A
:103B10000E94220CB5CED23F71F160F4D03FB9F0D3
:103B2000D13F81F0CC2009F463C0B1105BCE8C2F63
:103B30008F7125C0D33F31F1D43FA1F78091970910
:103B400082FD2EC08C2F8F71CC2011F318C0CC2099
:103B500069F081E08B1508F493CECF7181E090E09D
:103B600002C0880F991FCA95E2F7BFCF92E09B155C
:103B700008F486CEF2CF8C2F8F71C110C9CF0E946E
:103B8000500C7ECE90E080E0CC2009F4A4CFCF7121
:103B900081E090E002C0880F991FCA95E2F79BCFA1
:103BA000CC20C9F0809151098770843041F4109283
:103BB00051098C2F8F710E94220CE12C61CEE1E023
:103BC000EB15D8F3CF718C2F0E94500C63E08C2F33
:103BD0000E94600CF2CFF1E0FB1530F41092510915
:103BE00064E08C2F8F71F4CF81E00E94340CE5CF1C
:103BF000BB2059F0D93309F0D2CE2FEF37EE83E056
:103C0000215030408040E1F7C8CE8C2F8F7180CF9B
:103C100061E0C8010E947C0DEC018091E0088823DE
:103C200009F43CCA9E0123553C472330310508F076
:103C3000FECA91E0C535DC4709F490E0F801228125
:103C4000291709F48ECA813009F4C9CA823009F4EF
:103C5000DACA1092E00885CAC631FCE7DF07E1F452
:103C60008091C1098A7A91E009F490E09093E1088B
:103C700081111BCD89E20E94300B0E94740E71CA23
:103C8000C631DC4709F042CD8091E10881110FCDAA
:103C900089E20E94230BF1CFC3303CE7D30709F43C
:103CA00024CD50F4C1159CE7D90709F402CDC130E9
:103CB000DC4709F420CD2ACDCB35FCE7DF0709F43A
:103CC0005FCDCC352CE7D20709F417CDCA35DC47D8
:103CD00009F01CCD81E018CDCF93DF9380910C09C2
:103CE000807F09F049C080910909882309F444C004
:103CF00080915009D0910F096091070970910809CE
:103D0000A0910A09B0910B09C62FC723D817A1F1BA
:103D100090E0109711F0CF3F19F401968770F6CF1D
:103D20009C0143E0220F331F4A95E1F7F901E05F60
:103D3000F64F41814713F1CF40814613EECF4281C8
:103D40004111EBCF438154814A1B5B0B483C510529
:103D500020F780910C098F70806180930C09F90124
:103D6000EB5EF64F80818F708061808387E099E001
:103D70000E9437180E94690BDF91CF910895A5E149
:103D8000B0E0E5ECFEE10C94992C8C0185E0F801A3
:103D9000DE01519601900D928A95E1F7D8011296B5
:103DA000EC90129787E0882E89E0982E40910A09BE
:103DB00050910B094115510509F465C1909107090E
:103DC00020910809892F82238F3F09F45CC1DC9080
:103DD0001196CC9011971396AD90BC901497F090DB
:103DE0000909F501E41BF50BFF2009F415C18091C9
:103DF0000C09382F307FE83CF10508F0D2C03111B2
:103E000081C0FE2C2C111FC09D111DC040910D09B9
:103E100050910E0916962D913C914217530799F433
:103E2000E11011C08F70806180930C09C4010E9461
:103E3000371880910C09D80115968C938F2D6596B3
:103E4000ECE00C94B52CA114B10429F08D2D8C213B
:103E50008F3F09F036C180E080FF14C04E2D6C2DDD
:103E60008D2D0E94490B882369F087E099E00E941C
:103E7000371888E0E7E0F9E0DF011D928A95E9F75D
:103E8000F12CDCCFA114B10429F08D2D8C218F3FB2
:103E900009F014C180E0B82FB170AB2E80FF29C0AB
:103EA0004E2D6C2D8D2D0E94490BB82E811121C0F5
:103EB000D98ACA8A89899A890E94A70B292F2295B3
:103EC0002F70223050F0243078F49F7051F0F801B8
:103ED0009581907F31F4FB2CB1CF9F7011F0882336
:103EE000D1F3805E8830B8F3C8010E943718BA2C2D
:103EF000F2CFEE2009F4A2CF80910C09816080936B
:103F00000C09BECF2C111DC09D111BC040910D0985
:103F100050910E0916962D913C9117974217530711
:103F200081F4E1100EC015968C93C8010E943718D9
:103F300088E0F801A7E0B9E001900D928A95E1F7D9
:103F40007DCFC8010E94730C882339F1EE2029F13E
:103F500080910C098032A0F0209107093091080966
:103F60003A8729871B86BD86AC868E8780910D098E
:103F700090910E09988B8F87CE0109960E94371871
:103F800088E0F801A7E0B9E001900D928A95E1F789
:103F90000E946C1EFF24F39451CFC8010E94371871
:103FA000F9CF332309F461CF2C1118C09D1116C02D
:103FB00040910D0950910E09F80126813781421771
:103FC000530761F4E1100AC08583C8010E943718C5
:103FD00088E0D4011D928A95E9F730CFC8010E948C
:103FE000730C8823D1F2EE20C1F280910C0980324B
:103FF00038F220910709309108093A8329831B82FE
:10400000BD82AC828E8380910D0990910E099887B4
:104010008F83CE010196B2CFE83CF105C8F6FE2CA5
:10402000EE2009F4BACF2C1120C09D111EC02091A2
:104030000D0930910E09F8018681978128173907FB
:10404000A1F490910C0990FD73CF907F09F470CF8B
:1040500080910C098583903F09F467CF982F907F5A
:10406000905F8F70892B858360CFC8010E94730C8D
:10407000811186CF80910C09816080930C09C80161
:104080000E943718DBCEEE2009F487CFC8010E94CA
:10409000730CF82E882309F480CF88E0F801A7E09C
:1040A000B9E001900D928A95E1F78091070990910E
:1040B00008090E94A70B0E946C1EC0CE81E08E25CD
:1040C000EACE81E08E25C8CEA0E1B0E0EAE6F0E2DB
:1040D0000C94A32C29873A874B875C876D877E8752
:1040E0008F87988BCE0109960E94BF1E811112C046
:1040F00088E0FE013996DE01119601900D928A95B5
:10410000E1F78C859D85892B29F089859A858923FE
:104110008F3F81F58091500990910F09891317C045
:104120006096E2E00C94BF2C93E0AA0FBB1F9A9517
:10413000E1F7A05FB64F98E0FE01319601900D9235
:104140009A95E1F780930F090E94690BE3CFB8E0DD
:104150008B9FC0011124805F964F0E94BF1E882351
:10416000F9F28091500990E0019687709927809329
:104170005009D0CFA0910F09B0E0CD010196877012
:104180009927209150092817190671F60E944915A0
:1041900010920F091092500988E0E7E0F9E0DF0182
:1041A0001D928A95E9F7B6CF0F931F93CF93DF93B4
:1041B0008091C909E091C8091CE081111AC0DF9102
:1041C000CF911F910F91089501E00E0F0093C80940
:1041D000CE2FD0E0E19FF0011124E653F64F83810A
:1041E0009481892B29F08081918189238F3FF9F473
:1041F000E02F8091C909E81738F31092C90910928D
:10420000C809DDCF18968D919C918F3F9807E1F0FA
:1042100061E00E9407111C9FF0011D9FF00D112409
:10422000E653F64F148213821092C709E1CF1C9F08
:10423000D0011D9FB00D1124A653B64F16968D9137
:104240009C911797892BF1F2208131814281538112
:1042500064817581868197810E946420DCCF1092F1
:10426000350A1092340A109289048091330A80939F
:10427000320A0E947C080E94D4200895B0E0A0E099
:10428000E4E4F1E20C94932CC091320AE7E0FE2EB4
:1042900001E010E0FCE02F2EAEEFEA2E8091330A11
:1042A0008C1309C00E94D4200E947C08CDB7DEB7D1
:1042B000E2E10C94AF2CD0E0FE01EE0FFF1FE65DB3
:1042C000F54F80819181F89EF001F99EF00D112447
:1042D000EB5DFE4F2481211159C03090C909AAEC31
:1042E000B9E030E020E0412C5F01231508F04CC01C
:1042F0001A966D907C901B97F501808091804FEF0E
:104300005FEF512CC52CD12CF601EE0FFF1FE80DED
:10431000F91D659174916616770609F4A601672B5D
:1043200011F05394EFCF4F3F5407B9F1B80102C0D9
:10433000660F771F4A95E2F7462AA801052C02C0AE
:10434000440F551F0A94E2F74150510944161506CF
:1043500001F5229EF001239EF00D1124E653F64F45
:10436000F89ED001F99EB00D1124AB5DBE4F1296A0
:104370002D913C91139737832683E082E1829187C8
:10438000808771E015967C930E944E082196C37039
:1043900085CF14961C921E9213972F5F3F4F1C9649
:1043A000A4CFA9E1B0E0E7EDF1E20C94932C498BA6
:1043B0005A8B6B8B7C8B8D8B61111092C7091D867C
:1043C0001E861F86188A85E0FE017196DE01199609
:1043D00001900D928A95E1F78C859D85892B31F0AE
:1043E00089859A8589238F3F09F0C4C129853A853B
:1043F0004B855C856D857E858F8598890E946420BC
:10440000C2C021E5A2162CE7B20629F4882379F070
:104410000E942F21EBCF32E5A3163CE7B30639F417
:10442000882329F0809189048111F2CFB3C105E27C
:1044300011E0E12CD12CC12C88248394912C9EEF87
:10444000592E44244394F8016081718166246A9452
:10445000762C20E0422F50E0FA01EE0FFF1FE60F0E
:10446000F71F85919491A816B90609F43A01892B92
:1044700011F02F5FEFCFF12CFFEF6F167F0609F4DD
:1044800044C0F8014481F09089048F2D411180E0EF
:10449000F82FF170FF2EF801258086819B859923E6
:1044A00009F4F2C0FF2009F4EFC0211014C0A401E8
:1044B000062C01C0440F0A94EAF7842B868380916E
:1044C000C5099091C609C29730F442E350E0509379
:1044D000C6094093C509C40102C0880F991F2A95D7
:1044E000E2F70197F80126812817190671F48091E7
:1044F000340A9091350A009709F449C00E94DD07FB
:10450000C39708F444C0F8014482EF28FFEFCF1AA4
:10451000DF0A095F1F4F2CE7C216D10409F093CFC1
:104520008B85882309F411C1EE2009F40EC10E9485
:10453000F8079093350A8093340A8091C90988302E
:1045400010F591E0980F9093C90998E0FE01399613
:10455000DE01119601900D929A95E1F73CE0839F60
:10456000C00111248653964F28E0FE013196DC01EC
:1045700001900D922A95E1F72FEF3FEFFC01318773
:104580002087B386A2866996E2E10C94AF2C8091D5
:10459000320A6090330A982FF0E0E0E0861114C0F0
:1045A0009093320A0E171F0709F4AFCF90E0FC0179
:1045B000EE0FFF1FE65DF54FD182C082019683703A
:1045C00099278093330AA1CF282E312CF101EE0FC9
:1045D000FF1FE65DF54F20813181F7E0F29FD001AA
:1045E000F39FB00D1124AB5DBE4F2D913C911197FF
:1045F000398F288F712C60E070E0E72FF0E0EE0F2C
:10460000FF1F288D398DE20FF31F2591349121155D
:104610003105E1F0F8010190F081E02DFF8BEE8B88
:1046200060E005C02417350709F47F2C6F5FE62F83
:10463000F0E0EE0FFF1F4E895F89E40FF51F4591F3
:1046400054914115510571F77F5FD7CF7720C9F09D
:10465000F801671708F0FD0144820E171F0721F4C7
:104660009093320AF72C51CF981305C0AE17BF07AD
:1046700011F49F5F937091012F5F3F4F822F8370E2
:104680008DCFF0E0E0E0F7CF90E0211020C0B40142
:1046900002C0660F771F2A95E2F79B01215031096E
:1046A0002817390731F4442309F44DC0C6010E948C
:1046B0004E08C401062C01C0880F0A94EAF7982F0F
:1046C0009095F801868189238683F22C1ECF9C0168
:1046D000062C02C0359527950A94E2F7A90141708E
:1046E0005527BC016150710986239723892B39F521
:1046F000452B29F1F80182819381892BD9F01B8206
:104700001C821D821E8259825A820E94F807816093
:10471000582F9D838C83F801828193818F839887A2
:1047200029813A814B816D817E810E946420F8014C
:104730001582BFCF60E0C6010E940711F8CFF22FAB
:10474000F1702F2EB6CF2F2CB4CF9091320A8091DA
:10475000330A981731F00E943E21EE2009F446CE2C
:1047600012CF0E94D4201092350A1092340A0E946F
:104770007C08F3CF61E0CE0109960E947C0D5C01BC
:104780008B85F0E5AF16FCE7BF0609F03ACE88232B
:1047900009F44DCE81E08093890428CEA4E0B0E0F6
:1047A000E4EDF3E20C94A12C40917B0950917C093B
:1047B00060917D0970917E092FB7F89480913D0A30
:1047C00090913E0AA0913F0AB091400A2FBF841BEE
:1047D000950BA60BB70B11E084369105A105B10529
:1047E00090F10E94400E882399F10E94EC076E5FC1
:1047F0007F4F8F4F9F4F69837A838B839C838091F8
:104800001501909116018059964F4091140150E086
:104810004530510510F044E050E0BE016F5F7F4F1E
:104820000E94472D82E090E00E941D2C182F8823C3
:1048300051F00E94EC0760937B0970937C09809390
:104840007D0990937E09812F2496E4E00C94BD2C81
:104850000E94EC0700918009109181092091820942
:1048600030918309600F711F821F931FC0CFEF9299
:10487000FF921F93CF93DF9300D000D000D00F9210
:10488000CDB7DEB77B0190E080E00E941D2C182F91
:10489000882309F480C04091070150E0411551057B
:1048A00011F041E050E060910801709109016059F8
:1048B000764FCE0107960E94472D40916C0950918A
:1048C0006D0960916E0970916F092FB7F89480910E
:1048D0003D0A90913E0AA0913F0AB091400A2FBF35
:1048E000841B950BA60BB70B84369105A105B1056A
:1048F00040F481E799E00E9469069F81891709F4D5
:104900004AC081E090E00E941D2C811116C010E089
:1049100086E0E6E6F9E0D70101900D928A95E1F78D
:10492000812F27960FB6F894DEBF0FBECDBFDF9163
:10493000CF911F91FF90EF90089540910F0150E0AB
:104940004730510510F046E050E060911001709141
:1049500011016059764FCE0101960E94472D81E7E3
:1049600099E00E9469069F818913D1CF0E94EC07CC
:1049700060936C0970936D0980936E0990936F0931
:1049800086E0FE013196A6E6B9E001900D928A9587
:10499000E1F711E0BDCF86E0E1E7F9E0DE01119635
:1049A00001900D928A95E1F71111EACFB1CFA2E102
:1049B000B0E0EDEDF4E20C94982C8E010F5F1F4FE8
:1049C0008CE0D8011D928A95E9F787ECC82E84E027
:1049D000D82EF12CE12CAA24A394B12C23ED822E05
:1049E00024E0922EF60181916F018F3F09F442C0BD
:1049F000F894E82FE295EF70F0E021A18F70A50107
:104A000002C0440F551F8A95E2F7CA01922F982BD6
:104A100091A392A18095892382A3789400C0EDECA4
:104A2000F4E0712C31E021912F3F09F46BC0A22FEB
:104A3000A295AF70B0E090968C9190E02F7002C07C
:104A4000959587952A95E2F780FD5CC0832F782A9B
:104A5000330F8E169F0639F7F601319780818F3F0D
:104A600011F00E94FC0850EA5A95F1F7F801EE0D9A
:104A7000FF1D70828FEFE81AF80AA6E0EA16F1042B
:104A800009F0B0CF4CE050E0B80184E899E00E9412
:104A90003A2D009741F02CE0F801A4E8B9E001902C
:104AA0000D922A95E1F700919109892B69F181E036
:104AB00080935D090E94F80790935C0980935B09DD
:104AC00080915B0990915C090E94DD07059700F1D8
:104AD00010E00656164F46E050E064E879E0C80161
:104AE0000E943A2DB12C892B51F086E0E4E8F9E0E0
:104AF000D80101900D928A95E1F7BB24B3941092EE
:104B00005D0907C080E0A3CF80915D098111D8CFF6
:104B1000B12C0E94400EF82EE0919109882309F4EF
:104B20006DC06E01BDE0CB0ED11C86E0D6011D929A
:104B30008A95E9F70E2F10E00656164F80917F09EF
:104B40008A3050F547E354E2B601C8010E940D0EC9
:104B5000882309F442C04EEC53E2B601C8010E941A
:104B60000D0E8823D1F110927F098091900990E079
:104B700046E050E0B6018656964F0E943A2D21E05D
:104B800020936409892BE1F4F12C1F2D812F8B29AF
:104B90006296EDE00C94B42C80915E0990915F09CF
:104BA0000E94DD07843F914068F680916409882364
:104BB00059F386E0F60111928A95E9F7109264099B
:104BC000A0919009B0E0A656B64F86E0FE013D9652
:104BD00001900D928A95E1F7D8CF80917F098F3FA0
:104BE00031F08F5F80937F098A3008F4BECF0E9436
:104BF000F80790935F0980935E09D7CFF0E0E656FF
:104C0000F64F86E0A1E7B9E001900D928A95E1F7B1
:104C100081E799E00E94690680937009C090770946
:104C2000D0907809E0907909F0907A098091600934
:104C300090916109A0916209B0916309C816D906E3
:104C4000EA06FB0611F410E0A1CFC0926009D092F1
:104C50006109E0926209F09263090E94400E182FE8
:104C60008111F1CF0E94EC07C61AD70AE80AF90AA7
:104C7000C0928009D0928109E0928209F092830962
:104C800085CF1F920F920FB60F9211242F933F934F
:104C90004F935F936F937F938F939F93AF93BF9344
:104CA000CF93DF93EF93FF93D091E900DF70809172
:104CB000EC00C82FC17080FDC0E81092E90080911F
:104CC000F000877F8093F00078940E947015109216
:104CD000E9008091F00088608093F000CD2BCF70C8
:104CE000C093E900FF91EF91DF91CF91BF91AF9118
:104CF0009F918F917F916F915F914F913F912F91F4
:104D00000F900FBE0F901F9018951F920F920FB625
:104D10000F9211242F933F934F935F936F937F9341
:104D20008F939F93AF93BF93EF93FF938091E10095
:104D300082FF09C08091E20082FF05C08091E100FE
:104D40008B7F8093E1008091DA0080FF24C0809106
:104D5000D80080FF20C08091DA008E7F8093DA0037
:104D60008091D90080FF9DC080E189BD82E189BD2D
:104D700009B400FEFDCF81E080934E0A8091410A84
:104D8000811109C00E9480060E9421078091E200E3
:104D900084608093E2008091E10080FF17C08091E1
:104DA000E20080FF13C08091E2008E7F8093E200DA
:104DB0008091E20080618093E2008091D80080625F
:104DC0008093D80019BC85E080934E0A8091E10061
:104DD00084FF2BC08091E20084FF27C080E189BD61
:104DE00082E189BD89B5982F917080FFFBCF8091BA
:104DF000D8008F7D8093D8008091E1008F7E8093D2
:104E0000E1008091E2008F7E8093E2008091E200D9
:104E100081608093E20080914F0A882309F447C0A3
:104E200084E080934E0A80914E0A8091E10083FFD6
:104E300027C08091E20083FF23C08091E100877F3B
:104E40008093E10082E080934E0A10924F0A809195
:104E5000E1008E7F8093E1008091E2008E7F80935D
:104E6000E2008091E20080618093E20042E060E035
:104E700080E00E94EF068091F00088608093F0004F
:104E8000FF91EF91BF91AF919F918F917F916F9122
:104E90005F914F913F912F910F900FBE0F901F90F8
:104EA000189519BC10924E0A1092410A74CF809145
:104EB000E30087FD93E090934E0AB5CF78941F925C
:104EC0001FB61F9211248F939F93AF93BF9380912E
:104ED0003D0A90913E0AA0913F0AB091400A019686
:104EE000A11DB11D80933D0A90933E0AA0933F0AF5
:104EF000B093400ABF91AF919F918F911F901FBEB9
:104F00001F9018951F921FB61F9211248F939F9385
:104F1000AF93BF9380913C0A811113C080913D0AE9
:104F200090913E0AA0913F0AB091400A4196A11D7E
:104F3000B11D80933D0A90933E0AA0933F0AB0931F
:104F4000400ABF91AF919F918F911F901FBE1F90FC
:104F50001895CDB7DEB760970FB6F894DEBF0FBED9
:104F6000CDBF85B7806885BF85B7806885BF84B7AA
:104F7000877F84BF0FB6F894A89580916000886100
:104F800080936000109260000FBE80E890E00FB642
:104F9000F89480936100909361000FBE8AEF98E0CF
:104FA0009093D5048093D4040E9480060E94210728
:104FB0008091E20084608093E200789480914E0AB0
:104FC0008823A1F01091E9001F709091EC00892FC7
:104FD000817090FD80E8182B1092E9008091E80024
:104FE00083FD0E9470151F701093E90082E084BD5C
:104FF00093E095BD9AEF97BD80936E001092800963
:105000001092810910928209109283090E94400E29
:1050100080931C010E94400E81110E94312B8091CF
:105020001C0180911C0196E0811190E09093910900
:1050300086E0891B8093900907EC14E07DECE72E55
:1050400074E0F72ED8018D918D018F3F11F00E94F1
:10505000FC08E016F106B1F70DEC14E063EDE62E66
:1050600064E0F62EF80181918F018F3F11F00E94CC
:10507000FC08E016F106B1F78CE0EAE9F9E0DF019F
:10508000282F1D922A95E9F7E4E8F9E0DF011D9247
:105090008A95E9F790E080E00E94002D873E9E4FC0
:1050A00009F45EC067EE7EEF90E080E00E94242D60
:1050B00060E082E090E00E94062D60E083E090E0F6
:1050C0000E94062D109293091092920960E074E1FB
:1050D00084E090E00E94242D60E086E090E00E9451
:1050E000062D6FEF87E090E00E94062D40E050E033
:1050F000BA0188E090E00E94182D60E08DE090E019
:105100000E94062D40E050E0BA0188E190E00E9444
:10511000182D60E087E190E00E94062D40E050E00D
:10512000BA018CE190E00E94182D70E060E080E20E
:1051300090E00E94242D40E050E0BA0188E190E028
:105140000E94182D40E050E0BA018FE090E00E94EC
:10515000182D40E050E0BA0183E190E00E94182D44
:1051600082E090E00E94F82C8093A60984E090E011
:105170000E94002D909397098093960983E090E018
:105180000E94F82C90E00E946E0C0E94400E81114B
:1051900002C00E94342B8DE191E09093390A8093F4
:1051A000380A08E110E040E4D42E56EAE52E59E032
:1051B000F52E30E1C32E80914E0A22E1B22E8530C9
:1051C00009F480C00E94D72487EAA82E89E0B82E6F
:1051D0009AE9892E99E0992ED401F50191918D914A
:1051E00029E0E33BF20709F477C09817B9F30E946E
:1051F000400E282E712CD4016D904D01F501319097
:105200005F01361429F13624512C44244394842D13
:105210008321B1F02220A1F05C867D8691E0842D6F
:10522000862109F490E09E870E94F8078160782F1C
:10523000988B8F874C855D856E8588890E94D121EA
:105240005394440CF6E05F12E2CFF501319760828F
:1052500073942CE07212CFCF0E94EC075DC0809156
:105260004E0A843009F110923C0A0FB6F894A895C2
:10527000009360000FBED092600083B7817F84608E
:1052800083BF83B7816083BF7894889583B78E7F0F
:1052900083BF0FB6F894A8958091600088618093D1
:1052A0006000109260000FBE80914D0A882351F07B
:1052B0000E94D724EAE9F9E0819181115CC1EE16E0
:1052C000FF06D1F780914E0A853009F4C8CF0E94BD
:1052D00049150E94630E76CF981389CF0E94F80774
:1052E0005C018091980990919909A816B906A1F0DE
:1052F0008FEF8F83888719860E94F8078160782F47
:105300009B878A874F81588569858B850E94D1212B
:10531000B0929909A09298090E94400E8823A9F1A1
:1053200080918904882301F18091340A9091350A93
:105330000097D1F00E94DD072091C5093091C60980
:105340002817390788F49091320A8091330A981708
:1053500009F4F8C00E943E211092C6091092C509B6
:105360001092350A1092340A8091C409882369F09A
:105370000E94F8072091C2093091C309821B930B48
:105380008F3F9F4710F40E94BC0E86E0EBEBF9E0E4
:10539000DE01119601900D928A95E1F71092BD09F8
:1053A0001092BE091092BF091092C0098B819C8196
:1053B000892B09F44AC08091B9099091BA090E94D9
:1053C000DD079C019091B409992309F4EEC02531C1
:1053D0003105D8F19F3F19F09F5F9093B409BB80CE
:1053E000BB2059F00E94D6089FEF1B140CF491E0EB
:1053F000899F802D11248093BD09BC80BB2059F06A
:105400000E94D6089FEF1B140CF491E0899F802D19
:1054100011248093BE093091BD093323B1F020914E
:10542000BE09222391F045EB3403C00111249923D6
:1054300009F491C09093BD0945EB24039001112418
:10544000332309F48CC03093BE098D819E81892B52
:1054500009F44AC08091B7099091B8090E94DD070C
:105460009C019091B509992309F49BC02135310520
:10547000D8F19F3F19F09F5F9093B509BD80BB2085
:1054800059F00E94B4089FEF1B140CF491E0899F1F
:10549000802D11248093BF09BE80BB2059F00E944B
:1054A000B4089FEF1B140CF491E0899F802D112408
:1054B0008093C0093091BF093323B1F02091C00916
:1054C000222391F045EB3403C0011124992309F400
:1054D0004AC09093BF0945EB240390011124332364
:1054E00009F445C03093C00946E050E0BE016F5F4B
:1054F0007F4F8BEB99E00E943A2D892B61F48091CC
:10550000BD099091BE09892B9091BF09892B90917B
:10551000C009892B11F00E948D0886E0FE013196AA
:10552000ABEBB9E001900D928A95E1F70E94630E12
:105530009091B309891709F43ECE8093B3090E9474
:10554000EC0737CE0E94D4201092350A1092340A0C
:105550000E947C0809CF81E08093BD096DCF81E076
:105560008093BE0972CF81E08093BF09B4CF81E000
:105570008093C009B9CFC9BCB9BC09B400FEFDCF46
:105580008091D8008F7D8093D8008091E000826068
:105590008093E0008091E00081FDFCCF0E944915DE
:1055A00091CE232B09F067CF9FCF232B09F014CF87
:1055B0004CCF8EE1489B02C08150E1F7489BFECF63
:1055C0000895589880E28A95F1F7589A0895FC0159
:1055D0003BE03A95F1F798E020E080E031E040E1EF
:1055E0004A95F1F7880F489B02C08160232742E06B
:1055F0004A95F1F7000040E14A95F1F7915079F7AB
:1056000090E19A95F1F799B132E03A95F1F70000FF
:1056100040E14A95F1F7917092272081920F908393
:105620000895A1E0B0E0E7E1FBE20C949F2C198221
:105630008C017C01E60EF11C0E151F0541F481E082
:105640009981911180E02196E6E00C94BB2C0E9498
:10565000D92ACE0101960E94E72AF80181938F0191
:10566000EBCF509A589A08955098589AE89AE9E6DC
:10567000F0E080818C7F808308956150770B91E00A
:1056800001C0990F6A95EAF720E031E0911108C056
:10569000222391F0589A80E28A95F1F7589808955C
:1056A000492F482339F0589A232740E24A95F1F7C9
:1056B0009695ECCF5898F9CF5898EDCFFF920F936D
:1056C0001F93CF93DF93EC018C01060F111DC017C0
:1056D000D10729F4CDB7DEB7E5E00C94BC2CF990E6
:1056E0000E94E12A68E08F2D0E943D2BF0CF1F928F
:1056F0000F920FB60F9211240F931F932F933F9386
:105700004F935F936F937F938F939F93AF93BF93C9
:10571000EF93FF93CF93DF930F92CDB7DEB719824C
:105720000E94D92ACE0101960E94E72A082F0695E9
:1057300006950695282F22952570902F9570290F94
:10574000922F937026952695920F982797708981AE
:10575000982B09F05CC0043008F059C080E18A95AC
:10576000F1F7589A509A82E08A95F1F700C058985C
:1057700088E0089F80011124D801AC5FBE4F1696C7
:10578000ED91FC9117973097A9F06091C504709145
:10579000C60414962D913C911597260F371F11962C
:1057A0008D919C911297680F791F13964C911397C6
:1057B0008C910995F801EC5FFE4F6381662351F0EF
:1057C0002091C5043091C60484819581820F931F76
:1057D0000E945E2B0E94E12A80E18A95F1F7589899
:1057E0005098589A80E18A95F1F7F801EC5FFE4FE6
:1057F0006081662351F02091C5043091C6048181F7
:105800009281820F931F0E94112B0E94D92A0F9020
:10581000DF91CF91FF91EF91BF91AF919F918F91C8
:105820007F916F915F914F913F912F911F910F91B8
:105830000F900FBE0F901F9018950F931F93CF934B
:10584000DF93EC0104970CF04CC0F894509A5898F0
:1058500085E08A95F1F700009C2F969595708C2F26
:105860008570980F892F83709695969523E0CC0FBD
:10587000DD1F2A95E1F7980F8E01092B0E94E12A7E
:1058800000C068E0802F0E943D2B80E18A95F1F7EF
:105890005098589A489B1EC087E090E048991CC0D9
:1058A000FE01EC5FFE4F63816623F9F02091C50491
:1058B0003091C60484819581820F931F0E94112B21
:1058C000811113C0509A589A7894DF91CF911F910B
:1058D0000F91089500C0DECF019729F4509A589A8D
:1058E000789480E0F2CF00C0D9CF0E94D92A80E21C
:1058F0008A95F1F75898509A80E18A95F1F7CC5F34
:10590000DE4F6881662351F02091C5043091C604B2
:1059100089819A81820F931F0E945E2B0E94E12A47
:10592000789481E0D2CF2F923F924F925F926F9204
:105930007F928F929F92AF92BF92CF92DF92EF921F
:10594000FF920F931F93CF93DF93CDB7DEB7CA1BA0
:10595000DB0B0FB6F894DEBF0FBECDBF09942A88CB
:10596000398848885F846E847D848C849B84AA8473
:10597000B984C884DF80EE80FD800C811B81AA8100
:10598000B981CE0FD11D0FB6F894DEBF0FBECDBFCB
:10599000ED01089597FB072E16F4009407D077FDCC
:1059A00009D00E94E42C07FC05D03EF49095819527
:1059B0009F4F0895709561957F4F0895EE0FFF1FDB
:1059C0000590F491E02D0994AA1BBB1B51E107C07F
:1059D000AA1FBB1FA617B70710F0A61BB70B881F7F
:1059E000991F5A95A9F780959095BC01CD0108950E
:1059F000F999FECF92BD81BDF89A992780B5089597
:105A0000A8E1B0E042E050E00C942C2D262FF9994B
:105A1000FECF92BD81BDF89A019700B4021639F00D
:105A20001FBA20BD0FB6F894FA9AF99A0FBE0895DE
:105A30000396272F0E94072D0E94062D252F0E94D6
:105A4000072D242F0C94072D0196272F0E94072D38
:105A50000C94062DDC01CB01FC01F999FECF06C0A8
:105A6000F2BDE1BDF89A319600B40D92415050401C
:105A7000B8F70895FB01DC0104C08D9101908019F5
:105A800021F441505040C8F7881B990B0895FB0141
:105A9000DC0102C001900D9241505040D8F70895AA
:105AA000F894FFCF1011181120112811301138115E
:105AB000401148115011581160116811701178117E
:105AC0008011881190119811A011A811B011B8116E
:105AD000C011C811D011D811E011E811F011F8115E
